{
  "address": "0xe490E80588733F62Cb15ED1CD8f9beF1fc5a12EB",
  "abi": [
    {
      "inputs": [],
      "name": "NotListed",
      "type": "error"
    },
    {
      "inputs": [],
      "name": "NotOwner",
      "type": "error"
    },
    {
      "inputs": [],
      "name": "PriceMustNotZero",
      "type": "error"
    },
    {
      "inputs": [],
      "name": "PriceNotMet",
      "type": "error"
    },
    {
      "anonymous": false,
      "inputs": [
        {
          "indexed": true,
          "internalType": "string",
          "name": "productName",
          "type": "string"
        },
        {
          "indexed": true,
          "internalType": "uint256",
          "name": "tokenId",
          "type": "uint256"
        },
        {
          "indexed": false,
          "internalType": "uint256",
          "name": "productQuantity",
          "type": "uint256"
        },
        {
          "indexed": false,
          "internalType": "uint256",
          "name": "productPrice",
          "type": "uint256"
        },
        {
          "indexed": true,
          "internalType": "address",
          "name": "seller",
          "type": "address"
        }
      ],
      "name": "ItemBought",
      "type": "event"
    },
    {
      "anonymous": false,
      "inputs": [
        {
          "indexed": true,
          "internalType": "string",
          "name": "productName",
          "type": "string"
        },
        {
          "indexed": true,
          "internalType": "uint256",
          "name": "tokenId",
          "type": "uint256"
        },
        {
          "indexed": true,
          "internalType": "address",
          "name": "seller",
          "type": "address"
        }
      ],
      "name": "ItemCanceled",
      "type": "event"
    },
    {
      "anonymous": false,
      "inputs": [
        {
          "indexed": true,
          "internalType": "string",
          "name": "productName",
          "type": "string"
        },
        {
          "indexed": true,
          "internalType": "uint256",
          "name": "tokenId",
          "type": "uint256"
        },
        {
          "indexed": false,
          "internalType": "uint256",
          "name": "productQuantity",
          "type": "uint256"
        },
        {
          "indexed": false,
          "internalType": "uint256",
          "name": "productPrice",
          "type": "uint256"
        },
        {
          "indexed": true,
          "internalType": "address",
          "name": "seller",
          "type": "address"
        }
      ],
      "name": "ItemListed",
      "type": "event"
    },
    {
      "anonymous": false,
      "inputs": [
        {
          "indexed": true,
          "internalType": "string",
          "name": "productName",
          "type": "string"
        },
        {
          "indexed": true,
          "internalType": "uint256",
          "name": "tokenId",
          "type": "uint256"
        },
        {
          "indexed": false,
          "internalType": "uint256",
          "name": "productQuantity",
          "type": "uint256"
        },
        {
          "indexed": false,
          "internalType": "uint256",
          "name": "productPrice",
          "type": "uint256"
        },
        {
          "indexed": true,
          "internalType": "address",
          "name": "seller",
          "type": "address"
        }
      ],
      "name": "ItemPurchased",
      "type": "event"
    },
    {
      "anonymous": false,
      "inputs": [
        {
          "indexed": true,
          "internalType": "string",
          "name": "productName",
          "type": "string"
        },
        {
          "indexed": true,
          "internalType": "uint256",
          "name": "tokenId",
          "type": "uint256"
        },
        {
          "indexed": true,
          "internalType": "address",
          "name": "seller",
          "type": "address"
        }
      ],
      "name": "ItemUpdated",
      "type": "event"
    },
    {
      "inputs": [
        {
          "internalType": "uint256",
          "name": "_tokenID",
          "type": "uint256"
        }
      ],
      "name": "buyItem",
      "outputs": [],
      "stateMutability": "payable",
      "type": "function"
    },
    {
      "inputs": [
        {
          "internalType": "uint256",
          "name": "_tokenID",
          "type": "uint256"
        }
      ],
      "name": "cancelItem",
      "outputs": [],
      "stateMutability": "nonpayable",
      "type": "function"
    },
    {
      "inputs": [
        {
          "internalType": "uint256",
          "name": "_tokenID",
          "type": "uint256"
        }
      ],
      "name": "getAllOwners",
      "outputs": [
        {
          "components": [
            {
              "internalType": "address",
              "name": "farmerAddress",
              "type": "address"
            },
            {
              "internalType": "address",
              "name": "distributerAddress",
              "type": "address"
            },
            {
              "internalType": "address",
              "name": "retailerAddress",
              "type": "address"
            }
          ],
          "internalType": "struct SupplyChain.Owners",
          "name": "",
          "type": "tuple"
        }
      ],
      "stateMutability": "view",
      "type": "function"
    },
    {
      "inputs": [
        {
          "internalType": "uint256",
          "name": "_tokenID",
          "type": "uint256"
        }
      ],
      "name": "getDistributerInventory",
      "outputs": [
        {
          "components": [
            {
              "internalType": "string",
              "name": "productName",
              "type": "string"
            },
            {
              "internalType": "uint256",
              "name": "tokenId",
              "type": "uint256"
            },
            {
              "internalType": "uint256",
              "name": "productQuantity",
              "type": "uint256"
            },
            {
              "internalType": "uint256",
              "name": "productPrice",
              "type": "uint256"
            },
            {
              "internalType": "string",
              "name": "cateory",
              "type": "string"
            },
            {
              "internalType": "address",
              "name": "seller",
              "type": "address"
            }
          ],
          "internalType": "struct SupplyChain.Product",
          "name": "",
          "type": "tuple"
        }
      ],
      "stateMutability": "view",
      "type": "function"
    },
    {
      "inputs": [
        {
          "internalType": "uint256",
          "name": "_tokenID",
          "type": "uint256"
        }
      ],
      "name": "getFarmersListing",
      "outputs": [
        {
          "components": [
            {
              "internalType": "string",
              "name": "productName",
              "type": "string"
            },
            {
              "internalType": "uint256",
              "name": "tokenId",
              "type": "uint256"
            },
            {
              "internalType": "uint256",
              "name": "productQuantity",
              "type": "uint256"
            },
            {
              "internalType": "uint256",
              "name": "productPrice",
              "type": "uint256"
            },
            {
              "internalType": "string",
              "name": "cateory",
              "type": "string"
            },
            {
              "internalType": "address",
              "name": "seller",
              "type": "address"
            }
          ],
          "internalType": "struct SupplyChain.Product",
          "name": "",
          "type": "tuple"
        }
      ],
      "stateMutability": "view",
      "type": "function"
    },
    {
      "inputs": [],
      "name": "getTokenId",
      "outputs": [
        {
          "internalType": "uint256",
          "name": "",
          "type": "uint256"
        }
      ],
      "stateMutability": "view",
      "type": "function"
    },
    {
      "inputs": [
        {
          "internalType": "string",
          "name": "_ProductName",
          "type": "string"
        },
        {
          "internalType": "uint256",
          "name": "_quantity",
          "type": "uint256"
        },
        {
          "internalType": "uint256",
          "name": "_price",
          "type": "uint256"
        },
        {
          "internalType": "string",
          "name": "_category",
          "type": "string"
        }
      ],
      "name": "listItem",
      "outputs": [],
      "stateMutability": "nonpayable",
      "type": "function"
    },
    {
      "inputs": [
        {
          "internalType": "uint256",
          "name": "_tokenID",
          "type": "uint256"
        }
      ],
      "name": "purchaseItem",
      "outputs": [],
      "stateMutability": "payable",
      "type": "function"
    },
    {
      "inputs": [
        {
          "internalType": "uint256",
          "name": "",
          "type": "uint256"
        }
      ],
      "name": "s_distributerInventory",
      "outputs": [
        {
          "internalType": "string",
          "name": "productName",
          "type": "string"
        },
        {
          "internalType": "uint256",
          "name": "tokenId",
          "type": "uint256"
        },
        {
          "internalType": "uint256",
          "name": "productQuantity",
          "type": "uint256"
        },
        {
          "internalType": "uint256",
          "name": "productPrice",
          "type": "uint256"
        },
        {
          "internalType": "string",
          "name": "cateory",
          "type": "string"
        },
        {
          "internalType": "address",
          "name": "seller",
          "type": "address"
        }
      ],
      "stateMutability": "view",
      "type": "function"
    },
    {
      "inputs": [
        {
          "internalType": "uint256",
          "name": "",
          "type": "uint256"
        }
      ],
      "name": "s_farmerInventory",
      "outputs": [
        {
          "internalType": "string",
          "name": "productName",
          "type": "string"
        },
        {
          "internalType": "uint256",
          "name": "tokenId",
          "type": "uint256"
        },
        {
          "internalType": "uint256",
          "name": "productQuantity",
          "type": "uint256"
        },
        {
          "internalType": "uint256",
          "name": "productPrice",
          "type": "uint256"
        },
        {
          "internalType": "string",
          "name": "cateory",
          "type": "string"
        },
        {
          "internalType": "address",
          "name": "seller",
          "type": "address"
        }
      ],
      "stateMutability": "view",
      "type": "function"
    },
    {
      "inputs": [
        {
          "internalType": "string",
          "name": "",
          "type": "string"
        }
      ],
      "name": "s_productDistributer",
      "outputs": [
        {
          "internalType": "string",
          "name": "productName",
          "type": "string"
        },
        {
          "internalType": "uint256",
          "name": "tokenId",
          "type": "uint256"
        },
        {
          "internalType": "uint256",
          "name": "productQuantity",
          "type": "uint256"
        },
        {
          "internalType": "uint256",
          "name": "productPrice",
          "type": "uint256"
        },
        {
          "internalType": "string",
          "name": "cateory",
          "type": "string"
        },
        {
          "internalType": "address",
          "name": "seller",
          "type": "address"
        }
      ],
      "stateMutability": "view",
      "type": "function"
    },
    {
      "inputs": [
        {
          "internalType": "uint256",
          "name": "",
          "type": "uint256"
        }
      ],
      "name": "s_productOwners",
      "outputs": [
        {
          "internalType": "address",
          "name": "farmerAddress",
          "type": "address"
        },
        {
          "internalType": "address",
          "name": "distributerAddress",
          "type": "address"
        },
        {
          "internalType": "address",
          "name": "retailerAddress",
          "type": "address"
        }
      ],
      "stateMutability": "view",
      "type": "function"
    },
    {
      "inputs": [],
      "name": "s_tokenIDs",
      "outputs": [
        {
          "internalType": "uint256",
          "name": "",
          "type": "uint256"
        }
      ],
      "stateMutability": "view",
      "type": "function"
    },
    {
      "inputs": [
        {
          "internalType": "string",
          "name": "_productName",
          "type": "string"
        }
      ],
      "name": "searchDistributer",
      "outputs": [
        {
          "components": [
            {
              "internalType": "string",
              "name": "productName",
              "type": "string"
            },
            {
              "internalType": "uint256",
              "name": "tokenId",
              "type": "uint256"
            },
            {
              "internalType": "uint256",
              "name": "productQuantity",
              "type": "uint256"
            },
            {
              "internalType": "uint256",
              "name": "productPrice",
              "type": "uint256"
            },
            {
              "internalType": "string",
              "name": "cateory",
              "type": "string"
            },
            {
              "internalType": "address",
              "name": "seller",
              "type": "address"
            }
          ],
          "internalType": "struct SupplyChain.Product",
          "name": "",
          "type": "tuple"
        }
      ],
      "stateMutability": "view",
      "type": "function"
    },
    {
      "inputs": [
        {
          "internalType": "uint256",
          "name": "_tokenID",
          "type": "uint256"
        },
        {
          "internalType": "uint256",
          "name": "_newPrice",
          "type": "uint256"
        }
      ],
      "name": "updateListing",
      "outputs": [],
      "stateMutability": "nonpayable",
      "type": "function"
    }
  ],
  "transactionHash": "0x8da5dcadd739ba7950a93337a0af150a1f7404d3de4c55df2bc7ac3055e529d8",
  "args": [],
  "numDeployments": 1,
  "solcInputHash": "a93a0d343e89ee4587e923fb8e2c1ac2",
  "bytecode": "0x608060405234801561001057600080fd5b506135c4806100206000396000f3fe6080604052600436106100e85760003560e01c806361253a041161008a57806376146252116100595780637614625214610338578063d38ea5bf1461037a578063e7fb74c714610396578063f3f1833e146103b2576100e8565b806361253a04146102385780636681160d14610275578063718abbbc146102b757806373a1bd81146102f6576100e8565b806318cd5ee7116100c657806318cd5ee71461016c57806342d7104b146101a9578063505910fb146101d257806351563f8e1461020f576100e8565b8063010a38f5146100ed5780630179ea88146101185780630b7698c214610141575b600080fd5b3480156100f957600080fd5b506101026103ef565b60405161010f9190612a62565b60405180910390f35b34801561012457600080fd5b5061013f600480360381019061013a9190612abd565b6103f8565b005b34801561014d57600080fd5b50610156610838565b6040516101639190612a62565b60405180910390f35b34801561017857600080fd5b50610193600480360381019061018e9190612afd565b61083e565b6040516101a09190612c9a565b60405180910390f35b3480156101b557600080fd5b506101d060048036038101906101cb9190612df1565b610a03565b005b3480156101de57600080fd5b506101f960048036038101906101f49190612e90565b610c07565b6040516102069190612c9a565b60405180910390f35b34801561021b57600080fd5b5061023660048036038101906102319190612afd565b610dd7565b005b34801561024457600080fd5b5061025f600480360381019061025a9190612afd565b61148d565b60405161026c9190612f1b565b60405180910390f35b34801561028157600080fd5b5061029c60048036038101906102979190612e90565b6115bc565b6040516102ae96959493929190612f8f565b60405180910390f35b3480156102c357600080fd5b506102de60048036038101906102d99190612afd565b61173e565b6040516102ed93929190612ffe565b60405180910390f35b34801561030257600080fd5b5061031d60048036038101906103189190612afd565b6117c8565b60405161032f96959493929190612f8f565b60405180910390f35b34801561034457600080fd5b5061035f600480360381019061035a9190612afd565b611934565b60405161037196959493929190612f8f565b60405180910390f35b610394600480360381019061038f9190612afd565b611aa0565b005b6103b060048036038101906103ab9190612afd565b611f58565b005b3480156103be57600080fd5b506103d960048036038101906103d49190612afd565b612778565b6040516103e69190612c9a565b60405180910390f35b60008054905090565b816000600160008381526020019081526020016000206040518060c001604052908160008201805461042990613064565b80601f016020809104026020016040519081016040528092919081815260200182805461045590613064565b80156104a25780601f10610477576101008083540402835291602001916104a2565b820191906000526020600020905b81548152906001019060200180831161048557829003601f168201915b505050505081526020016001820154815260200160028201548152602001600382015481526020016004820180546104d990613064565b80601f016020809104026020016040519081016040528092919081815260200182805461050590613064565b80156105525780601f1061052757610100808354040283529160200191610552565b820191906000526020600020905b81548152906001019060200180831161053557829003601f168201915b505050505081526020016005820160009054906101000a900473ffffffffffffffffffffffffffffffffffffffff1673ffffffffffffffffffffffffffffffffffffffff1673ffffffffffffffffffffffffffffffffffffffff1681525050905060008160600151116105f1576040517f665c1c5700000000000000000000000000000000000000000000000000000000815260040160405180910390fd5b836000600160008381526020019081526020016000206040518060c001604052908160008201805461062290613064565b80601f016020809104026020016040519081016040528092919081815260200182805461064e90613064565b801561069b5780601f106106705761010080835404028352916020019161069b565b820191906000526020600020905b81548152906001019060200180831161067e57829003601f168201915b505050505081526020016001820154815260200160028201548152602001600382015481526020016004820180546106d290613064565b80601f01602080910402602001604051908101604052809291908181526020018280546106fe90613064565b801561074b5780601f106107205761010080835404028352916020019161074b565b820191906000526020600020905b81548152906001019060200180831161072e57829003601f168201915b505050505081526020016005820160009054906101000a900473ffffffffffffffffffffffffffffffffffffffff1673ffffffffffffffffffffffffffffffffffffffff1673ffffffffffffffffffffffffffffffffffffffff168152505090503373ffffffffffffffffffffffffffffffffffffffff168160a0015173ffffffffffffffffffffffffffffffffffffffff1614610815576040517f30cd747100000000000000000000000000000000000000000000000000000000815260040160405180910390fd5b846001600088815260200190815260200160002060030181905550505050505050565b60005481565b61084661293d565b600260008381526020019081526020016000206040518060c001604052908160008201805461087490613064565b80601f01602080910402602001604051908101604052809291908181526020018280546108a090613064565b80156108ed5780601f106108c2576101008083540402835291602001916108ed565b820191906000526020600020905b8154815290600101906020018083116108d057829003601f168201915b5050505050815260200160018201548152602001600282015481526020016003820154815260200160048201805461092490613064565b80601f016020809104026020016040519081016040528092919081815260200182805461095090613064565b801561099d5780601f106109725761010080835404028352916020019161099d565b820191906000526020600020905b81548152906001019060200180831161098057829003601f168201915b505050505081526020016005820160009054906101000a900473ffffffffffffffffffffffffffffffffffffffff1673ffffffffffffffffffffffffffffffffffffffff1673ffffffffffffffffffffffffffffffffffffffff16815250509050919050565b60008211610a3d576040517f710871ac00000000000000000000000000000000000000000000000000000000815260040160405180910390fd5b600080815480929190610a4f906130c4565b91905055506000805490506040518060c001604052808681526020018281526020018581526020018481526020018381526020013373ffffffffffffffffffffffffffffffffffffffff16815250600160008381526020019081526020016000206000820151816000019081610ac591906132b8565b506020820151816001015560408201518160020155606082015181600301556080820151816004019081610af991906132b8565b5060a08201518160050160006101000a81548173ffffffffffffffffffffffffffffffffffffffff021916908373ffffffffffffffffffffffffffffffffffffffff160217905550905050336003600083815260200190815260200160002060000160006101000a81548173ffffffffffffffffffffffffffffffffffffffff021916908373ffffffffffffffffffffffffffffffffffffffff1602179055503373ffffffffffffffffffffffffffffffffffffffff168186604051610bbf91906133c6565b60405180910390207f24b521170273788138099b26cb6928e7f17539aa1b2a9835c98936a755144f308787604051610bf89291906133dd565b60405180910390a45050505050565b610c0f61293d565b600482604051610c1f91906133c6565b90815260200160405180910390206040518060c0016040529081600082018054610c4890613064565b80601f0160208091040260200160405190810160405280929190818152602001828054610c7490613064565b8015610cc15780601f10610c9657610100808354040283529160200191610cc1565b820191906000526020600020905b815481529060010190602001808311610ca457829003601f168201915b50505050508152602001600182015481526020016002820154815260200160038201548152602001600482018054610cf890613064565b80601f0160208091040260200160405190810160405280929190818152602001828054610d2490613064565b8015610d715780601f10610d4657610100808354040283529160200191610d71565b820191906000526020600020905b815481529060010190602001808311610d5457829003601f168201915b505050505081526020016005820160009054906101000a900473ffffffffffffffffffffffffffffffffffffffff1673ffffffffffffffffffffffffffffffffffffffff1673ffffffffffffffffffffffffffffffffffffffff16815250509050919050565b806000600160008381526020019081526020016000206040518060c0016040529081600082018054610e0890613064565b80601f0160208091040260200160405190810160405280929190818152602001828054610e3490613064565b8015610e815780601f10610e5657610100808354040283529160200191610e81565b820191906000526020600020905b815481529060010190602001808311610e6457829003601f168201915b50505050508152602001600182015481526020016002820154815260200160038201548152602001600482018054610eb890613064565b80601f0160208091040260200160405190810160405280929190818152602001828054610ee490613064565b8015610f315780601f10610f0657610100808354040283529160200191610f31565b820191906000526020600020905b815481529060010190602001808311610f1457829003601f168201915b505050505081526020016005820160009054906101000a900473ffffffffffffffffffffffffffffffffffffffff1673ffffffffffffffffffffffffffffffffffffffff1673ffffffffffffffffffffffffffffffffffffffff168152505090506000816060015111610fd0576040517f665c1c5700000000000000000000000000000000000000000000000000000000815260040160405180910390fd5b826000600160008381526020019081526020016000206040518060c001604052908160008201805461100190613064565b80601f016020809104026020016040519081016040528092919081815260200182805461102d90613064565b801561107a5780601f1061104f5761010080835404028352916020019161107a565b820191906000526020600020905b81548152906001019060200180831161105d57829003601f168201915b505050505081526020016001820154815260200160028201548152602001600382015481526020016004820180546110b190613064565b80601f01602080910402602001604051908101604052809291908181526020018280546110dd90613064565b801561112a5780601f106110ff5761010080835404028352916020019161112a565b820191906000526020600020905b81548152906001019060200180831161110d57829003601f168201915b505050505081526020016005820160009054906101000a900473ffffffffffffffffffffffffffffffffffffffff1673ffffffffffffffffffffffffffffffffffffffff1673ffffffffffffffffffffffffffffffffffffffff168152505090503373ffffffffffffffffffffffffffffffffffffffff168160a0015173ffffffffffffffffffffffffffffffffffffffff16146111f4576040517f30cd747100000000000000000000000000000000000000000000000000000000815260040160405180910390fd5b6000600160008781526020019081526020016000206040518060c001604052908160008201805461122490613064565b80601f016020809104026020016040519081016040528092919081815260200182805461125090613064565b801561129d5780601f106112725761010080835404028352916020019161129d565b820191906000526020600020905b81548152906001019060200180831161128057829003601f168201915b505050505081526020016001820154815260200160028201548152602001600382015481526020016004820180546112d490613064565b80601f016020809104026020016040519081016040528092919081815260200182805461130090613064565b801561134d5780601f106113225761010080835404028352916020019161134d565b820191906000526020600020905b81548152906001019060200180831161133057829003601f168201915b505050505081526020016005820160009054906101000a900473ffffffffffffffffffffffffffffffffffffffff1673ffffffffffffffffffffffffffffffffffffffff1673ffffffffffffffffffffffffffffffffffffffff1681525050905060016000878152602001908152602001600020600080820160006113d29190612989565b6001820160009055600282016000905560038201600090556004820160006113fa9190612989565b6005820160006101000a81549073ffffffffffffffffffffffffffffffffffffffff021916905550508060a0015173ffffffffffffffffffffffffffffffffffffffff1686826000015160405161145191906133c6565b60405180910390207f4a7059f7cc563bab4fc554525dfac597ddcc3c19c81e3e51aa862a88daba8cf060405160405180910390a4505050505050565b6114956129c9565b600360008381526020019081526020016000206040518060600160405290816000820160009054906101000a900473ffffffffffffffffffffffffffffffffffffffff1673ffffffffffffffffffffffffffffffffffffffff1673ffffffffffffffffffffffffffffffffffffffff1681526020016001820160009054906101000a900473ffffffffffffffffffffffffffffffffffffffff1673ffffffffffffffffffffffffffffffffffffffff1673ffffffffffffffffffffffffffffffffffffffff1681526020016002820160009054906101000a900473ffffffffffffffffffffffffffffffffffffffff1673ffffffffffffffffffffffffffffffffffffffff1673ffffffffffffffffffffffffffffffffffffffff16815250509050919050565b6004818051602081018201805184825260208301602085012081835280955050505050506000915090508060000180546115f590613064565b80601f016020809104026020016040519081016040528092919081815260200182805461162190613064565b801561166e5780601f106116435761010080835404028352916020019161166e565b820191906000526020600020905b81548152906001019060200180831161165157829003601f168201915b50505050509080600101549080600201549080600301549080600401805461169590613064565b80601f01602080910402602001604051908101604052809291908181526020018280546116c190613064565b801561170e5780601f106116e35761010080835404028352916020019161170e565b820191906000526020600020905b8154815290600101906020018083116116f157829003601f168201915b5050505050908060050160009054906101000a900473ffffffffffffffffffffffffffffffffffffffff16905086565b60036020528060005260406000206000915090508060000160009054906101000a900473ffffffffffffffffffffffffffffffffffffffff16908060010160009054906101000a900473ffffffffffffffffffffffffffffffffffffffff16908060020160009054906101000a900473ffffffffffffffffffffffffffffffffffffffff16905083565b60016020528060005260406000206000915090508060000180546117eb90613064565b80601f016020809104026020016040519081016040528092919081815260200182805461181790613064565b80156118645780601f1061183957610100808354040283529160200191611864565b820191906000526020600020905b81548152906001019060200180831161184757829003601f168201915b50505050509080600101549080600201549080600301549080600401805461188b90613064565b80601f01602080910402602001604051908101604052809291908181526020018280546118b790613064565b80156119045780601f106118d957610100808354040283529160200191611904565b820191906000526020600020905b8154815290600101906020018083116118e757829003601f168201915b5050505050908060050160009054906101000a900473ffffffffffffffffffffffffffffffffffffffff16905086565b600260205280600052604060002060009150905080600001805461195790613064565b80601f016020809104026020016040519081016040528092919081815260200182805461198390613064565b80156119d05780601f106119a5576101008083540402835291602001916119d0565b820191906000526020600020905b8154815290600101906020018083116119b357829003601f168201915b5050505050908060010154908060020154908060030154908060040180546119f790613064565b80601f0160208091040260200160405190810160405280929190818152602001828054611a2390613064565b8015611a705780601f10611a4557610100808354040283529160200191611a70565b820191906000526020600020905b815481529060010190602001808311611a5357829003601f168201915b5050505050908060050160009054906101000a900473ffffffffffffffffffffffffffffffffffffffff16905086565b6000600260008381526020019081526020016000206040518060c0016040529081600082018054611ad090613064565b80601f0160208091040260200160405190810160405280929190818152602001828054611afc90613064565b8015611b495780601f10611b1e57610100808354040283529160200191611b49565b820191906000526020600020905b815481529060010190602001808311611b2c57829003601f168201915b50505050508152602001600182015481526020016002820154815260200160038201548152602001600482018054611b8090613064565b80601f0160208091040260200160405190810160405280929190818152602001828054611bac90613064565b8015611bf95780601f10611bce57610100808354040283529160200191611bf9565b820191906000526020600020905b815481529060010190602001808311611bdc57829003601f168201915b505050505081526020016005820160009054906101000a900473ffffffffffffffffffffffffffffffffffffffff1673ffffffffffffffffffffffffffffffffffffffff1673ffffffffffffffffffffffffffffffffffffffff16815250509050600081606001511015611c99576040517f665c1c5700000000000000000000000000000000000000000000000000000000815260040160405180910390fd5b80606001513414611cd6576040517fa2c2d5c600000000000000000000000000000000000000000000000000000000815260040160405180910390fd5b6002600083815260200190815260200160002060008082016000611cfa9190612989565b600182016000905560028201600090556003820160009055600482016000611d229190612989565b6005820160006101000a81549073ffffffffffffffffffffffffffffffffffffffff0219169055505060048160000151604051611d5f91906133c6565b908152602001604051809103902060008082016000611d7e9190612989565b600182016000905560028201600090556003820160009055600482016000611da69190612989565b6005820160006101000a81549073ffffffffffffffffffffffffffffffffffffffff0219169055505033600360008360200151815260200190815260200160002060020160006101000a81548173ffffffffffffffffffffffffffffffffffffffff021916908373ffffffffffffffffffffffffffffffffffffffff16021790555060008160a0015173ffffffffffffffffffffffffffffffffffffffff168260600151604051611e5690613437565b60006040518083038185875af1925050503d8060008114611e93576040519150601f19603f3d011682016040523d82523d6000602084013e611e98565b606091505b5050905080611edc576040517f08c379a0000000000000000000000000000000000000000000000000000000008152600401611ed390613498565b60405180910390fd5b3373ffffffffffffffffffffffffffffffffffffffff1682602001518360000151604051611f0a91906133c6565b60405180910390207f8f75ef42bcc8abd2ade616846ab90278dc99078a3682ca82ee53a9bc91bcc52685604001518660600151604051611f4b9291906133dd565b60405180910390a4505050565b806000600160008381526020019081526020016000206040518060c0016040529081600082018054611f8990613064565b80601f0160208091040260200160405190810160405280929190818152602001828054611fb590613064565b80156120025780601f10611fd757610100808354040283529160200191612002565b820191906000526020600020905b815481529060010190602001808311611fe557829003601f168201915b5050505050815260200160018201548152602001600282015481526020016003820154815260200160048201805461203990613064565b80601f016020809104026020016040519081016040528092919081815260200182805461206590613064565b80156120b25780601f10612087576101008083540402835291602001916120b2565b820191906000526020600020905b81548152906001019060200180831161209557829003601f168201915b505050505081526020016005820160009054906101000a900473ffffffffffffffffffffffffffffffffffffffff1673ffffffffffffffffffffffffffffffffffffffff1673ffffffffffffffffffffffffffffffffffffffff168152505090506000816060015111612151576040517f665c1c5700000000000000000000000000000000000000000000000000000000815260040160405180910390fd5b6000600160008581526020019081526020016000206040518060c001604052908160008201805461218190613064565b80601f01602080910402602001604051908101604052809291908181526020018280546121ad90613064565b80156121fa5780601f106121cf576101008083540402835291602001916121fa565b820191906000526020600020905b8154815290600101906020018083116121dd57829003601f168201915b5050505050815260200160018201548152602001600282015481526020016003820154815260200160048201805461223190613064565b80601f016020809104026020016040519081016040528092919081815260200182805461225d90613064565b80156122aa5780601f1061227f576101008083540402835291602001916122aa565b820191906000526020600020905b81548152906001019060200180831161228d57829003601f168201915b505050505081526020016005820160009054906101000a900473ffffffffffffffffffffffffffffffffffffffff1673ffffffffffffffffffffffffffffffffffffffff1673ffffffffffffffffffffffffffffffffffffffff1681525050905080606001513414612348576040517fa2c2d5c600000000000000000000000000000000000000000000000000000000815260040160405180910390fd5b600160008581526020019081526020016000206000808201600061236c9190612989565b6001820160009055600282016000905560038201600090556004820160006123949190612989565b6005820160006101000a81549073ffffffffffffffffffffffffffffffffffffffff0219169055505060006064601483606001516123d291906134b8565b6123dc9190613529565b82606001516123eb919061355a565b90506040518060c00160405280836000015181526020018360200151815260200183604001518152602001828152602001836080015181526020013373ffffffffffffffffffffffffffffffffffffffff1681525060026000878152602001908152602001600020600082015181600001908161246891906132b8565b50602082015181600101556040820151816002015560608201518160030155608082015181600401908161249c91906132b8565b5060a08201518160050160006101000a81548173ffffffffffffffffffffffffffffffffffffffff021916908373ffffffffffffffffffffffffffffffffffffffff16021790555090505033600360008460200151815260200190815260200160002060010160006101000a81548173ffffffffffffffffffffffffffffffffffffffff021916908373ffffffffffffffffffffffffffffffffffffffff1602179055506040518060c00160405280836000015181526020018360200151815260200183604001518152602001828152602001836080015181526020013373ffffffffffffffffffffffffffffffffffffffff16815250600483600001516040516125a791906133c6565b908152602001604051809103902060008201518160000190816125ca91906132b8565b5060208201518160010155604082015181600201556060820151816003015560808201518160040190816125fe91906132b8565b5060a08201518160050160006101000a81548173ffffffffffffffffffffffffffffffffffffffff021916908373ffffffffffffffffffffffffffffffffffffffff16021790555090505060008260a0015173ffffffffffffffffffffffffffffffffffffffff16836060015160405161267790613437565b60006040518083038185875af1925050503d80600081146126b4576040519150601f19603f3d011682016040523d82523d6000602084013e6126b9565b606091505b50509050806126fd576040517f08c379a00000000000000000000000000000000000000000000000000000000081526004016126f490613498565b60405180910390fd5b3373ffffffffffffffffffffffffffffffffffffffff168360200151846000015160405161272b91906133c6565b60405180910390207ff48874b363574ff057ae8c93e5bf082e6e85fff3181aa3b680ba5f9eb646aef38660400151866040516127689291906133dd565b60405180910390a4505050505050565b61278061293d565b600160008381526020019081526020016000206040518060c00160405290816000820180546127ae90613064565b80601f01602080910402602001604051908101604052809291908181526020018280546127da90613064565b80156128275780601f106127fc57610100808354040283529160200191612827565b820191906000526020600020905b81548152906001019060200180831161280a57829003601f168201915b5050505050815260200160018201548152602001600282015481526020016003820154815260200160048201805461285e90613064565b80601f016020809104026020016040519081016040528092919081815260200182805461288a90613064565b80156128d75780601f106128ac576101008083540402835291602001916128d7565b820191906000526020600020905b8154815290600101906020018083116128ba57829003601f168201915b505050505081526020016005820160009054906101000a900473ffffffffffffffffffffffffffffffffffffffff1673ffffffffffffffffffffffffffffffffffffffff1673ffffffffffffffffffffffffffffffffffffffff16815250509050919050565b6040518060c001604052806060815260200160008152602001600081526020016000815260200160608152602001600073ffffffffffffffffffffffffffffffffffffffff1681525090565b50805461299590613064565b6000825580601f106129a757506129c6565b601f0160209004906000526020600020908101906129c59190612a2c565b5b50565b6040518060600160405280600073ffffffffffffffffffffffffffffffffffffffff168152602001600073ffffffffffffffffffffffffffffffffffffffff168152602001600073ffffffffffffffffffffffffffffffffffffffff1681525090565b5b80821115612a45576000816000905550600101612a2d565b5090565b6000819050919050565b612a5c81612a49565b82525050565b6000602082019050612a776000830184612a53565b92915050565b6000604051905090565b600080fd5b600080fd5b612a9a81612a49565b8114612aa557600080fd5b50565b600081359050612ab781612a91565b92915050565b60008060408385031215612ad457612ad3612a87565b5b6000612ae285828601612aa8565b9250506020612af385828601612aa8565b9150509250929050565b600060208284031215612b1357612b12612a87565b5b6000612b2184828501612aa8565b91505092915050565b600081519050919050565b600082825260208201905092915050565b60005b83811015612b64578082015181840152602081019050612b49565b60008484015250505050565b6000601f19601f8301169050919050565b6000612b8c82612b2a565b612b968185612b35565b9350612ba6818560208601612b46565b612baf81612b70565b840191505092915050565b612bc381612a49565b82525050565b600073ffffffffffffffffffffffffffffffffffffffff82169050919050565b6000612bf482612bc9565b9050919050565b612c0481612be9565b82525050565b600060c0830160008301518482036000860152612c278282612b81565b9150506020830151612c3c6020860182612bba565b506040830151612c4f6040860182612bba565b506060830151612c626060860182612bba565b5060808301518482036080860152612c7a8282612b81565b91505060a0830151612c8f60a0860182612bfb565b508091505092915050565b60006020820190508181036000830152612cb48184612c0a565b905092915050565b600080fd5b600080fd5b7f4e487b7100000000000000000000000000000000000000000000000000000000600052604160045260246000fd5b612cfe82612b70565b810181811067ffffffffffffffff82111715612d1d57612d1c612cc6565b5b80604052505050565b6000612d30612a7d565b9050612d3c8282612cf5565b919050565b600067ffffffffffffffff821115612d5c57612d5b612cc6565b5b612d6582612b70565b9050602081019050919050565b82818337600083830152505050565b6000612d94612d8f84612d41565b612d26565b905082815260208101848484011115612db057612daf612cc1565b5b612dbb848285612d72565b509392505050565b600082601f830112612dd857612dd7612cbc565b5b8135612de8848260208601612d81565b91505092915050565b60008060008060808587031215612e0b57612e0a612a87565b5b600085013567ffffffffffffffff811115612e2957612e28612a8c565b5b612e3587828801612dc3565b9450506020612e4687828801612aa8565b9350506040612e5787828801612aa8565b925050606085013567ffffffffffffffff811115612e7857612e77612a8c565b5b612e8487828801612dc3565b91505092959194509250565b600060208284031215612ea657612ea5612a87565b5b600082013567ffffffffffffffff811115612ec457612ec3612a8c565b5b612ed084828501612dc3565b91505092915050565b606082016000820151612eef6000850182612bfb565b506020820151612f026020850182612bfb565b506040820151612f156040850182612bfb565b50505050565b6000606082019050612f306000830184612ed9565b92915050565b600082825260208201905092915050565b6000612f5282612b2a565b612f5c8185612f36565b9350612f6c818560208601612b46565b612f7581612b70565b840191505092915050565b612f8981612be9565b82525050565b600060c0820190508181036000830152612fa98189612f47565b9050612fb86020830188612a53565b612fc56040830187612a53565b612fd26060830186612a53565b8181036080830152612fe48185612f47565b9050612ff360a0830184612f80565b979650505050505050565b60006060820190506130136000830186612f80565b6130206020830185612f80565b61302d6040830184612f80565b949350505050565b7f4e487b7100000000000000000000000000000000000000000000000000000000600052602260045260246000fd5b6000600282049050600182168061307c57607f821691505b60208210810361308f5761308e613035565b5b50919050565b7f4e487b7100000000000000000000000000000000000000000000000000000000600052601160045260246000fd5b60006130cf82612a49565b91507fffffffffffffffffffffffffffffffffffffffffffffffffffffffffffffffff820361310157613100613095565b5b600182019050919050565b60008190508160005260206000209050919050565b60006020601f8301049050919050565b600082821b905092915050565b60006008830261316e7fffffffffffffffffffffffffffffffffffffffffffffffffffffffffffffffff82613131565b6131788683613131565b95508019841693508086168417925050509392505050565b6000819050919050565b60006131b56131b06131ab84612a49565b613190565b612a49565b9050919050565b6000819050919050565b6131cf8361319a565b6131e36131db826131bc565b84845461313e565b825550505050565b600090565b6131f86131eb565b6132038184846131c6565b505050565b5b818110156132275761321c6000826131f0565b600181019050613209565b5050565b601f82111561326c5761323d8161310c565b61324684613121565b81016020851015613255578190505b61326961326185613121565b830182613208565b50505b505050565b600082821c905092915050565b600061328f60001984600802613271565b1980831691505092915050565b60006132a8838361327e565b9150826002028217905092915050565b6132c182612b2a565b67ffffffffffffffff8111156132da576132d9612cc6565b5b6132e48254613064565b6132ef82828561322b565b600060209050601f8311600181146133225760008415613310578287015190505b61331a858261329c565b865550613382565b601f1984166133308661310c565b60005b8281101561335857848901518255600182019150602085019450602081019050613333565b868310156133755784890151613371601f89168261327e565b8355505b6001600288020188555050505b505050505050565b600081905092915050565b60006133a082612b2a565b6133aa818561338a565b93506133ba818560208601612b46565b80840191505092915050565b60006133d28284613395565b915081905092915050565b60006040820190506133f26000830185612a53565b6133ff6020830184612a53565b9392505050565b600081905092915050565b50565b6000613421600083613406565b915061342c82613411565b600082019050919050565b600061344282613414565b9150819050919050565b7f63616c6c206661696c6564000000000000000000000000000000000000000000600082015250565b6000613482600b83612f36565b915061348d8261344c565b602082019050919050565b600060208201905081810360008301526134b181613475565b9050919050565b60006134c382612a49565b91506134ce83612a49565b92508282026134dc81612a49565b915082820484148315176134f3576134f2613095565b5b5092915050565b7f4e487b7100000000000000000000000000000000000000000000000000000000600052601260045260246000fd5b600061353482612a49565b915061353f83612a49565b92508261354f5761354e6134fa565b5b828204905092915050565b600061356582612a49565b915061357083612a49565b925082820190508082111561358857613587613095565b5b9291505056fea264697066735822122077022e4d00ef6d6f8f26196f2369a963cc6fdfe1c5f585f3112802aa3e17b9be64736f6c63430008110033",
  "devdoc": {
    "kind": "dev",
    "methods": {
      "buyItem(uint256)": {
        "params": {
          "_tokenID": "- The token id of the product to be bought"
        }
      },
      "cancelItem(uint256)": {
        "params": {
          "_tokenID": "- The token id of the product to be canceled"
        }
      },
      "listItem(string,uint256,uint256,string)": {
        "params": {
          "_ProductName": "- Name of the product",
          "_price": "price of the product to be sold",
          "_quantity": "- Quantity of product to be sold"
        }
      },
      "purchaseItem(uint256)": {
        "params": {
          "_tokenID": "- The token id of the product to be bought"
        }
      },
      "updateListing(uint256,uint256)": {
        "params": {
          "_newPrice": "- The price to which you want to update it.",
          "_tokenID": "- The token id of the product to be updated"
        }
      }
    },
    "version": 1
  },
  "userdoc": {
    "kind": "user",
    "methods": {
      "buyItem(uint256)": {
        "notice": "Buy the product from farmer and add it into distributer's inventory"
      },
      "cancelItem(uint256)": {
        "notice": "Cancel the listing of a product"
      },
      "listItem(string,uint256,uint256,string)": {
        "notice": "List the product details on the marketplace"
      },
      "purchaseItem(uint256)": {
        "notice": "Purchase the item from distributer"
      },
      "updateListing(uint256,uint256)": {
        "notice": "Update the price of an already listed product"
      }
    },
    "version": 1
  },
  "storageLayout": {
    "storage": [
      {
        "astId": 11,
        "contract": "contracts/SupplyChain.sol:SupplyChain",
        "label": "s_tokenIDs",
        "offset": 0,
        "slot": "0",
        "type": "t_uint256"
      },
      {
        "astId": 36,
        "contract": "contracts/SupplyChain.sol:SupplyChain",
        "label": "s_farmerInventory",
        "offset": 0,
        "slot": "1",
        "type": "t_mapping(t_uint256,t_struct(Product)24_storage)"
      },
      {
        "astId": 41,
        "contract": "contracts/SupplyChain.sol:SupplyChain",
        "label": "s_distributerInventory",
        "offset": 0,
        "slot": "2",
        "type": "t_mapping(t_uint256,t_struct(Product)24_storage)"
      },
      {
        "astId": 46,
        "contract": "contracts/SupplyChain.sol:SupplyChain",
        "label": "s_productOwners",
        "offset": 0,
        "slot": "3",
        "type": "t_mapping(t_uint256,t_struct(Owners)31_storage)"
      },
      {
        "astId": 51,
        "contract": "contracts/SupplyChain.sol:SupplyChain",
        "label": "s_productDistributer",
        "offset": 0,
        "slot": "4",
        "type": "t_mapping(t_string_memory_ptr,t_struct(Product)24_storage)"
      }
    ],
    "types": {
      "t_address": {
        "encoding": "inplace",
        "label": "address",
        "numberOfBytes": "20"
      },
      "t_mapping(t_string_memory_ptr,t_struct(Product)24_storage)": {
        "encoding": "mapping",
        "key": "t_string_memory_ptr",
        "label": "mapping(string => struct SupplyChain.Product)",
        "numberOfBytes": "32",
        "value": "t_struct(Product)24_storage"
      },
      "t_mapping(t_uint256,t_struct(Owners)31_storage)": {
        "encoding": "mapping",
        "key": "t_uint256",
        "label": "mapping(uint256 => struct SupplyChain.Owners)",
        "numberOfBytes": "32",
        "value": "t_struct(Owners)31_storage"
      },
      "t_mapping(t_uint256,t_struct(Product)24_storage)": {
        "encoding": "mapping",
        "key": "t_uint256",
        "label": "mapping(uint256 => struct SupplyChain.Product)",
        "numberOfBytes": "32",
        "value": "t_struct(Product)24_storage"
      },
      "t_string_memory_ptr": {
        "encoding": "bytes",
        "label": "string",
        "numberOfBytes": "32"
      },
      "t_string_storage": {
        "encoding": "bytes",
        "label": "string",
        "numberOfBytes": "32"
      },
      "t_struct(Owners)31_storage": {
        "encoding": "inplace",
        "label": "struct SupplyChain.Owners",
        "members": [
          {
            "astId": 26,
            "contract": "contracts/SupplyChain.sol:SupplyChain",
            "label": "farmerAddress",
            "offset": 0,
            "slot": "0",
            "type": "t_address"
          },
          {
            "astId": 28,
            "contract": "contracts/SupplyChain.sol:SupplyChain",
            "label": "distributerAddress",
            "offset": 0,
            "slot": "1",
            "type": "t_address"
          },
          {
            "astId": 30,
            "contract": "contracts/SupplyChain.sol:SupplyChain",
            "label": "retailerAddress",
            "offset": 0,
            "slot": "2",
            "type": "t_address"
          }
        ],
        "numberOfBytes": "96"
      },
      "t_struct(Product)24_storage": {
        "encoding": "inplace",
        "label": "struct SupplyChain.Product",
        "members": [
          {
            "astId": 13,
            "contract": "contracts/SupplyChain.sol:SupplyChain",
            "label": "productName",
            "offset": 0,
            "slot": "0",
            "type": "t_string_storage"
          },
          {
            "astId": 15,
            "contract": "contracts/SupplyChain.sol:SupplyChain",
            "label": "tokenId",
            "offset": 0,
            "slot": "1",
            "type": "t_uint256"
          },
          {
            "astId": 17,
            "contract": "contracts/SupplyChain.sol:SupplyChain",
            "label": "productQuantity",
            "offset": 0,
            "slot": "2",
            "type": "t_uint256"
          },
          {
            "astId": 19,
            "contract": "contracts/SupplyChain.sol:SupplyChain",
            "label": "productPrice",
            "offset": 0,
            "slot": "3",
            "type": "t_uint256"
          },
          {
            "astId": 21,
            "contract": "contracts/SupplyChain.sol:SupplyChain",
            "label": "cateory",
            "offset": 0,
            "slot": "4",
            "type": "t_string_storage"
          },
          {
            "astId": 23,
            "contract": "contracts/SupplyChain.sol:SupplyChain",
            "label": "seller",
            "offset": 0,
            "slot": "5",
            "type": "t_address"
          }
        ],
        "numberOfBytes": "192"
      },
      "t_uint256": {
        "encoding": "inplace",
        "label": "uint256",
        "numberOfBytes": "32"
      }
    }
  }
}