{
  "address": "0x8a3a9e65b43def85067Fc5a3183c926E2501652B",
  "abi": [
    {
      "inputs": [],
      "name": "NotListed",
      "type": "error"
    },
    {
      "inputs": [],
      "name": "NotOwner",
      "type": "error"
    },
    {
      "inputs": [],
      "name": "PriceMustNotZero",
      "type": "error"
    },
    {
      "inputs": [],
      "name": "PriceNotMet",
      "type": "error"
    },
    {
      "anonymous": false,
      "inputs": [
        {
          "indexed": true,
          "internalType": "string",
          "name": "productName",
          "type": "string"
        },
        {
          "indexed": true,
          "internalType": "uint256",
          "name": "tokenId",
          "type": "uint256"
        },
        {
          "indexed": false,
          "internalType": "uint256",
          "name": "productQuantity",
          "type": "uint256"
        },
        {
          "indexed": false,
          "internalType": "uint256",
          "name": "productPrice",
          "type": "uint256"
        },
        {
          "indexed": true,
          "internalType": "address",
          "name": "seller",
          "type": "address"
        }
      ],
      "name": "ItemBough",
      "type": "event"
    },
    {
      "anonymous": false,
      "inputs": [
        {
          "indexed": true,
          "internalType": "string",
          "name": "productName",
          "type": "string"
        },
        {
          "indexed": true,
          "internalType": "uint256",
          "name": "tokenId",
          "type": "uint256"
        },
        {
          "indexed": true,
          "internalType": "address",
          "name": "seller",
          "type": "address"
        }
      ],
      "name": "ItemCanceled",
      "type": "event"
    },
    {
      "anonymous": false,
      "inputs": [
        {
          "indexed": true,
          "internalType": "string",
          "name": "productName",
          "type": "string"
        },
        {
          "indexed": true,
          "internalType": "uint256",
          "name": "tokenId",
          "type": "uint256"
        },
        {
          "indexed": false,
          "internalType": "uint256",
          "name": "productQuantity",
          "type": "uint256"
        },
        {
          "indexed": false,
          "internalType": "uint256",
          "name": "productPrice",
          "type": "uint256"
        },
        {
          "indexed": true,
          "internalType": "address",
          "name": "seller",
          "type": "address"
        }
      ],
      "name": "ItemListed",
      "type": "event"
    },
    {
      "inputs": [
        {
          "internalType": "uint256",
          "name": "_tokenID",
          "type": "uint256"
        }
      ],
      "name": "buyItem",
      "outputs": [],
      "stateMutability": "payable",
      "type": "function"
    },
    {
      "inputs": [
        {
          "internalType": "uint256",
          "name": "_tokenID",
          "type": "uint256"
        }
      ],
      "name": "cancelItem",
      "outputs": [],
      "stateMutability": "nonpayable",
      "type": "function"
    },
    {
      "inputs": [
        {
          "internalType": "uint256",
          "name": "_tokenID",
          "type": "uint256"
        }
      ],
      "name": "getAllOwners",
      "outputs": [
        {
          "components": [
            {
              "internalType": "address",
              "name": "farmerAddress",
              "type": "address"
            },
            {
              "internalType": "address",
              "name": "distributerAddress",
              "type": "address"
            },
            {
              "internalType": "address",
              "name": "retailerAddress",
              "type": "address"
            }
          ],
          "internalType": "struct SupplyChain.Owners",
          "name": "",
          "type": "tuple"
        }
      ],
      "stateMutability": "view",
      "type": "function"
    },
    {
      "inputs": [
        {
          "internalType": "uint256",
          "name": "_tokenID",
          "type": "uint256"
        }
      ],
      "name": "getDistributerInventory",
      "outputs": [
        {
          "components": [
            {
              "internalType": "string",
              "name": "productName",
              "type": "string"
            },
            {
              "internalType": "uint256",
              "name": "tokenId",
              "type": "uint256"
            },
            {
              "internalType": "uint256",
              "name": "productQuantity",
              "type": "uint256"
            },
            {
              "internalType": "uint256",
              "name": "productPrice",
              "type": "uint256"
            },
            {
              "internalType": "string",
              "name": "cateory",
              "type": "string"
            },
            {
              "internalType": "address",
              "name": "seller",
              "type": "address"
            }
          ],
          "internalType": "struct SupplyChain.Product",
          "name": "",
          "type": "tuple"
        }
      ],
      "stateMutability": "view",
      "type": "function"
    },
    {
      "inputs": [
        {
          "internalType": "uint256",
          "name": "_tokenID",
          "type": "uint256"
        }
      ],
      "name": "getFarmersListing",
      "outputs": [
        {
          "components": [
            {
              "internalType": "string",
              "name": "productName",
              "type": "string"
            },
            {
              "internalType": "uint256",
              "name": "tokenId",
              "type": "uint256"
            },
            {
              "internalType": "uint256",
              "name": "productQuantity",
              "type": "uint256"
            },
            {
              "internalType": "uint256",
              "name": "productPrice",
              "type": "uint256"
            },
            {
              "internalType": "string",
              "name": "cateory",
              "type": "string"
            },
            {
              "internalType": "address",
              "name": "seller",
              "type": "address"
            }
          ],
          "internalType": "struct SupplyChain.Product",
          "name": "",
          "type": "tuple"
        }
      ],
      "stateMutability": "view",
      "type": "function"
    },
    {
      "inputs": [
        {
          "internalType": "string",
          "name": "_ProductName",
          "type": "string"
        }
      ],
      "name": "getTotalQuantity",
      "outputs": [
        {
          "components": [
            {
              "internalType": "string",
              "name": "productName",
              "type": "string"
            },
            {
              "internalType": "uint256",
              "name": "tokenId",
              "type": "uint256"
            },
            {
              "internalType": "uint256",
              "name": "productQuantity",
              "type": "uint256"
            },
            {
              "internalType": "uint256",
              "name": "productPrice",
              "type": "uint256"
            },
            {
              "internalType": "string",
              "name": "cateory",
              "type": "string"
            },
            {
              "internalType": "address",
              "name": "seller",
              "type": "address"
            }
          ],
          "internalType": "struct SupplyChain.Product",
          "name": "",
          "type": "tuple"
        }
      ],
      "stateMutability": "view",
      "type": "function"
    },
    {
      "inputs": [
        {
          "internalType": "string",
          "name": "_ProductName",
          "type": "string"
        },
        {
          "internalType": "uint256",
          "name": "_quantity",
          "type": "uint256"
        },
        {
          "internalType": "uint256",
          "name": "_price",
          "type": "uint256"
        },
        {
          "internalType": "string",
          "name": "_category",
          "type": "string"
        }
      ],
      "name": "listItem",
      "outputs": [],
      "stateMutability": "nonpayable",
      "type": "function"
    },
    {
      "inputs": [
        {
          "internalType": "uint256",
          "name": "_tokenID",
          "type": "uint256"
        }
      ],
      "name": "purchaseItem",
      "outputs": [],
      "stateMutability": "payable",
      "type": "function"
    },
    {
      "inputs": [
        {
          "internalType": "uint256",
          "name": "",
          "type": "uint256"
        }
      ],
      "name": "s_distributerInventory",
      "outputs": [
        {
          "internalType": "string",
          "name": "productName",
          "type": "string"
        },
        {
          "internalType": "uint256",
          "name": "tokenId",
          "type": "uint256"
        },
        {
          "internalType": "uint256",
          "name": "productQuantity",
          "type": "uint256"
        },
        {
          "internalType": "uint256",
          "name": "productPrice",
          "type": "uint256"
        },
        {
          "internalType": "string",
          "name": "cateory",
          "type": "string"
        },
        {
          "internalType": "address",
          "name": "seller",
          "type": "address"
        }
      ],
      "stateMutability": "view",
      "type": "function"
    },
    {
      "inputs": [
        {
          "internalType": "uint256",
          "name": "",
          "type": "uint256"
        }
      ],
      "name": "s_farmerInventory",
      "outputs": [
        {
          "internalType": "string",
          "name": "productName",
          "type": "string"
        },
        {
          "internalType": "uint256",
          "name": "tokenId",
          "type": "uint256"
        },
        {
          "internalType": "uint256",
          "name": "productQuantity",
          "type": "uint256"
        },
        {
          "internalType": "uint256",
          "name": "productPrice",
          "type": "uint256"
        },
        {
          "internalType": "string",
          "name": "cateory",
          "type": "string"
        },
        {
          "internalType": "address",
          "name": "seller",
          "type": "address"
        }
      ],
      "stateMutability": "view",
      "type": "function"
    },
    {
      "inputs": [
        {
          "internalType": "string",
          "name": "",
          "type": "string"
        }
      ],
      "name": "s_productDistributer",
      "outputs": [
        {
          "internalType": "string",
          "name": "productName",
          "type": "string"
        },
        {
          "internalType": "uint256",
          "name": "tokenId",
          "type": "uint256"
        },
        {
          "internalType": "uint256",
          "name": "productQuantity",
          "type": "uint256"
        },
        {
          "internalType": "uint256",
          "name": "productPrice",
          "type": "uint256"
        },
        {
          "internalType": "string",
          "name": "cateory",
          "type": "string"
        },
        {
          "internalType": "address",
          "name": "seller",
          "type": "address"
        }
      ],
      "stateMutability": "view",
      "type": "function"
    },
    {
      "inputs": [
        {
          "internalType": "uint256",
          "name": "",
          "type": "uint256"
        }
      ],
      "name": "s_productOwners",
      "outputs": [
        {
          "internalType": "address",
          "name": "farmerAddress",
          "type": "address"
        },
        {
          "internalType": "address",
          "name": "distributerAddress",
          "type": "address"
        },
        {
          "internalType": "address",
          "name": "retailerAddress",
          "type": "address"
        }
      ],
      "stateMutability": "view",
      "type": "function"
    },
    {
      "inputs": [
        {
          "internalType": "string",
          "name": "",
          "type": "string"
        }
      ],
      "name": "s_totalDistibuterInventory",
      "outputs": [
        {
          "internalType": "string",
          "name": "productName",
          "type": "string"
        },
        {
          "internalType": "uint256",
          "name": "tokenId",
          "type": "uint256"
        },
        {
          "internalType": "uint256",
          "name": "productQuantity",
          "type": "uint256"
        },
        {
          "internalType": "uint256",
          "name": "productPrice",
          "type": "uint256"
        },
        {
          "internalType": "string",
          "name": "cateory",
          "type": "string"
        },
        {
          "internalType": "address",
          "name": "seller",
          "type": "address"
        }
      ],
      "stateMutability": "view",
      "type": "function"
    },
    {
      "inputs": [
        {
          "internalType": "string",
          "name": "_productName",
          "type": "string"
        }
      ],
      "name": "searchDistributer",
      "outputs": [
        {
          "components": [
            {
              "internalType": "string",
              "name": "productName",
              "type": "string"
            },
            {
              "internalType": "uint256",
              "name": "tokenId",
              "type": "uint256"
            },
            {
              "internalType": "uint256",
              "name": "productQuantity",
              "type": "uint256"
            },
            {
              "internalType": "uint256",
              "name": "productPrice",
              "type": "uint256"
            },
            {
              "internalType": "string",
              "name": "cateory",
              "type": "string"
            },
            {
              "internalType": "address",
              "name": "seller",
              "type": "address"
            }
          ],
          "internalType": "struct SupplyChain.Product",
          "name": "",
          "type": "tuple"
        }
      ],
      "stateMutability": "view",
      "type": "function"
    },
    {
      "inputs": [
        {
          "internalType": "uint256",
          "name": "_tokenID",
          "type": "uint256"
        },
        {
          "internalType": "uint256",
          "name": "_newPrice",
          "type": "uint256"
        }
      ],
      "name": "updateListing",
      "outputs": [],
      "stateMutability": "nonpayable",
      "type": "function"
    }
  ],
  "transactionHash": "0x54ded437a9bf817d8f10ad352babc9c73cc393765ca35af6d2f6a7061d6e8e41",
  "args": [],
  "numDeployments": 2,
  "solcInputHash": "7695bf1715beb613ece0eb47dfe0cba9",
  "bytecode": "0x608060405234801561001057600080fd5b50613993806100206000396000f3fe6080604052600436106100e85760003560e01c8063718abbbc1161008a578063a99b965f11610059578063a99b965f14610361578063d38ea5bf146103a3578063e7fb74c7146103bf578063f3f1833e146103db576100e8565b8063718abbbc1461026157806373a1bd81146102a057806376146252146102e2578063874fae9d14610324576100e8565b8063505910fb116100c6578063505910fb1461017c57806351563f8e146101b957806361253a04146101e25780636681160d1461021f576100e8565b80630179ea88146100ed57806318cd5ee71461011657806342d7104b14610153575b600080fd5b3480156100f957600080fd5b50610114600480360381019061010f9190612ea9565b610418565b005b34801561012257600080fd5b5061013d60048036038101906101389190612ee9565b610858565b60405161014a9190613086565b60405180910390f35b34801561015f57600080fd5b5061017a600480360381019061017591906131dd565b610a1d565b005b34801561018857600080fd5b506101a3600480360381019061019e919061327c565b610c1c565b6040516101b09190613086565b60405180910390f35b3480156101c557600080fd5b506101e060048036038101906101db9190612ee9565b610dec565b005b3480156101ee57600080fd5b5061020960048036038101906102049190612ee9565b6114a2565b6040516102169190613307565b60405180910390f35b34801561022b57600080fd5b506102466004803603810190610241919061327c565b6115d1565b6040516102589695949392919061338a565b60405180910390f35b34801561026d57600080fd5b5061028860048036038101906102839190612ee9565b611753565b604051610297939291906133f9565b60405180910390f35b3480156102ac57600080fd5b506102c760048036038101906102c29190612ee9565b6117dd565b6040516102d99695949392919061338a565b60405180910390f35b3480156102ee57600080fd5b5061030960048036038101906103049190612ee9565b611949565b60405161031b9695949392919061338a565b60405180910390f35b34801561033057600080fd5b5061034b6004803603810190610346919061327c565b611ab5565b6040516103589190613086565b60405180910390f35b34801561036d57600080fd5b506103886004803603810190610383919061327c565b611c85565b60405161039a9695949392919061338a565b60405180910390f35b6103bd60048036038101906103b89190612ee9565b611e07565b005b6103d960048036038101906103d49190612ee9565b612240565b005b3480156103e757600080fd5b5061040260048036038101906103fd9190612ee9565b612b6a565b60405161040f9190613086565b60405180910390f35b816000600160008381526020019081526020016000206040518060c00160405290816000820180546104499061345f565b80601f01602080910402602001604051908101604052809291908181526020018280546104759061345f565b80156104c25780601f10610497576101008083540402835291602001916104c2565b820191906000526020600020905b8154815290600101906020018083116104a557829003601f168201915b505050505081526020016001820154815260200160028201548152602001600382015481526020016004820180546104f99061345f565b80601f01602080910402602001604051908101604052809291908181526020018280546105259061345f565b80156105725780601f1061054757610100808354040283529160200191610572565b820191906000526020600020905b81548152906001019060200180831161055557829003601f168201915b505050505081526020016005820160009054906101000a900473ffffffffffffffffffffffffffffffffffffffff1673ffffffffffffffffffffffffffffffffffffffff1673ffffffffffffffffffffffffffffffffffffffff168152505090506000816060015111610611576040517f665c1c5700000000000000000000000000000000000000000000000000000000815260040160405180910390fd5b836000600160008381526020019081526020016000206040518060c00160405290816000820180546106429061345f565b80601f016020809104026020016040519081016040528092919081815260200182805461066e9061345f565b80156106bb5780601f10610690576101008083540402835291602001916106bb565b820191906000526020600020905b81548152906001019060200180831161069e57829003601f168201915b505050505081526020016001820154815260200160028201548152602001600382015481526020016004820180546106f29061345f565b80601f016020809104026020016040519081016040528092919081815260200182805461071e9061345f565b801561076b5780601f106107405761010080835404028352916020019161076b565b820191906000526020600020905b81548152906001019060200180831161074e57829003601f168201915b505050505081526020016005820160009054906101000a900473ffffffffffffffffffffffffffffffffffffffff1673ffffffffffffffffffffffffffffffffffffffff1673ffffffffffffffffffffffffffffffffffffffff168152505090503373ffffffffffffffffffffffffffffffffffffffff168160a0015173ffffffffffffffffffffffffffffffffffffffff1614610835576040517f30cd747100000000000000000000000000000000000000000000000000000000815260040160405180910390fd5b846001600088815260200190815260200160002060030181905550505050505050565b610860612d53565b600260008381526020019081526020016000206040518060c001604052908160008201805461088e9061345f565b80601f01602080910402602001604051908101604052809291908181526020018280546108ba9061345f565b80156109075780601f106108dc57610100808354040283529160200191610907565b820191906000526020600020905b8154815290600101906020018083116108ea57829003601f168201915b5050505050815260200160018201548152602001600282015481526020016003820154815260200160048201805461093e9061345f565b80601f016020809104026020016040519081016040528092919081815260200182805461096a9061345f565b80156109b75780601f1061098c576101008083540402835291602001916109b7565b820191906000526020600020905b81548152906001019060200180831161099a57829003601f168201915b505050505081526020016005820160009054906101000a900473ffffffffffffffffffffffffffffffffffffffff1673ffffffffffffffffffffffffffffffffffffffff1673ffffffffffffffffffffffffffffffffffffffff16815250509050919050565b60008211610a57576040517f710871ac00000000000000000000000000000000000000000000000000000000815260040160405180910390fd5b610a616000612d2f565b6000610a6d6000612d45565b90506040518060c001604052808681526020018281526020018581526020018481526020018381526020013373ffffffffffffffffffffffffffffffffffffffff16815250600160008381526020019081526020016000206000820151816000019081610ada919061363c565b506020820151816001015560408201518160020155606082015181600301556080820151816004019081610b0e919061363c565b5060a08201518160050160006101000a81548173ffffffffffffffffffffffffffffffffffffffff021916908373ffffffffffffffffffffffffffffffffffffffff160217905550905050336004600083815260200190815260200160002060000160006101000a81548173ffffffffffffffffffffffffffffffffffffffff021916908373ffffffffffffffffffffffffffffffffffffffff1602179055503373ffffffffffffffffffffffffffffffffffffffff168186604051610bd4919061374a565b60405180910390207f24b521170273788138099b26cb6928e7f17539aa1b2a9835c98936a755144f308787604051610c0d929190613761565b60405180910390a45050505050565b610c24612d53565b600582604051610c34919061374a565b90815260200160405180910390206040518060c0016040529081600082018054610c5d9061345f565b80601f0160208091040260200160405190810160405280929190818152602001828054610c899061345f565b8015610cd65780601f10610cab57610100808354040283529160200191610cd6565b820191906000526020600020905b815481529060010190602001808311610cb957829003601f168201915b50505050508152602001600182015481526020016002820154815260200160038201548152602001600482018054610d0d9061345f565b80601f0160208091040260200160405190810160405280929190818152602001828054610d399061345f565b8015610d865780601f10610d5b57610100808354040283529160200191610d86565b820191906000526020600020905b815481529060010190602001808311610d6957829003601f168201915b505050505081526020016005820160009054906101000a900473ffffffffffffffffffffffffffffffffffffffff1673ffffffffffffffffffffffffffffffffffffffff1673ffffffffffffffffffffffffffffffffffffffff16815250509050919050565b806000600160008381526020019081526020016000206040518060c0016040529081600082018054610e1d9061345f565b80601f0160208091040260200160405190810160405280929190818152602001828054610e499061345f565b8015610e965780601f10610e6b57610100808354040283529160200191610e96565b820191906000526020600020905b815481529060010190602001808311610e7957829003601f168201915b50505050508152602001600182015481526020016002820154815260200160038201548152602001600482018054610ecd9061345f565b80601f0160208091040260200160405190810160405280929190818152602001828054610ef99061345f565b8015610f465780601f10610f1b57610100808354040283529160200191610f46565b820191906000526020600020905b815481529060010190602001808311610f2957829003601f168201915b505050505081526020016005820160009054906101000a900473ffffffffffffffffffffffffffffffffffffffff1673ffffffffffffffffffffffffffffffffffffffff1673ffffffffffffffffffffffffffffffffffffffff168152505090506000816060015111610fe5576040517f665c1c5700000000000000000000000000000000000000000000000000000000815260040160405180910390fd5b826000600160008381526020019081526020016000206040518060c00160405290816000820180546110169061345f565b80601f01602080910402602001604051908101604052809291908181526020018280546110429061345f565b801561108f5780601f106110645761010080835404028352916020019161108f565b820191906000526020600020905b81548152906001019060200180831161107257829003601f168201915b505050505081526020016001820154815260200160028201548152602001600382015481526020016004820180546110c69061345f565b80601f01602080910402602001604051908101604052809291908181526020018280546110f29061345f565b801561113f5780601f106111145761010080835404028352916020019161113f565b820191906000526020600020905b81548152906001019060200180831161112257829003601f168201915b505050505081526020016005820160009054906101000a900473ffffffffffffffffffffffffffffffffffffffff1673ffffffffffffffffffffffffffffffffffffffff1673ffffffffffffffffffffffffffffffffffffffff168152505090503373ffffffffffffffffffffffffffffffffffffffff168160a0015173ffffffffffffffffffffffffffffffffffffffff1614611209576040517f30cd747100000000000000000000000000000000000000000000000000000000815260040160405180910390fd5b6000600160008781526020019081526020016000206040518060c00160405290816000820180546112399061345f565b80601f01602080910402602001604051908101604052809291908181526020018280546112659061345f565b80156112b25780601f10611287576101008083540402835291602001916112b2565b820191906000526020600020905b81548152906001019060200180831161129557829003601f168201915b505050505081526020016001820154815260200160028201548152602001600382015481526020016004820180546112e99061345f565b80601f01602080910402602001604051908101604052809291908181526020018280546113159061345f565b80156113625780601f1061133757610100808354040283529160200191611362565b820191906000526020600020905b81548152906001019060200180831161134557829003601f168201915b505050505081526020016005820160009054906101000a900473ffffffffffffffffffffffffffffffffffffffff1673ffffffffffffffffffffffffffffffffffffffff1673ffffffffffffffffffffffffffffffffffffffff1681525050905060016000878152602001908152602001600020600080820160006113e79190612d9f565b60018201600090556002820160009055600382016000905560048201600061140f9190612d9f565b6005820160006101000a81549073ffffffffffffffffffffffffffffffffffffffff021916905550508060a0015173ffffffffffffffffffffffffffffffffffffffff16868260000151604051611466919061374a565b60405180910390207f4a7059f7cc563bab4fc554525dfac597ddcc3c19c81e3e51aa862a88daba8cf060405160405180910390a4505050505050565b6114aa612ddf565b600460008381526020019081526020016000206040518060600160405290816000820160009054906101000a900473ffffffffffffffffffffffffffffffffffffffff1673ffffffffffffffffffffffffffffffffffffffff1673ffffffffffffffffffffffffffffffffffffffff1681526020016001820160009054906101000a900473ffffffffffffffffffffffffffffffffffffffff1673ffffffffffffffffffffffffffffffffffffffff1673ffffffffffffffffffffffffffffffffffffffff1681526020016002820160009054906101000a900473ffffffffffffffffffffffffffffffffffffffff1673ffffffffffffffffffffffffffffffffffffffff1673ffffffffffffffffffffffffffffffffffffffff16815250509050919050565b60058180516020810182018051848252602083016020850120818352809550505050505060009150905080600001805461160a9061345f565b80601f01602080910402602001604051908101604052809291908181526020018280546116369061345f565b80156116835780601f1061165857610100808354040283529160200191611683565b820191906000526020600020905b81548152906001019060200180831161166657829003601f168201915b5050505050908060010154908060020154908060030154908060040180546116aa9061345f565b80601f01602080910402602001604051908101604052809291908181526020018280546116d69061345f565b80156117235780601f106116f857610100808354040283529160200191611723565b820191906000526020600020905b81548152906001019060200180831161170657829003601f168201915b5050505050908060050160009054906101000a900473ffffffffffffffffffffffffffffffffffffffff16905086565b60046020528060005260406000206000915090508060000160009054906101000a900473ffffffffffffffffffffffffffffffffffffffff16908060010160009054906101000a900473ffffffffffffffffffffffffffffffffffffffff16908060020160009054906101000a900473ffffffffffffffffffffffffffffffffffffffff16905083565b60016020528060005260406000206000915090508060000180546118009061345f565b80601f016020809104026020016040519081016040528092919081815260200182805461182c9061345f565b80156118795780601f1061184e57610100808354040283529160200191611879565b820191906000526020600020905b81548152906001019060200180831161185c57829003601f168201915b5050505050908060010154908060020154908060030154908060040180546118a09061345f565b80601f01602080910402602001604051908101604052809291908181526020018280546118cc9061345f565b80156119195780601f106118ee57610100808354040283529160200191611919565b820191906000526020600020905b8154815290600101906020018083116118fc57829003601f168201915b5050505050908060050160009054906101000a900473ffffffffffffffffffffffffffffffffffffffff16905086565b600260205280600052604060002060009150905080600001805461196c9061345f565b80601f01602080910402602001604051908101604052809291908181526020018280546119989061345f565b80156119e55780601f106119ba576101008083540402835291602001916119e5565b820191906000526020600020905b8154815290600101906020018083116119c857829003601f168201915b505050505090806001015490806002015490806003015490806004018054611a0c9061345f565b80601f0160208091040260200160405190810160405280929190818152602001828054611a389061345f565b8015611a855780601f10611a5a57610100808354040283529160200191611a85565b820191906000526020600020905b815481529060010190602001808311611a6857829003601f168201915b5050505050908060050160009054906101000a900473ffffffffffffffffffffffffffffffffffffffff16905086565b611abd612d53565b600382604051611acd919061374a565b90815260200160405180910390206040518060c0016040529081600082018054611af69061345f565b80601f0160208091040260200160405190810160405280929190818152602001828054611b229061345f565b8015611b6f5780601f10611b4457610100808354040283529160200191611b6f565b820191906000526020600020905b815481529060010190602001808311611b5257829003601f168201915b50505050508152602001600182015481526020016002820154815260200160038201548152602001600482018054611ba69061345f565b80601f0160208091040260200160405190810160405280929190818152602001828054611bd29061345f565b8015611c1f5780601f10611bf457610100808354040283529160200191611c1f565b820191906000526020600020905b815481529060010190602001808311611c0257829003601f168201915b505050505081526020016005820160009054906101000a900473ffffffffffffffffffffffffffffffffffffffff1673ffffffffffffffffffffffffffffffffffffffff1673ffffffffffffffffffffffffffffffffffffffff16815250509050919050565b600381805160208101820180518482526020830160208501208183528095505050505050600091509050806000018054611cbe9061345f565b80601f0160208091040260200160405190810160405280929190818152602001828054611cea9061345f565b8015611d375780601f10611d0c57610100808354040283529160200191611d37565b820191906000526020600020905b815481529060010190602001808311611d1a57829003601f168201915b505050505090806001015490806002015490806003015490806004018054611d5e9061345f565b80601f0160208091040260200160405190810160405280929190818152602001828054611d8a9061345f565b8015611dd75780601f10611dac57610100808354040283529160200191611dd7565b820191906000526020600020905b815481529060010190602001808311611dba57829003601f168201915b5050505050908060050160009054906101000a900473ffffffffffffffffffffffffffffffffffffffff16905086565b6000600260008381526020019081526020016000206040518060c0016040529081600082018054611e379061345f565b80601f0160208091040260200160405190810160405280929190818152602001828054611e639061345f565b8015611eb05780601f10611e8557610100808354040283529160200191611eb0565b820191906000526020600020905b815481529060010190602001808311611e9357829003601f168201915b50505050508152602001600182015481526020016002820154815260200160038201548152602001600482018054611ee79061345f565b80601f0160208091040260200160405190810160405280929190818152602001828054611f139061345f565b8015611f605780601f10611f3557610100808354040283529160200191611f60565b820191906000526020600020905b815481529060010190602001808311611f4357829003601f168201915b505050505081526020016005820160009054906101000a900473ffffffffffffffffffffffffffffffffffffffff1673ffffffffffffffffffffffffffffffffffffffff1673ffffffffffffffffffffffffffffffffffffffff16815250509050600081606001511015612000576040517f665c1c5700000000000000000000000000000000000000000000000000000000815260040160405180910390fd5b8060600151341461203d576040517fa2c2d5c600000000000000000000000000000000000000000000000000000000815260040160405180910390fd5b60026000838152602001908152602001600020600080820160006120619190612d9f565b6001820160009055600282016000905560038201600090556004820160006120899190612d9f565b6005820160006101000a81549073ffffffffffffffffffffffffffffffffffffffff021916905550508060400151600382600001516040516120cb919061374a565b9081526020016040518091039020600201546120e791906137b9565b600382600001516040516120fb919061374a565b90815260200160405180910390206002018190555060058160000151604051612124919061374a565b9081526020016040518091039020600080820160006121439190612d9f565b60018201600090556002820160009055600382016000905560048201600061216b9190612d9f565b6005820160006101000a81549073ffffffffffffffffffffffffffffffffffffffff0219169055505033600460008360200151815260200190815260200160002060020160006101000a81548173ffffffffffffffffffffffffffffffffffffffff021916908373ffffffffffffffffffffffffffffffffffffffff1602179055508060a0015173ffffffffffffffffffffffffffffffffffffffff166108fc82606001519081150290604051600060405180830381858888f1935050505015801561223b573d6000803e3d6000fd5b505050565b806000600160008381526020019081526020016000206040518060c00160405290816000820180546122719061345f565b80601f016020809104026020016040519081016040528092919081815260200182805461229d9061345f565b80156122ea5780601f106122bf576101008083540402835291602001916122ea565b820191906000526020600020905b8154815290600101906020018083116122cd57829003601f168201915b505050505081526020016001820154815260200160028201548152602001600382015481526020016004820180546123219061345f565b80601f016020809104026020016040519081016040528092919081815260200182805461234d9061345f565b801561239a5780601f1061236f5761010080835404028352916020019161239a565b820191906000526020600020905b81548152906001019060200180831161237d57829003601f168201915b505050505081526020016005820160009054906101000a900473ffffffffffffffffffffffffffffffffffffffff1673ffffffffffffffffffffffffffffffffffffffff1673ffffffffffffffffffffffffffffffffffffffff168152505090506000816060015111612439576040517f665c1c5700000000000000000000000000000000000000000000000000000000815260040160405180910390fd5b6000600160008581526020019081526020016000206040518060c00160405290816000820180546124699061345f565b80601f01602080910402602001604051908101604052809291908181526020018280546124959061345f565b80156124e25780601f106124b7576101008083540402835291602001916124e2565b820191906000526020600020905b8154815290600101906020018083116124c557829003601f168201915b505050505081526020016001820154815260200160028201548152602001600382015481526020016004820180546125199061345f565b80601f01602080910402602001604051908101604052809291908181526020018280546125459061345f565b80156125925780601f1061256757610100808354040283529160200191612592565b820191906000526020600020905b81548152906001019060200180831161257557829003601f168201915b505050505081526020016005820160009054906101000a900473ffffffffffffffffffffffffffffffffffffffff1673ffffffffffffffffffffffffffffffffffffffff1673ffffffffffffffffffffffffffffffffffffffff1681525050905080606001513414612630576040517fa2c2d5c600000000000000000000000000000000000000000000000000000000815260040160405180910390fd5b60016000858152602001908152602001600020600080820160006126549190612d9f565b60018201600090556002820160009055600382016000905560048201600061267c9190612d9f565b6005820160006101000a81549073ffffffffffffffffffffffffffffffffffffffff0219169055505060006064601483606001516126ba91906137ed565b6126c4919061385e565b82606001516126d3919061388f565b90506040518060c00160405280836000015181526020018360200151815260200183604001518152602001828152602001836080015181526020013373ffffffffffffffffffffffffffffffffffffffff16815250600260008781526020019081526020016000206000820151816000019081612750919061363c565b506020820151816001015560408201518160020155606082015181600301556080820151816004019081612784919061363c565b5060a08201518160050160006101000a81548173ffffffffffffffffffffffffffffffffffffffff021916908373ffffffffffffffffffffffffffffffffffffffff1602179055509050506040518060c00160405280836000015181526020018360200151815260200183604001518152602001828152602001836080015181526020013373ffffffffffffffffffffffffffffffffffffffff1681525060038360000151604051612836919061374a565b90815260200160405180910390206000820151816000019081612859919061363c565b50602082015181600101556040820151816002015560608201518160030155608082015181600401908161288d919061363c565b5060a08201518160050160006101000a81548173ffffffffffffffffffffffffffffffffffffffff021916908373ffffffffffffffffffffffffffffffffffffffff16021790555090505033600460008460200151815260200190815260200160002060010160006101000a81548173ffffffffffffffffffffffffffffffffffffffff021916908373ffffffffffffffffffffffffffffffffffffffff1602179055506040518060c00160405280836000015181526020018360200151815260200183604001518152602001828152602001836080015181526020013373ffffffffffffffffffffffffffffffffffffffff1681525060058360000151604051612998919061374a565b908152602001604051809103902060008201518160000190816129bb919061363c565b5060208201518160010155604082015181600201556060820151816003015560808201518160040190816129ef919061363c565b5060a08201518160050160006101000a81548173ffffffffffffffffffffffffffffffffffffffff021916908373ffffffffffffffffffffffffffffffffffffffff1602179055509050508160a0015173ffffffffffffffffffffffffffffffffffffffff166108fc83606001519081150290604051600060405180830381858888f19350505050158015612a88573d6000803e3d6000fd5b508160000151604051602001612a9e919061374a565b6040516020818303038152906040528051906020012060038360000151604051612ac8919061374a565b9081526020016040518091039020600001604051602001612ae99190613946565b6040516020818303038152906040528051906020012003612b6357816040015160038360000151604051612b1d919061374a565b908152602001604051809103902060020154612b39919061388f565b60038360000151604051612b4d919061374a565b9081526020016040518091039020600201819055505b5050505050565b612b72612d53565b600160008381526020019081526020016000206040518060c0016040529081600082018054612ba09061345f565b80601f0160208091040260200160405190810160405280929190818152602001828054612bcc9061345f565b8015612c195780601f10612bee57610100808354040283529160200191612c19565b820191906000526020600020905b815481529060010190602001808311612bfc57829003601f168201915b50505050508152602001600182015481526020016002820154815260200160038201548152602001600482018054612c509061345f565b80601f0160208091040260200160405190810160405280929190818152602001828054612c7c9061345f565b8015612cc95780601f10612c9e57610100808354040283529160200191612cc9565b820191906000526020600020905b815481529060010190602001808311612cac57829003601f168201915b505050505081526020016005820160009054906101000a900473ffffffffffffffffffffffffffffffffffffffff1673ffffffffffffffffffffffffffffffffffffffff1673ffffffffffffffffffffffffffffffffffffffff16815250509050919050565b6001816000016000828254019250508190555050565b600081600001549050919050565b6040518060c001604052806060815260200160008152602001600081526020016000815260200160608152602001600073ffffffffffffffffffffffffffffffffffffffff1681525090565b508054612dab9061345f565b6000825580601f10612dbd5750612ddc565b601f016020900490600052602060002090810190612ddb9190612e42565b5b50565b6040518060600160405280600073ffffffffffffffffffffffffffffffffffffffff168152602001600073ffffffffffffffffffffffffffffffffffffffff168152602001600073ffffffffffffffffffffffffffffffffffffffff1681525090565b5b80821115612e5b576000816000905550600101612e43565b5090565b6000604051905090565b600080fd5b600080fd5b6000819050919050565b612e8681612e73565b8114612e9157600080fd5b50565b600081359050612ea381612e7d565b92915050565b60008060408385031215612ec057612ebf612e69565b5b6000612ece85828601612e94565b9250506020612edf85828601612e94565b9150509250929050565b600060208284031215612eff57612efe612e69565b5b6000612f0d84828501612e94565b91505092915050565b600081519050919050565b600082825260208201905092915050565b60005b83811015612f50578082015181840152602081019050612f35565b60008484015250505050565b6000601f19601f8301169050919050565b6000612f7882612f16565b612f828185612f21565b9350612f92818560208601612f32565b612f9b81612f5c565b840191505092915050565b612faf81612e73565b82525050565b600073ffffffffffffffffffffffffffffffffffffffff82169050919050565b6000612fe082612fb5565b9050919050565b612ff081612fd5565b82525050565b600060c08301600083015184820360008601526130138282612f6d565b91505060208301516130286020860182612fa6565b50604083015161303b6040860182612fa6565b50606083015161304e6060860182612fa6565b50608083015184820360808601526130668282612f6d565b91505060a083015161307b60a0860182612fe7565b508091505092915050565b600060208201905081810360008301526130a08184612ff6565b905092915050565b600080fd5b600080fd5b7f4e487b7100000000000000000000000000000000000000000000000000000000600052604160045260246000fd5b6130ea82612f5c565b810181811067ffffffffffffffff82111715613109576131086130b2565b5b80604052505050565b600061311c612e5f565b905061312882826130e1565b919050565b600067ffffffffffffffff821115613148576131476130b2565b5b61315182612f5c565b9050602081019050919050565b82818337600083830152505050565b600061318061317b8461312d565b613112565b90508281526020810184848401111561319c5761319b6130ad565b5b6131a784828561315e565b509392505050565b600082601f8301126131c4576131c36130a8565b5b81356131d484826020860161316d565b91505092915050565b600080600080608085870312156131f7576131f6612e69565b5b600085013567ffffffffffffffff81111561321557613214612e6e565b5b613221878288016131af565b945050602061323287828801612e94565b935050604061324387828801612e94565b925050606085013567ffffffffffffffff81111561326457613263612e6e565b5b613270878288016131af565b91505092959194509250565b60006020828403121561329257613291612e69565b5b600082013567ffffffffffffffff8111156132b0576132af612e6e565b5b6132bc848285016131af565b91505092915050565b6060820160008201516132db6000850182612fe7565b5060208201516132ee6020850182612fe7565b5060408201516133016040850182612fe7565b50505050565b600060608201905061331c60008301846132c5565b92915050565b600082825260208201905092915050565b600061333e82612f16565b6133488185613322565b9350613358818560208601612f32565b61336181612f5c565b840191505092915050565b61337581612e73565b82525050565b61338481612fd5565b82525050565b600060c08201905081810360008301526133a48189613333565b90506133b3602083018861336c565b6133c0604083018761336c565b6133cd606083018661336c565b81810360808301526133df8185613333565b90506133ee60a083018461337b565b979650505050505050565b600060608201905061340e600083018661337b565b61341b602083018561337b565b613428604083018461337b565b949350505050565b7f4e487b7100000000000000000000000000000000000000000000000000000000600052602260045260246000fd5b6000600282049050600182168061347757607f821691505b60208210810361348a57613489613430565b5b50919050565b60008190508160005260206000209050919050565b60006020601f8301049050919050565b600082821b905092915050565b6000600883026134f27fffffffffffffffffffffffffffffffffffffffffffffffffffffffffffffffff826134b5565b6134fc86836134b5565b95508019841693508086168417925050509392505050565b6000819050919050565b600061353961353461352f84612e73565b613514565b612e73565b9050919050565b6000819050919050565b6135538361351e565b61356761355f82613540565b8484546134c2565b825550505050565b600090565b61357c61356f565b61358781848461354a565b505050565b5b818110156135ab576135a0600082613574565b60018101905061358d565b5050565b601f8211156135f0576135c181613490565b6135ca846134a5565b810160208510156135d9578190505b6135ed6135e5856134a5565b83018261358c565b50505b505050565b600082821c905092915050565b6000613613600019846008026135f5565b1980831691505092915050565b600061362c8383613602565b9150826002028217905092915050565b61364582612f16565b67ffffffffffffffff81111561365e5761365d6130b2565b5b613668825461345f565b6136738282856135af565b600060209050601f8311600181146136a65760008415613694578287015190505b61369e8582613620565b865550613706565b601f1984166136b486613490565b60005b828110156136dc578489015182556001820191506020850194506020810190506136b7565b868310156136f957848901516136f5601f891682613602565b8355505b6001600288020188555050505b505050505050565b600081905092915050565b600061372482612f16565b61372e818561370e565b935061373e818560208601612f32565b80840191505092915050565b60006137568284613719565b915081905092915050565b6000604082019050613776600083018561336c565b613783602083018461336c565b9392505050565b7f4e487b7100000000000000000000000000000000000000000000000000000000600052601160045260246000fd5b60006137c482612e73565b91506137cf83612e73565b92508282039050818111156137e7576137e661378a565b5b92915050565b60006137f882612e73565b915061380383612e73565b925082820261381181612e73565b915082820484148315176138285761382761378a565b5b5092915050565b7f4e487b7100000000000000000000000000000000000000000000000000000000600052601260045260246000fd5b600061386982612e73565b915061387483612e73565b9250826138845761388361382f565b5b828204905092915050565b600061389a82612e73565b91506138a583612e73565b92508282019050808211156138bd576138bc61378a565b5b92915050565b600081546138d08161345f565b6138da818661370e565b945060018216600081146138f5576001811461390a5761393d565b60ff198316865281151582028601935061393d565b61391385613490565b60005b8381101561393557815481890152600182019150602081019050613916565b838801955050505b50505092915050565b600061395282846138c3565b91508190509291505056fea26469706673582212202d483cc9ad0cf1ef851566a7c9fda53909e6101f8f2d7414b3c5769eb8a9d7a064736f6c63430008110033",
  "devdoc": {
    "kind": "dev",
    "methods": {
      "buyItem(uint256)": {
        "params": {
          "_tokenID": "- The token id of the product to be bought"
        }
      },
      "cancelItem(uint256)": {
        "params": {
          "_tokenID": "- The token id of the product to be canceled"
        }
      },
      "listItem(string,uint256,uint256,string)": {
        "params": {
          "_ProductName": "- Name of the product",
          "_price": "price of the product to be sold",
          "_quantity": "- Quantity of product to be sold"
        }
      },
      "purchaseItem(uint256)": {
        "params": {
          "_tokenID": "- The token id of the product to be bought"
        }
      },
      "updateListing(uint256,uint256)": {
        "params": {
          "_newPrice": "- The price to which you want to update it.",
          "_tokenID": "- The token id of the product to be updated"
        }
      }
    },
    "version": 1
  },
  "userdoc": {
    "kind": "user",
    "methods": {
      "buyItem(uint256)": {
        "notice": "Buy the product from farmer and add it into distributer's inventory"
      },
      "cancelItem(uint256)": {
        "notice": "Cancel the listing of a product"
      },
      "listItem(string,uint256,uint256,string)": {
        "notice": "List the product details on the marketplace"
      },
      "purchaseItem(uint256)": {
        "notice": "Purchase the item from distributer"
      },
      "updateListing(uint256,uint256)": {
        "notice": "Update the price of an already listed product"
      }
    },
    "version": 1
  },
  "storageLayout": {
    "storage": [
      {
        "astId": 407,
        "contract": "contracts/SupplyChain.sol:SupplyChain",
        "label": "_tokenIDs",
        "offset": 0,
        "slot": "0",
        "type": "t_struct(Counter)5_storage"
      },
      {
        "astId": 432,
        "contract": "contracts/SupplyChain.sol:SupplyChain",
        "label": "s_farmerInventory",
        "offset": 0,
        "slot": "1",
        "type": "t_mapping(t_uint256,t_struct(Product)420_storage)"
      },
      {
        "astId": 437,
        "contract": "contracts/SupplyChain.sol:SupplyChain",
        "label": "s_distributerInventory",
        "offset": 0,
        "slot": "2",
        "type": "t_mapping(t_uint256,t_struct(Product)420_storage)"
      },
      {
        "astId": 442,
        "contract": "contracts/SupplyChain.sol:SupplyChain",
        "label": "s_totalDistibuterInventory",
        "offset": 0,
        "slot": "3",
        "type": "t_mapping(t_string_memory_ptr,t_struct(Product)420_storage)"
      },
      {
        "astId": 447,
        "contract": "contracts/SupplyChain.sol:SupplyChain",
        "label": "s_productOwners",
        "offset": 0,
        "slot": "4",
        "type": "t_mapping(t_uint256,t_struct(Owners)427_storage)"
      },
      {
        "astId": 452,
        "contract": "contracts/SupplyChain.sol:SupplyChain",
        "label": "s_productDistributer",
        "offset": 0,
        "slot": "5",
        "type": "t_mapping(t_string_memory_ptr,t_struct(Product)420_storage)"
      }
    ],
    "types": {
      "t_address": {
        "encoding": "inplace",
        "label": "address",
        "numberOfBytes": "20"
      },
      "t_mapping(t_string_memory_ptr,t_struct(Product)420_storage)": {
        "encoding": "mapping",
        "key": "t_string_memory_ptr",
        "label": "mapping(string => struct SupplyChain.Product)",
        "numberOfBytes": "32",
        "value": "t_struct(Product)420_storage"
      },
      "t_mapping(t_uint256,t_struct(Owners)427_storage)": {
        "encoding": "mapping",
        "key": "t_uint256",
        "label": "mapping(uint256 => struct SupplyChain.Owners)",
        "numberOfBytes": "32",
        "value": "t_struct(Owners)427_storage"
      },
      "t_mapping(t_uint256,t_struct(Product)420_storage)": {
        "encoding": "mapping",
        "key": "t_uint256",
        "label": "mapping(uint256 => struct SupplyChain.Product)",
        "numberOfBytes": "32",
        "value": "t_struct(Product)420_storage"
      },
      "t_string_memory_ptr": {
        "encoding": "bytes",
        "label": "string",
        "numberOfBytes": "32"
      },
      "t_string_storage": {
        "encoding": "bytes",
        "label": "string",
        "numberOfBytes": "32"
      },
      "t_struct(Counter)5_storage": {
        "encoding": "inplace",
        "label": "struct Counters.Counter",
        "members": [
          {
            "astId": 4,
            "contract": "contracts/SupplyChain.sol:SupplyChain",
            "label": "_value",
            "offset": 0,
            "slot": "0",
            "type": "t_uint256"
          }
        ],
        "numberOfBytes": "32"
      },
      "t_struct(Owners)427_storage": {
        "encoding": "inplace",
        "label": "struct SupplyChain.Owners",
        "members": [
          {
            "astId": 422,
            "contract": "contracts/SupplyChain.sol:SupplyChain",
            "label": "farmerAddress",
            "offset": 0,
            "slot": "0",
            "type": "t_address"
          },
          {
            "astId": 424,
            "contract": "contracts/SupplyChain.sol:SupplyChain",
            "label": "distributerAddress",
            "offset": 0,
            "slot": "1",
            "type": "t_address"
          },
          {
            "astId": 426,
            "contract": "contracts/SupplyChain.sol:SupplyChain",
            "label": "retailerAddress",
            "offset": 0,
            "slot": "2",
            "type": "t_address"
          }
        ],
        "numberOfBytes": "96"
      },
      "t_struct(Product)420_storage": {
        "encoding": "inplace",
        "label": "struct SupplyChain.Product",
        "members": [
          {
            "astId": 409,
            "contract": "contracts/SupplyChain.sol:SupplyChain",
            "label": "productName",
            "offset": 0,
            "slot": "0",
            "type": "t_string_storage"
          },
          {
            "astId": 411,
            "contract": "contracts/SupplyChain.sol:SupplyChain",
            "label": "tokenId",
            "offset": 0,
            "slot": "1",
            "type": "t_uint256"
          },
          {
            "astId": 413,
            "contract": "contracts/SupplyChain.sol:SupplyChain",
            "label": "productQuantity",
            "offset": 0,
            "slot": "2",
            "type": "t_uint256"
          },
          {
            "astId": 415,
            "contract": "contracts/SupplyChain.sol:SupplyChain",
            "label": "productPrice",
            "offset": 0,
            "slot": "3",
            "type": "t_uint256"
          },
          {
            "astId": 417,
            "contract": "contracts/SupplyChain.sol:SupplyChain",
            "label": "cateory",
            "offset": 0,
            "slot": "4",
            "type": "t_string_storage"
          },
          {
            "astId": 419,
            "contract": "contracts/SupplyChain.sol:SupplyChain",
            "label": "seller",
            "offset": 0,
            "slot": "5",
            "type": "t_address"
          }
        ],
        "numberOfBytes": "192"
      },
      "t_uint256": {
        "encoding": "inplace",
        "label": "uint256",
        "numberOfBytes": "32"
      }
    }
  }
}