{
  "address": "0x9fbac433aa5a9d5cfc132fc07b468471d968f2b8",
  "abi": [
    {
      "inputs": [],
      "name": "NotListed",
      "type": "error"
    },
    {
      "inputs": [],
      "name": "NotOwner",
      "type": "error"
    },
    {
      "inputs": [],
      "name": "PriceMustNotZero",
      "type": "error"
    },
    {
      "inputs": [],
      "name": "PriceNotMet",
      "type": "error"
    },
    {
      "anonymous": false,
      "inputs": [
        {
          "indexed": true,
          "internalType": "string",
          "name": "productName",
          "type": "string"
        },
        {
          "indexed": true,
          "internalType": "uint256",
          "name": "tokenId",
          "type": "uint256"
        },
        {
          "indexed": false,
          "internalType": "uint256",
          "name": "productQuantity",
          "type": "uint256"
        },
        {
          "indexed": false,
          "internalType": "uint256",
          "name": "productPrice",
          "type": "uint256"
        },
        {
          "indexed": true,
          "internalType": "address",
          "name": "seller",
          "type": "address"
        }
      ],
      "name": "ItemBough",
      "type": "event"
    },
    {
      "anonymous": false,
      "inputs": [
        {
          "indexed": true,
          "internalType": "string",
          "name": "productName",
          "type": "string"
        },
        {
          "indexed": true,
          "internalType": "uint256",
          "name": "tokenId",
          "type": "uint256"
        },
        {
          "indexed": true,
          "internalType": "address",
          "name": "seller",
          "type": "address"
        }
      ],
      "name": "ItemCanceled",
      "type": "event"
    },
    {
      "anonymous": false,
      "inputs": [
        {
          "indexed": true,
          "internalType": "string",
          "name": "productName",
          "type": "string"
        },
        {
          "indexed": true,
          "internalType": "uint256",
          "name": "tokenId",
          "type": "uint256"
        },
        {
          "indexed": false,
          "internalType": "uint256",
          "name": "productQuantity",
          "type": "uint256"
        },
        {
          "indexed": false,
          "internalType": "uint256",
          "name": "productPrice",
          "type": "uint256"
        },
        {
          "indexed": true,
          "internalType": "address",
          "name": "seller",
          "type": "address"
        }
      ],
      "name": "ItemListed",
      "type": "event"
    },
    {
      "inputs": [
        {
          "internalType": "uint256",
          "name": "_tokenID",
          "type": "uint256"
        }
      ],
      "name": "buyItem",
      "outputs": [],
      "stateMutability": "payable",
      "type": "function"
    },
    {
      "inputs": [
        {
          "internalType": "uint256",
          "name": "_tokenID",
          "type": "uint256"
        }
      ],
      "name": "cancelItem",
      "outputs": [],
      "stateMutability": "nonpayable",
      "type": "function"
    },
    {
      "inputs": [
        {
          "internalType": "uint256",
          "name": "_tokenID",
          "type": "uint256"
        }
      ],
      "name": "getAllOwners",
      "outputs": [
        {
          "components": [
            {
              "internalType": "address",
              "name": "farmerAddress",
              "type": "address"
            },
            {
              "internalType": "address",
              "name": "distributerAddress",
              "type": "address"
            },
            {
              "internalType": "address",
              "name": "retailerAddress",
              "type": "address"
            }
          ],
          "internalType": "struct SupplyChain.Owners",
          "name": "",
          "type": "tuple"
        }
      ],
      "stateMutability": "view",
      "type": "function"
    },
    {
      "inputs": [
        {
          "internalType": "uint256",
          "name": "_tokenID",
          "type": "uint256"
        }
      ],
      "name": "getDistributerInventory",
      "outputs": [
        {
          "components": [
            {
              "internalType": "string",
              "name": "productName",
              "type": "string"
            },
            {
              "internalType": "uint256",
              "name": "tokenId",
              "type": "uint256"
            },
            {
              "internalType": "uint256",
              "name": "productQuantity",
              "type": "uint256"
            },
            {
              "internalType": "uint256",
              "name": "productPrice",
              "type": "uint256"
            },
            {
              "internalType": "string",
              "name": "cateory",
              "type": "string"
            },
            {
              "internalType": "address",
              "name": "seller",
              "type": "address"
            }
          ],
          "internalType": "struct SupplyChain.Product",
          "name": "",
          "type": "tuple"
        }
      ],
      "stateMutability": "view",
      "type": "function"
    },
    {
      "inputs": [
        {
          "internalType": "uint256",
          "name": "_tokenID",
          "type": "uint256"
        }
      ],
      "name": "getFarmersListing",
      "outputs": [
        {
          "components": [
            {
              "internalType": "string",
              "name": "productName",
              "type": "string"
            },
            {
              "internalType": "uint256",
              "name": "tokenId",
              "type": "uint256"
            },
            {
              "internalType": "uint256",
              "name": "productQuantity",
              "type": "uint256"
            },
            {
              "internalType": "uint256",
              "name": "productPrice",
              "type": "uint256"
            },
            {
              "internalType": "string",
              "name": "cateory",
              "type": "string"
            },
            {
              "internalType": "address",
              "name": "seller",
              "type": "address"
            }
          ],
          "internalType": "struct SupplyChain.Product",
          "name": "",
          "type": "tuple"
        }
      ],
      "stateMutability": "view",
      "type": "function"
    },
    {
      "inputs": [],
      "name": "getTokenId",
      "outputs": [
        {
          "internalType": "uint256",
          "name": "",
          "type": "uint256"
        }
      ],
      "stateMutability": "view",
      "type": "function"
    },
    {
      "inputs": [
        {
          "internalType": "string",
          "name": "_ProductName",
          "type": "string"
        }
      ],
      "name": "getTotalQuantity",
      "outputs": [
        {
          "components": [
            {
              "internalType": "string",
              "name": "productName",
              "type": "string"
            },
            {
              "internalType": "uint256",
              "name": "tokenId",
              "type": "uint256"
            },
            {
              "internalType": "uint256",
              "name": "productQuantity",
              "type": "uint256"
            },
            {
              "internalType": "uint256",
              "name": "productPrice",
              "type": "uint256"
            },
            {
              "internalType": "string",
              "name": "cateory",
              "type": "string"
            },
            {
              "internalType": "address",
              "name": "seller",
              "type": "address"
            }
          ],
          "internalType": "struct SupplyChain.Product",
          "name": "",
          "type": "tuple"
        }
      ],
      "stateMutability": "view",
      "type": "function"
    },
    {
      "inputs": [
        {
          "internalType": "string",
          "name": "_ProductName",
          "type": "string"
        },
        {
          "internalType": "uint256",
          "name": "_quantity",
          "type": "uint256"
        },
        {
          "internalType": "uint256",
          "name": "_price",
          "type": "uint256"
        },
        {
          "internalType": "string",
          "name": "_category",
          "type": "string"
        }
      ],
      "name": "listItem",
      "outputs": [],
      "stateMutability": "nonpayable",
      "type": "function"
    },
    {
      "inputs": [
        {
          "internalType": "uint256",
          "name": "_tokenID",
          "type": "uint256"
        }
      ],
      "name": "purchaseItem",
      "outputs": [],
      "stateMutability": "payable",
      "type": "function"
    },
    {
      "inputs": [
        {
          "internalType": "uint256",
          "name": "",
          "type": "uint256"
        }
      ],
      "name": "s_distributerInventory",
      "outputs": [
        {
          "internalType": "string",
          "name": "productName",
          "type": "string"
        },
        {
          "internalType": "uint256",
          "name": "tokenId",
          "type": "uint256"
        },
        {
          "internalType": "uint256",
          "name": "productQuantity",
          "type": "uint256"
        },
        {
          "internalType": "uint256",
          "name": "productPrice",
          "type": "uint256"
        },
        {
          "internalType": "string",
          "name": "cateory",
          "type": "string"
        },
        {
          "internalType": "address",
          "name": "seller",
          "type": "address"
        }
      ],
      "stateMutability": "view",
      "type": "function"
    },
    {
      "inputs": [
        {
          "internalType": "uint256",
          "name": "",
          "type": "uint256"
        }
      ],
      "name": "s_farmerInventory",
      "outputs": [
        {
          "internalType": "string",
          "name": "productName",
          "type": "string"
        },
        {
          "internalType": "uint256",
          "name": "tokenId",
          "type": "uint256"
        },
        {
          "internalType": "uint256",
          "name": "productQuantity",
          "type": "uint256"
        },
        {
          "internalType": "uint256",
          "name": "productPrice",
          "type": "uint256"
        },
        {
          "internalType": "string",
          "name": "cateory",
          "type": "string"
        },
        {
          "internalType": "address",
          "name": "seller",
          "type": "address"
        }
      ],
      "stateMutability": "view",
      "type": "function"
    },
    {
      "inputs": [
        {
          "internalType": "string",
          "name": "",
          "type": "string"
        }
      ],
      "name": "s_productDistributer",
      "outputs": [
        {
          "internalType": "string",
          "name": "productName",
          "type": "string"
        },
        {
          "internalType": "uint256",
          "name": "tokenId",
          "type": "uint256"
        },
        {
          "internalType": "uint256",
          "name": "productQuantity",
          "type": "uint256"
        },
        {
          "internalType": "uint256",
          "name": "productPrice",
          "type": "uint256"
        },
        {
          "internalType": "string",
          "name": "cateory",
          "type": "string"
        },
        {
          "internalType": "address",
          "name": "seller",
          "type": "address"
        }
      ],
      "stateMutability": "view",
      "type": "function"
    },
    {
      "inputs": [
        {
          "internalType": "uint256",
          "name": "",
          "type": "uint256"
        }
      ],
      "name": "s_productOwners",
      "outputs": [
        {
          "internalType": "address",
          "name": "farmerAddress",
          "type": "address"
        },
        {
          "internalType": "address",
          "name": "distributerAddress",
          "type": "address"
        },
        {
          "internalType": "address",
          "name": "retailerAddress",
          "type": "address"
        }
      ],
      "stateMutability": "view",
      "type": "function"
    },
    {
      "inputs": [],
      "name": "s_tokenIDs",
      "outputs": [
        {
          "internalType": "uint256",
          "name": "",
          "type": "uint256"
        }
      ],
      "stateMutability": "view",
      "type": "function"
    },
    {
      "inputs": [
        {
          "internalType": "string",
          "name": "",
          "type": "string"
        }
      ],
      "name": "s_totalDistibuterInventory",
      "outputs": [
        {
          "internalType": "string",
          "name": "productName",
          "type": "string"
        },
        {
          "internalType": "uint256",
          "name": "tokenId",
          "type": "uint256"
        },
        {
          "internalType": "uint256",
          "name": "productQuantity",
          "type": "uint256"
        },
        {
          "internalType": "uint256",
          "name": "productPrice",
          "type": "uint256"
        },
        {
          "internalType": "string",
          "name": "cateory",
          "type": "string"
        },
        {
          "internalType": "address",
          "name": "seller",
          "type": "address"
        }
      ],
      "stateMutability": "view",
      "type": "function"
    },
    {
      "inputs": [
        {
          "internalType": "string",
          "name": "_productName",
          "type": "string"
        }
      ],
      "name": "searchDistributer",
      "outputs": [
        {
          "components": [
            {
              "internalType": "string",
              "name": "productName",
              "type": "string"
            },
            {
              "internalType": "uint256",
              "name": "tokenId",
              "type": "uint256"
            },
            {
              "internalType": "uint256",
              "name": "productQuantity",
              "type": "uint256"
            },
            {
              "internalType": "uint256",
              "name": "productPrice",
              "type": "uint256"
            },
            {
              "internalType": "string",
              "name": "cateory",
              "type": "string"
            },
            {
              "internalType": "address",
              "name": "seller",
              "type": "address"
            }
          ],
          "internalType": "struct SupplyChain.Product",
          "name": "",
          "type": "tuple"
        }
      ],
      "stateMutability": "view",
      "type": "function"
    },
    {
      "inputs": [
        {
          "internalType": "uint256",
          "name": "_tokenID",
          "type": "uint256"
        },
        {
          "internalType": "uint256",
          "name": "_newPrice",
          "type": "uint256"
        }
      ],
      "name": "updateListing",
      "outputs": [],
      "stateMutability": "nonpayable",
      "type": "function"
    }
  ],
  "transactionHash": "0x9328a5c9ecc79d7a44259cf5a12eb80bea7962379a51e367c2cfacd366817a24",
  "args": [],
  "numDeployments": 1,
  "solcInputHash": "990940feb02fca01f5132022f6f0ef42",
  "bytecode": "0x608060405234801561001057600080fd5b50613a52806100206000396000f3fe6080604052600436106100fe5760003560e01c80636681160d11610095578063874fae9d11610064578063874fae9d14610390578063a99b965f146103cd578063d38ea5bf1461040f578063e7fb74c71461042b578063f3f1833e14610447576100fe565b80636681160d1461028b578063718abbbc146102cd57806373a1bd811461030c578063761462521461034e576100fe565b806342d7104b116100d157806342d7104b146101bf578063505910fb146101e857806351563f8e1461022557806361253a041461024e576100fe565b8063010a38f5146101035780630179ea881461012e5780630b7698c21461015757806318cd5ee714610182575b600080fd5b34801561010f57600080fd5b50610118610484565b6040516101259190612ed4565b60405180910390f35b34801561013a57600080fd5b5061015560048036038101906101509190612f2f565b61048d565b005b34801561016357600080fd5b5061016c6108cd565b6040516101799190612ed4565b60405180910390f35b34801561018e57600080fd5b506101a960048036038101906101a49190612f6f565b6108d3565b6040516101b6919061310c565b60405180910390f35b3480156101cb57600080fd5b506101e660048036038101906101e19190613263565b610a98565b005b3480156101f457600080fd5b5061020f600480360381019061020a9190613302565b610c9c565b60405161021c919061310c565b60405180910390f35b34801561023157600080fd5b5061024c60048036038101906102479190612f6f565b610e6c565b005b34801561025a57600080fd5b5061027560048036038101906102709190612f6f565b611522565b604051610282919061338d565b60405180910390f35b34801561029757600080fd5b506102b260048036038101906102ad9190613302565b611651565b6040516102c496959493929190613401565b60405180910390f35b3480156102d957600080fd5b506102f460048036038101906102ef9190612f6f565b6117d3565b60405161030393929190613470565b60405180910390f35b34801561031857600080fd5b50610333600480360381019061032e9190612f6f565b61185d565b60405161034596959493929190613401565b60405180910390f35b34801561035a57600080fd5b5061037560048036038101906103709190612f6f565b6119c9565b60405161038796959493929190613401565b60405180910390f35b34801561039c57600080fd5b506103b760048036038101906103b29190613302565b611b35565b6040516103c4919061310c565b60405180910390f35b3480156103d957600080fd5b506103f460048036038101906103ef9190613302565b611d05565b60405161040696959493929190613401565b60405180910390f35b61042960048036038101906104249190612f6f565b611e87565b005b61044560048036038101906104409190612f6f565b6122c0565b005b34801561045357600080fd5b5061046e60048036038101906104699190612f6f565b612bea565b60405161047b919061310c565b60405180910390f35b60008054905090565b816000600160008381526020019081526020016000206040518060c00160405290816000820180546104be906134d6565b80601f01602080910402602001604051908101604052809291908181526020018280546104ea906134d6565b80156105375780601f1061050c57610100808354040283529160200191610537565b820191906000526020600020905b81548152906001019060200180831161051a57829003601f168201915b5050505050815260200160018201548152602001600282015481526020016003820154815260200160048201805461056e906134d6565b80601f016020809104026020016040519081016040528092919081815260200182805461059a906134d6565b80156105e75780601f106105bc576101008083540402835291602001916105e7565b820191906000526020600020905b8154815290600101906020018083116105ca57829003601f168201915b505050505081526020016005820160009054906101000a900473ffffffffffffffffffffffffffffffffffffffff1673ffffffffffffffffffffffffffffffffffffffff1673ffffffffffffffffffffffffffffffffffffffff168152505090506000816060015111610686576040517f665c1c5700000000000000000000000000000000000000000000000000000000815260040160405180910390fd5b836000600160008381526020019081526020016000206040518060c00160405290816000820180546106b7906134d6565b80601f01602080910402602001604051908101604052809291908181526020018280546106e3906134d6565b80156107305780601f1061070557610100808354040283529160200191610730565b820191906000526020600020905b81548152906001019060200180831161071357829003601f168201915b50505050508152602001600182015481526020016002820154815260200160038201548152602001600482018054610767906134d6565b80601f0160208091040260200160405190810160405280929190818152602001828054610793906134d6565b80156107e05780601f106107b5576101008083540402835291602001916107e0565b820191906000526020600020905b8154815290600101906020018083116107c357829003601f168201915b505050505081526020016005820160009054906101000a900473ffffffffffffffffffffffffffffffffffffffff1673ffffffffffffffffffffffffffffffffffffffff1673ffffffffffffffffffffffffffffffffffffffff168152505090503373ffffffffffffffffffffffffffffffffffffffff168160a0015173ffffffffffffffffffffffffffffffffffffffff16146108aa576040517f30cd747100000000000000000000000000000000000000000000000000000000815260040160405180910390fd5b846001600088815260200190815260200160002060030181905550505050505050565b60005481565b6108db612daf565b600260008381526020019081526020016000206040518060c0016040529081600082018054610909906134d6565b80601f0160208091040260200160405190810160405280929190818152602001828054610935906134d6565b80156109825780601f1061095757610100808354040283529160200191610982565b820191906000526020600020905b81548152906001019060200180831161096557829003601f168201915b505050505081526020016001820154815260200160028201548152602001600382015481526020016004820180546109b9906134d6565b80601f01602080910402602001604051908101604052809291908181526020018280546109e5906134d6565b8015610a325780601f10610a0757610100808354040283529160200191610a32565b820191906000526020600020905b815481529060010190602001808311610a1557829003601f168201915b505050505081526020016005820160009054906101000a900473ffffffffffffffffffffffffffffffffffffffff1673ffffffffffffffffffffffffffffffffffffffff1673ffffffffffffffffffffffffffffffffffffffff16815250509050919050565b60008211610ad2576040517f710871ac00000000000000000000000000000000000000000000000000000000815260040160405180910390fd5b600080815480929190610ae490613536565b91905055506000805490506040518060c001604052808681526020018281526020018581526020018481526020018381526020013373ffffffffffffffffffffffffffffffffffffffff16815250600160008381526020019081526020016000206000820151816000019081610b5a919061372a565b506020820151816001015560408201518160020155606082015181600301556080820151816004019081610b8e919061372a565b5060a08201518160050160006101000a81548173ffffffffffffffffffffffffffffffffffffffff021916908373ffffffffffffffffffffffffffffffffffffffff160217905550905050336004600083815260200190815260200160002060000160006101000a81548173ffffffffffffffffffffffffffffffffffffffff021916908373ffffffffffffffffffffffffffffffffffffffff1602179055503373ffffffffffffffffffffffffffffffffffffffff168186604051610c549190613838565b60405180910390207f24b521170273788138099b26cb6928e7f17539aa1b2a9835c98936a755144f308787604051610c8d92919061384f565b60405180910390a45050505050565b610ca4612daf565b600582604051610cb49190613838565b90815260200160405180910390206040518060c0016040529081600082018054610cdd906134d6565b80601f0160208091040260200160405190810160405280929190818152602001828054610d09906134d6565b8015610d565780601f10610d2b57610100808354040283529160200191610d56565b820191906000526020600020905b815481529060010190602001808311610d3957829003601f168201915b50505050508152602001600182015481526020016002820154815260200160038201548152602001600482018054610d8d906134d6565b80601f0160208091040260200160405190810160405280929190818152602001828054610db9906134d6565b8015610e065780601f10610ddb57610100808354040283529160200191610e06565b820191906000526020600020905b815481529060010190602001808311610de957829003601f168201915b505050505081526020016005820160009054906101000a900473ffffffffffffffffffffffffffffffffffffffff1673ffffffffffffffffffffffffffffffffffffffff1673ffffffffffffffffffffffffffffffffffffffff16815250509050919050565b806000600160008381526020019081526020016000206040518060c0016040529081600082018054610e9d906134d6565b80601f0160208091040260200160405190810160405280929190818152602001828054610ec9906134d6565b8015610f165780601f10610eeb57610100808354040283529160200191610f16565b820191906000526020600020905b815481529060010190602001808311610ef957829003601f168201915b50505050508152602001600182015481526020016002820154815260200160038201548152602001600482018054610f4d906134d6565b80601f0160208091040260200160405190810160405280929190818152602001828054610f79906134d6565b8015610fc65780601f10610f9b57610100808354040283529160200191610fc6565b820191906000526020600020905b815481529060010190602001808311610fa957829003601f168201915b505050505081526020016005820160009054906101000a900473ffffffffffffffffffffffffffffffffffffffff1673ffffffffffffffffffffffffffffffffffffffff1673ffffffffffffffffffffffffffffffffffffffff168152505090506000816060015111611065576040517f665c1c5700000000000000000000000000000000000000000000000000000000815260040160405180910390fd5b826000600160008381526020019081526020016000206040518060c0016040529081600082018054611096906134d6565b80601f01602080910402602001604051908101604052809291908181526020018280546110c2906134d6565b801561110f5780601f106110e45761010080835404028352916020019161110f565b820191906000526020600020905b8154815290600101906020018083116110f257829003601f168201915b50505050508152602001600182015481526020016002820154815260200160038201548152602001600482018054611146906134d6565b80601f0160208091040260200160405190810160405280929190818152602001828054611172906134d6565b80156111bf5780601f10611194576101008083540402835291602001916111bf565b820191906000526020600020905b8154815290600101906020018083116111a257829003601f168201915b505050505081526020016005820160009054906101000a900473ffffffffffffffffffffffffffffffffffffffff1673ffffffffffffffffffffffffffffffffffffffff1673ffffffffffffffffffffffffffffffffffffffff168152505090503373ffffffffffffffffffffffffffffffffffffffff168160a0015173ffffffffffffffffffffffffffffffffffffffff1614611289576040517f30cd747100000000000000000000000000000000000000000000000000000000815260040160405180910390fd5b6000600160008781526020019081526020016000206040518060c00160405290816000820180546112b9906134d6565b80601f01602080910402602001604051908101604052809291908181526020018280546112e5906134d6565b80156113325780601f1061130757610100808354040283529160200191611332565b820191906000526020600020905b81548152906001019060200180831161131557829003601f168201915b50505050508152602001600182015481526020016002820154815260200160038201548152602001600482018054611369906134d6565b80601f0160208091040260200160405190810160405280929190818152602001828054611395906134d6565b80156113e25780601f106113b7576101008083540402835291602001916113e2565b820191906000526020600020905b8154815290600101906020018083116113c557829003601f168201915b505050505081526020016005820160009054906101000a900473ffffffffffffffffffffffffffffffffffffffff1673ffffffffffffffffffffffffffffffffffffffff1673ffffffffffffffffffffffffffffffffffffffff1681525050905060016000878152602001908152602001600020600080820160006114679190612dfb565b60018201600090556002820160009055600382016000905560048201600061148f9190612dfb565b6005820160006101000a81549073ffffffffffffffffffffffffffffffffffffffff021916905550508060a0015173ffffffffffffffffffffffffffffffffffffffff168682600001516040516114e69190613838565b60405180910390207f4a7059f7cc563bab4fc554525dfac597ddcc3c19c81e3e51aa862a88daba8cf060405160405180910390a4505050505050565b61152a612e3b565b600460008381526020019081526020016000206040518060600160405290816000820160009054906101000a900473ffffffffffffffffffffffffffffffffffffffff1673ffffffffffffffffffffffffffffffffffffffff1673ffffffffffffffffffffffffffffffffffffffff1681526020016001820160009054906101000a900473ffffffffffffffffffffffffffffffffffffffff1673ffffffffffffffffffffffffffffffffffffffff1673ffffffffffffffffffffffffffffffffffffffff1681526020016002820160009054906101000a900473ffffffffffffffffffffffffffffffffffffffff1673ffffffffffffffffffffffffffffffffffffffff1673ffffffffffffffffffffffffffffffffffffffff16815250509050919050565b60058180516020810182018051848252602083016020850120818352809550505050505060009150905080600001805461168a906134d6565b80601f01602080910402602001604051908101604052809291908181526020018280546116b6906134d6565b80156117035780601f106116d857610100808354040283529160200191611703565b820191906000526020600020905b8154815290600101906020018083116116e657829003601f168201915b50505050509080600101549080600201549080600301549080600401805461172a906134d6565b80601f0160208091040260200160405190810160405280929190818152602001828054611756906134d6565b80156117a35780601f10611778576101008083540402835291602001916117a3565b820191906000526020600020905b81548152906001019060200180831161178657829003601f168201915b5050505050908060050160009054906101000a900473ffffffffffffffffffffffffffffffffffffffff16905086565b60046020528060005260406000206000915090508060000160009054906101000a900473ffffffffffffffffffffffffffffffffffffffff16908060010160009054906101000a900473ffffffffffffffffffffffffffffffffffffffff16908060020160009054906101000a900473ffffffffffffffffffffffffffffffffffffffff16905083565b6001602052806000526040600020600091509050806000018054611880906134d6565b80601f01602080910402602001604051908101604052809291908181526020018280546118ac906134d6565b80156118f95780601f106118ce576101008083540402835291602001916118f9565b820191906000526020600020905b8154815290600101906020018083116118dc57829003601f168201915b505050505090806001015490806002015490806003015490806004018054611920906134d6565b80601f016020809104026020016040519081016040528092919081815260200182805461194c906134d6565b80156119995780601f1061196e57610100808354040283529160200191611999565b820191906000526020600020905b81548152906001019060200180831161197c57829003601f168201915b5050505050908060050160009054906101000a900473ffffffffffffffffffffffffffffffffffffffff16905086565b60026020528060005260406000206000915090508060000180546119ec906134d6565b80601f0160208091040260200160405190810160405280929190818152602001828054611a18906134d6565b8015611a655780601f10611a3a57610100808354040283529160200191611a65565b820191906000526020600020905b815481529060010190602001808311611a4857829003601f168201915b505050505090806001015490806002015490806003015490806004018054611a8c906134d6565b80601f0160208091040260200160405190810160405280929190818152602001828054611ab8906134d6565b8015611b055780601f10611ada57610100808354040283529160200191611b05565b820191906000526020600020905b815481529060010190602001808311611ae857829003601f168201915b5050505050908060050160009054906101000a900473ffffffffffffffffffffffffffffffffffffffff16905086565b611b3d612daf565b600382604051611b4d9190613838565b90815260200160405180910390206040518060c0016040529081600082018054611b76906134d6565b80601f0160208091040260200160405190810160405280929190818152602001828054611ba2906134d6565b8015611bef5780601f10611bc457610100808354040283529160200191611bef565b820191906000526020600020905b815481529060010190602001808311611bd257829003601f168201915b50505050508152602001600182015481526020016002820154815260200160038201548152602001600482018054611c26906134d6565b80601f0160208091040260200160405190810160405280929190818152602001828054611c52906134d6565b8015611c9f5780601f10611c7457610100808354040283529160200191611c9f565b820191906000526020600020905b815481529060010190602001808311611c8257829003601f168201915b505050505081526020016005820160009054906101000a900473ffffffffffffffffffffffffffffffffffffffff1673ffffffffffffffffffffffffffffffffffffffff1673ffffffffffffffffffffffffffffffffffffffff16815250509050919050565b600381805160208101820180518482526020830160208501208183528095505050505050600091509050806000018054611d3e906134d6565b80601f0160208091040260200160405190810160405280929190818152602001828054611d6a906134d6565b8015611db75780601f10611d8c57610100808354040283529160200191611db7565b820191906000526020600020905b815481529060010190602001808311611d9a57829003601f168201915b505050505090806001015490806002015490806003015490806004018054611dde906134d6565b80601f0160208091040260200160405190810160405280929190818152602001828054611e0a906134d6565b8015611e575780601f10611e2c57610100808354040283529160200191611e57565b820191906000526020600020905b815481529060010190602001808311611e3a57829003601f168201915b5050505050908060050160009054906101000a900473ffffffffffffffffffffffffffffffffffffffff16905086565b6000600260008381526020019081526020016000206040518060c0016040529081600082018054611eb7906134d6565b80601f0160208091040260200160405190810160405280929190818152602001828054611ee3906134d6565b8015611f305780601f10611f0557610100808354040283529160200191611f30565b820191906000526020600020905b815481529060010190602001808311611f1357829003601f168201915b50505050508152602001600182015481526020016002820154815260200160038201548152602001600482018054611f67906134d6565b80601f0160208091040260200160405190810160405280929190818152602001828054611f93906134d6565b8015611fe05780601f10611fb557610100808354040283529160200191611fe0565b820191906000526020600020905b815481529060010190602001808311611fc357829003601f168201915b505050505081526020016005820160009054906101000a900473ffffffffffffffffffffffffffffffffffffffff1673ffffffffffffffffffffffffffffffffffffffff1673ffffffffffffffffffffffffffffffffffffffff16815250509050600081606001511015612080576040517f665c1c5700000000000000000000000000000000000000000000000000000000815260040160405180910390fd5b806060015134146120bd576040517fa2c2d5c600000000000000000000000000000000000000000000000000000000815260040160405180910390fd5b60026000838152602001908152602001600020600080820160006120e19190612dfb565b6001820160009055600282016000905560038201600090556004820160006121099190612dfb565b6005820160006101000a81549073ffffffffffffffffffffffffffffffffffffffff0219169055505080604001516003826000015160405161214b9190613838565b9081526020016040518091039020600201546121679190613878565b6003826000015160405161217b9190613838565b908152602001604051809103902060020181905550600581600001516040516121a49190613838565b9081526020016040518091039020600080820160006121c39190612dfb565b6001820160009055600282016000905560038201600090556004820160006121eb9190612dfb565b6005820160006101000a81549073ffffffffffffffffffffffffffffffffffffffff0219169055505033600460008360200151815260200190815260200160002060020160006101000a81548173ffffffffffffffffffffffffffffffffffffffff021916908373ffffffffffffffffffffffffffffffffffffffff1602179055508060a0015173ffffffffffffffffffffffffffffffffffffffff166108fc82606001519081150290604051600060405180830381858888f193505050501580156122bb573d6000803e3d6000fd5b505050565b806000600160008381526020019081526020016000206040518060c00160405290816000820180546122f1906134d6565b80601f016020809104026020016040519081016040528092919081815260200182805461231d906134d6565b801561236a5780601f1061233f5761010080835404028352916020019161236a565b820191906000526020600020905b81548152906001019060200180831161234d57829003601f168201915b505050505081526020016001820154815260200160028201548152602001600382015481526020016004820180546123a1906134d6565b80601f01602080910402602001604051908101604052809291908181526020018280546123cd906134d6565b801561241a5780601f106123ef5761010080835404028352916020019161241a565b820191906000526020600020905b8154815290600101906020018083116123fd57829003601f168201915b505050505081526020016005820160009054906101000a900473ffffffffffffffffffffffffffffffffffffffff1673ffffffffffffffffffffffffffffffffffffffff1673ffffffffffffffffffffffffffffffffffffffff1681525050905060008160600151116124b9576040517f665c1c5700000000000000000000000000000000000000000000000000000000815260040160405180910390fd5b6000600160008581526020019081526020016000206040518060c00160405290816000820180546124e9906134d6565b80601f0160208091040260200160405190810160405280929190818152602001828054612515906134d6565b80156125625780601f1061253757610100808354040283529160200191612562565b820191906000526020600020905b81548152906001019060200180831161254557829003601f168201915b50505050508152602001600182015481526020016002820154815260200160038201548152602001600482018054612599906134d6565b80601f01602080910402602001604051908101604052809291908181526020018280546125c5906134d6565b80156126125780601f106125e757610100808354040283529160200191612612565b820191906000526020600020905b8154815290600101906020018083116125f557829003601f168201915b505050505081526020016005820160009054906101000a900473ffffffffffffffffffffffffffffffffffffffff1673ffffffffffffffffffffffffffffffffffffffff1673ffffffffffffffffffffffffffffffffffffffff16815250509050806060015134146126b0576040517fa2c2d5c600000000000000000000000000000000000000000000000000000000815260040160405180910390fd5b60016000858152602001908152602001600020600080820160006126d49190612dfb565b6001820160009055600282016000905560038201600090556004820160006126fc9190612dfb565b6005820160006101000a81549073ffffffffffffffffffffffffffffffffffffffff02191690555050600060646014836060015161273a91906138ac565b612744919061391d565b8260600151612753919061394e565b90506040518060c00160405280836000015181526020018360200151815260200183604001518152602001828152602001836080015181526020013373ffffffffffffffffffffffffffffffffffffffff168152506002600087815260200190815260200160002060008201518160000190816127d0919061372a565b506020820151816001015560408201518160020155606082015181600301556080820151816004019081612804919061372a565b5060a08201518160050160006101000a81548173ffffffffffffffffffffffffffffffffffffffff021916908373ffffffffffffffffffffffffffffffffffffffff1602179055509050506040518060c00160405280836000015181526020018360200151815260200183604001518152602001828152602001836080015181526020013373ffffffffffffffffffffffffffffffffffffffff16815250600383600001516040516128b69190613838565b908152602001604051809103902060008201518160000190816128d9919061372a565b50602082015181600101556040820151816002015560608201518160030155608082015181600401908161290d919061372a565b5060a08201518160050160006101000a81548173ffffffffffffffffffffffffffffffffffffffff021916908373ffffffffffffffffffffffffffffffffffffffff16021790555090505033600460008460200151815260200190815260200160002060010160006101000a81548173ffffffffffffffffffffffffffffffffffffffff021916908373ffffffffffffffffffffffffffffffffffffffff1602179055506040518060c00160405280836000015181526020018360200151815260200183604001518152602001828152602001836080015181526020013373ffffffffffffffffffffffffffffffffffffffff1681525060058360000151604051612a189190613838565b90815260200160405180910390206000820151816000019081612a3b919061372a565b506020820151816001015560408201518160020155606082015181600301556080820151816004019081612a6f919061372a565b5060a08201518160050160006101000a81548173ffffffffffffffffffffffffffffffffffffffff021916908373ffffffffffffffffffffffffffffffffffffffff1602179055509050508160a0015173ffffffffffffffffffffffffffffffffffffffff166108fc83606001519081150290604051600060405180830381858888f19350505050158015612b08573d6000803e3d6000fd5b508160000151604051602001612b1e9190613838565b6040516020818303038152906040528051906020012060038360000151604051612b489190613838565b9081526020016040518091039020600001604051602001612b699190613a05565b6040516020818303038152906040528051906020012003612be357816040015160038360000151604051612b9d9190613838565b908152602001604051809103902060020154612bb9919061394e565b60038360000151604051612bcd9190613838565b9081526020016040518091039020600201819055505b5050505050565b612bf2612daf565b600160008381526020019081526020016000206040518060c0016040529081600082018054612c20906134d6565b80601f0160208091040260200160405190810160405280929190818152602001828054612c4c906134d6565b8015612c995780601f10612c6e57610100808354040283529160200191612c99565b820191906000526020600020905b815481529060010190602001808311612c7c57829003601f168201915b50505050508152602001600182015481526020016002820154815260200160038201548152602001600482018054612cd0906134d6565b80601f0160208091040260200160405190810160405280929190818152602001828054612cfc906134d6565b8015612d495780601f10612d1e57610100808354040283529160200191612d49565b820191906000526020600020905b815481529060010190602001808311612d2c57829003601f168201915b505050505081526020016005820160009054906101000a900473ffffffffffffffffffffffffffffffffffffffff1673ffffffffffffffffffffffffffffffffffffffff1673ffffffffffffffffffffffffffffffffffffffff16815250509050919050565b6040518060c001604052806060815260200160008152602001600081526020016000815260200160608152602001600073ffffffffffffffffffffffffffffffffffffffff1681525090565b508054612e07906134d6565b6000825580601f10612e195750612e38565b601f016020900490600052602060002090810190612e379190612e9e565b5b50565b6040518060600160405280600073ffffffffffffffffffffffffffffffffffffffff168152602001600073ffffffffffffffffffffffffffffffffffffffff168152602001600073ffffffffffffffffffffffffffffffffffffffff1681525090565b5b80821115612eb7576000816000905550600101612e9f565b5090565b6000819050919050565b612ece81612ebb565b82525050565b6000602082019050612ee96000830184612ec5565b92915050565b6000604051905090565b600080fd5b600080fd5b612f0c81612ebb565b8114612f1757600080fd5b50565b600081359050612f2981612f03565b92915050565b60008060408385031215612f4657612f45612ef9565b5b6000612f5485828601612f1a565b9250506020612f6585828601612f1a565b9150509250929050565b600060208284031215612f8557612f84612ef9565b5b6000612f9384828501612f1a565b91505092915050565b600081519050919050565b600082825260208201905092915050565b60005b83811015612fd6578082015181840152602081019050612fbb565b60008484015250505050565b6000601f19601f8301169050919050565b6000612ffe82612f9c565b6130088185612fa7565b9350613018818560208601612fb8565b61302181612fe2565b840191505092915050565b61303581612ebb565b82525050565b600073ffffffffffffffffffffffffffffffffffffffff82169050919050565b60006130668261303b565b9050919050565b6130768161305b565b82525050565b600060c08301600083015184820360008601526130998282612ff3565b91505060208301516130ae602086018261302c565b5060408301516130c1604086018261302c565b5060608301516130d4606086018261302c565b50608083015184820360808601526130ec8282612ff3565b91505060a083015161310160a086018261306d565b508091505092915050565b60006020820190508181036000830152613126818461307c565b905092915050565b600080fd5b600080fd5b7f4e487b7100000000000000000000000000000000000000000000000000000000600052604160045260246000fd5b61317082612fe2565b810181811067ffffffffffffffff8211171561318f5761318e613138565b5b80604052505050565b60006131a2612eef565b90506131ae8282613167565b919050565b600067ffffffffffffffff8211156131ce576131cd613138565b5b6131d782612fe2565b9050602081019050919050565b82818337600083830152505050565b6000613206613201846131b3565b613198565b90508281526020810184848401111561322257613221613133565b5b61322d8482856131e4565b509392505050565b600082601f83011261324a5761324961312e565b5b813561325a8482602086016131f3565b91505092915050565b6000806000806080858703121561327d5761327c612ef9565b5b600085013567ffffffffffffffff81111561329b5761329a612efe565b5b6132a787828801613235565b94505060206132b887828801612f1a565b93505060406132c987828801612f1a565b925050606085013567ffffffffffffffff8111156132ea576132e9612efe565b5b6132f687828801613235565b91505092959194509250565b60006020828403121561331857613317612ef9565b5b600082013567ffffffffffffffff81111561333657613335612efe565b5b61334284828501613235565b91505092915050565b606082016000820151613361600085018261306d565b506020820151613374602085018261306d565b506040820151613387604085018261306d565b50505050565b60006060820190506133a2600083018461334b565b92915050565b600082825260208201905092915050565b60006133c482612f9c565b6133ce81856133a8565b93506133de818560208601612fb8565b6133e781612fe2565b840191505092915050565b6133fb8161305b565b82525050565b600060c082019050818103600083015261341b81896133b9565b905061342a6020830188612ec5565b6134376040830187612ec5565b6134446060830186612ec5565b818103608083015261345681856133b9565b905061346560a08301846133f2565b979650505050505050565b600060608201905061348560008301866133f2565b61349260208301856133f2565b61349f60408301846133f2565b949350505050565b7f4e487b7100000000000000000000000000000000000000000000000000000000600052602260045260246000fd5b600060028204905060018216806134ee57607f821691505b602082108103613501576135006134a7565b5b50919050565b7f4e487b7100000000000000000000000000000000000000000000000000000000600052601160045260246000fd5b600061354182612ebb565b91507fffffffffffffffffffffffffffffffffffffffffffffffffffffffffffffffff820361357357613572613507565b5b600182019050919050565b60008190508160005260206000209050919050565b60006020601f8301049050919050565b600082821b905092915050565b6000600883026135e07fffffffffffffffffffffffffffffffffffffffffffffffffffffffffffffffff826135a3565b6135ea86836135a3565b95508019841693508086168417925050509392505050565b6000819050919050565b600061362761362261361d84612ebb565b613602565b612ebb565b9050919050565b6000819050919050565b6136418361360c565b61365561364d8261362e565b8484546135b0565b825550505050565b600090565b61366a61365d565b613675818484613638565b505050565b5b818110156136995761368e600082613662565b60018101905061367b565b5050565b601f8211156136de576136af8161357e565b6136b884613593565b810160208510156136c7578190505b6136db6136d385613593565b83018261367a565b50505b505050565b600082821c905092915050565b6000613701600019846008026136e3565b1980831691505092915050565b600061371a83836136f0565b9150826002028217905092915050565b61373382612f9c565b67ffffffffffffffff81111561374c5761374b613138565b5b61375682546134d6565b61376182828561369d565b600060209050601f8311600181146137945760008415613782578287015190505b61378c858261370e565b8655506137f4565b601f1984166137a28661357e565b60005b828110156137ca578489015182556001820191506020850194506020810190506137a5565b868310156137e757848901516137e3601f8916826136f0565b8355505b6001600288020188555050505b505050505050565b600081905092915050565b600061381282612f9c565b61381c81856137fc565b935061382c818560208601612fb8565b80840191505092915050565b60006138448284613807565b915081905092915050565b60006040820190506138646000830185612ec5565b6138716020830184612ec5565b9392505050565b600061388382612ebb565b915061388e83612ebb565b92508282039050818111156138a6576138a5613507565b5b92915050565b60006138b782612ebb565b91506138c283612ebb565b92508282026138d081612ebb565b915082820484148315176138e7576138e6613507565b5b5092915050565b7f4e487b7100000000000000000000000000000000000000000000000000000000600052601260045260246000fd5b600061392882612ebb565b915061393383612ebb565b925082613943576139426138ee565b5b828204905092915050565b600061395982612ebb565b915061396483612ebb565b925082820190508082111561397c5761397b613507565b5b92915050565b6000815461398f816134d6565b61399981866137fc565b945060018216600081146139b457600181146139c9576139fc565b60ff19831686528115158202860193506139fc565b6139d28561357e565b60005b838110156139f4578154818901526001820191506020810190506139d5565b838801955050505b50505092915050565b6000613a118284613982565b91508190509291505056fea264697066735822122084bf55277829cab3031b00addd613337acea6b75f7a9db995508747e92d6e8ed64736f6c63430008110033",
  "devdoc": {
    "kind": "dev",
    "methods": {
      "buyItem(uint256)": {
        "params": {
          "_tokenID": "- The token id of the product to be bought"
        }
      },
      "cancelItem(uint256)": {
        "params": {
          "_tokenID": "- The token id of the product to be canceled"
        }
      },
      "listItem(string,uint256,uint256,string)": {
        "params": {
          "_ProductName": "- Name of the product",
          "_price": "price of the product to be sold",
          "_quantity": "- Quantity of product to be sold"
        }
      },
      "purchaseItem(uint256)": {
        "params": {
          "_tokenID": "- The token id of the product to be bought"
        }
      },
      "updateListing(uint256,uint256)": {
        "params": {
          "_newPrice": "- The price to which you want to update it.",
          "_tokenID": "- The token id of the product to be updated"
        }
      }
    },
    "version": 1
  },
  "userdoc": {
    "kind": "user",
    "methods": {
      "buyItem(uint256)": {
        "notice": "Buy the product from farmer and add it into distributer's inventory"
      },
      "cancelItem(uint256)": {
        "notice": "Cancel the listing of a product"
      },
      "listItem(string,uint256,uint256,string)": {
        "notice": "List the product details on the marketplace"
      },
      "purchaseItem(uint256)": {
        "notice": "Purchase the item from distributer"
      },
      "updateListing(uint256,uint256)": {
        "notice": "Update the price of an already listed product"
      }
    },
    "version": 1
  },
  "storageLayout": {
    "storage": [
      {
        "astId": 11,
        "contract": "contracts/SupplyChain.sol:SupplyChain",
        "label": "s_tokenIDs",
        "offset": 0,
        "slot": "0",
        "type": "t_uint256"
      },
      {
        "astId": 36,
        "contract": "contracts/SupplyChain.sol:SupplyChain",
        "label": "s_farmerInventory",
        "offset": 0,
        "slot": "1",
        "type": "t_mapping(t_uint256,t_struct(Product)24_storage)"
      },
      {
        "astId": 41,
        "contract": "contracts/SupplyChain.sol:SupplyChain",
        "label": "s_distributerInventory",
        "offset": 0,
        "slot": "2",
        "type": "t_mapping(t_uint256,t_struct(Product)24_storage)"
      },
      {
        "astId": 46,
        "contract": "contracts/SupplyChain.sol:SupplyChain",
        "label": "s_totalDistibuterInventory",
        "offset": 0,
        "slot": "3",
        "type": "t_mapping(t_string_memory_ptr,t_struct(Product)24_storage)"
      },
      {
        "astId": 51,
        "contract": "contracts/SupplyChain.sol:SupplyChain",
        "label": "s_productOwners",
        "offset": 0,
        "slot": "4",
        "type": "t_mapping(t_uint256,t_struct(Owners)31_storage)"
      },
      {
        "astId": 56,
        "contract": "contracts/SupplyChain.sol:SupplyChain",
        "label": "s_productDistributer",
        "offset": 0,
        "slot": "5",
        "type": "t_mapping(t_string_memory_ptr,t_struct(Product)24_storage)"
      }
    ],
    "types": {
      "t_address": {
        "encoding": "inplace",
        "label": "address",
        "numberOfBytes": "20"
      },
      "t_mapping(t_string_memory_ptr,t_struct(Product)24_storage)": {
        "encoding": "mapping",
        "key": "t_string_memory_ptr",
        "label": "mapping(string => struct SupplyChain.Product)",
        "numberOfBytes": "32",
        "value": "t_struct(Product)24_storage"
      },
      "t_mapping(t_uint256,t_struct(Owners)31_storage)": {
        "encoding": "mapping",
        "key": "t_uint256",
        "label": "mapping(uint256 => struct SupplyChain.Owners)",
        "numberOfBytes": "32",
        "value": "t_struct(Owners)31_storage"
      },
      "t_mapping(t_uint256,t_struct(Product)24_storage)": {
        "encoding": "mapping",
        "key": "t_uint256",
        "label": "mapping(uint256 => struct SupplyChain.Product)",
        "numberOfBytes": "32",
        "value": "t_struct(Product)24_storage"
      },
      "t_string_memory_ptr": {
        "encoding": "bytes",
        "label": "string",
        "numberOfBytes": "32"
      },
      "t_string_storage": {
        "encoding": "bytes",
        "label": "string",
        "numberOfBytes": "32"
      },
      "t_struct(Owners)31_storage": {
        "encoding": "inplace",
        "label": "struct SupplyChain.Owners",
        "members": [
          {
            "astId": 26,
            "contract": "contracts/SupplyChain.sol:SupplyChain",
            "label": "farmerAddress",
            "offset": 0,
            "slot": "0",
            "type": "t_address"
          },
          {
            "astId": 28,
            "contract": "contracts/SupplyChain.sol:SupplyChain",
            "label": "distributerAddress",
            "offset": 0,
            "slot": "1",
            "type": "t_address"
          },
          {
            "astId": 30,
            "contract": "contracts/SupplyChain.sol:SupplyChain",
            "label": "retailerAddress",
            "offset": 0,
            "slot": "2",
            "type": "t_address"
          }
        ],
        "numberOfBytes": "96"
      },
      "t_struct(Product)24_storage": {
        "encoding": "inplace",
        "label": "struct SupplyChain.Product",
        "members": [
          {
            "astId": 13,
            "contract": "contracts/SupplyChain.sol:SupplyChain",
            "label": "productName",
            "offset": 0,
            "slot": "0",
            "type": "t_string_storage"
          },
          {
            "astId": 15,
            "contract": "contracts/SupplyChain.sol:SupplyChain",
            "label": "tokenId",
            "offset": 0,
            "slot": "1",
            "type": "t_uint256"
          },
          {
            "astId": 17,
            "contract": "contracts/SupplyChain.sol:SupplyChain",
            "label": "productQuantity",
            "offset": 0,
            "slot": "2",
            "type": "t_uint256"
          },
          {
            "astId": 19,
            "contract": "contracts/SupplyChain.sol:SupplyChain",
            "label": "productPrice",
            "offset": 0,
            "slot": "3",
            "type": "t_uint256"
          },
          {
            "astId": 21,
            "contract": "contracts/SupplyChain.sol:SupplyChain",
            "label": "cateory",
            "offset": 0,
            "slot": "4",
            "type": "t_string_storage"
          },
          {
            "astId": 23,
            "contract": "contracts/SupplyChain.sol:SupplyChain",
            "label": "seller",
            "offset": 0,
            "slot": "5",
            "type": "t_address"
          }
        ],
        "numberOfBytes": "192"
      },
      "t_uint256": {
        "encoding": "inplace",
        "label": "uint256",
        "numberOfBytes": "32"
      }
    }
  }
}