{
  "address": "0x8e07C9B361Cb93E5b6F0Ae4eF9950dD2491a7328",
  "abi": [
    {
      "inputs": [],
      "name": "NotOwner",
      "type": "error"
    },
    {
      "inputs": [],
      "name": "PriceMustNotZero",
      "type": "error"
    },
    {
      "inputs": [],
      "name": "PriceNotMet",
      "type": "error"
    },
    {
      "anonymous": false,
      "inputs": [
        {
          "indexed": true,
          "internalType": "string",
          "name": "productName",
          "type": "string"
        },
        {
          "indexed": true,
          "internalType": "uint256",
          "name": "tokenId",
          "type": "uint256"
        },
        {
          "indexed": false,
          "internalType": "uint256",
          "name": "productQuantity",
          "type": "uint256"
        },
        {
          "indexed": false,
          "internalType": "uint256",
          "name": "productPrice",
          "type": "uint256"
        },
        {
          "indexed": true,
          "internalType": "address",
          "name": "seller",
          "type": "address"
        }
      ],
      "name": "ItemBought",
      "type": "event"
    },
    {
      "anonymous": false,
      "inputs": [
        {
          "indexed": true,
          "internalType": "string",
          "name": "productName",
          "type": "string"
        },
        {
          "indexed": true,
          "internalType": "uint256",
          "name": "tokenId",
          "type": "uint256"
        },
        {
          "indexed": true,
          "internalType": "address",
          "name": "seller",
          "type": "address"
        }
      ],
      "name": "ItemCanceled",
      "type": "event"
    },
    {
      "anonymous": false,
      "inputs": [
        {
          "indexed": true,
          "internalType": "string",
          "name": "productName",
          "type": "string"
        },
        {
          "indexed": true,
          "internalType": "uint256",
          "name": "tokenId",
          "type": "uint256"
        },
        {
          "indexed": false,
          "internalType": "uint256",
          "name": "productQuantity",
          "type": "uint256"
        },
        {
          "indexed": false,
          "internalType": "uint256",
          "name": "productPrice",
          "type": "uint256"
        },
        {
          "indexed": true,
          "internalType": "address",
          "name": "seller",
          "type": "address"
        }
      ],
      "name": "ItemListed",
      "type": "event"
    },
    {
      "anonymous": false,
      "inputs": [
        {
          "indexed": true,
          "internalType": "string",
          "name": "productName",
          "type": "string"
        },
        {
          "indexed": true,
          "internalType": "uint256",
          "name": "tokenId",
          "type": "uint256"
        },
        {
          "indexed": false,
          "internalType": "uint256",
          "name": "productQuantity",
          "type": "uint256"
        },
        {
          "indexed": false,
          "internalType": "uint256",
          "name": "productPrice",
          "type": "uint256"
        },
        {
          "indexed": true,
          "internalType": "address",
          "name": "seller",
          "type": "address"
        }
      ],
      "name": "ItemPurchased",
      "type": "event"
    },
    {
      "anonymous": false,
      "inputs": [
        {
          "indexed": true,
          "internalType": "string",
          "name": "productName",
          "type": "string"
        },
        {
          "indexed": true,
          "internalType": "uint256",
          "name": "tokenId",
          "type": "uint256"
        },
        {
          "indexed": true,
          "internalType": "address",
          "name": "seller",
          "type": "address"
        }
      ],
      "name": "ItemUpdated",
      "type": "event"
    },
    {
      "inputs": [
        {
          "internalType": "uint256",
          "name": "_tokenID",
          "type": "uint256"
        }
      ],
      "name": "buyItem",
      "outputs": [],
      "stateMutability": "payable",
      "type": "function"
    },
    {
      "inputs": [
        {
          "internalType": "uint256",
          "name": "_tokenID",
          "type": "uint256"
        }
      ],
      "name": "cancelItem",
      "outputs": [],
      "stateMutability": "nonpayable",
      "type": "function"
    },
    {
      "inputs": [
        {
          "internalType": "uint256",
          "name": "_tokenID",
          "type": "uint256"
        }
      ],
      "name": "getAllOwners",
      "outputs": [
        {
          "components": [
            {
              "internalType": "address",
              "name": "farmerAddress",
              "type": "address"
            },
            {
              "internalType": "address",
              "name": "distributerAddress",
              "type": "address"
            },
            {
              "internalType": "address",
              "name": "retailerAddress",
              "type": "address"
            }
          ],
          "internalType": "struct SupplyChain.Owners",
          "name": "",
          "type": "tuple"
        }
      ],
      "stateMutability": "view",
      "type": "function"
    },
    {
      "inputs": [
        {
          "internalType": "uint256",
          "name": "_tokenID",
          "type": "uint256"
        }
      ],
      "name": "getDistributerInventory",
      "outputs": [
        {
          "components": [
            {
              "internalType": "string",
              "name": "productName",
              "type": "string"
            },
            {
              "internalType": "uint256",
              "name": "tokenId",
              "type": "uint256"
            },
            {
              "internalType": "uint256",
              "name": "productQuantity",
              "type": "uint256"
            },
            {
              "internalType": "uint256",
              "name": "productPrice",
              "type": "uint256"
            },
            {
              "internalType": "string",
              "name": "cateory",
              "type": "string"
            },
            {
              "internalType": "address",
              "name": "seller",
              "type": "address"
            }
          ],
          "internalType": "struct SupplyChain.Product",
          "name": "",
          "type": "tuple"
        }
      ],
      "stateMutability": "view",
      "type": "function"
    },
    {
      "inputs": [
        {
          "internalType": "uint256",
          "name": "_tokenID",
          "type": "uint256"
        }
      ],
      "name": "getFarmersListing",
      "outputs": [
        {
          "components": [
            {
              "internalType": "string",
              "name": "productName",
              "type": "string"
            },
            {
              "internalType": "uint256",
              "name": "tokenId",
              "type": "uint256"
            },
            {
              "internalType": "uint256",
              "name": "productQuantity",
              "type": "uint256"
            },
            {
              "internalType": "uint256",
              "name": "productPrice",
              "type": "uint256"
            },
            {
              "internalType": "string",
              "name": "cateory",
              "type": "string"
            },
            {
              "internalType": "address",
              "name": "seller",
              "type": "address"
            }
          ],
          "internalType": "struct SupplyChain.Product",
          "name": "",
          "type": "tuple"
        }
      ],
      "stateMutability": "view",
      "type": "function"
    },
    {
      "inputs": [],
      "name": "getTokenId",
      "outputs": [
        {
          "internalType": "uint256",
          "name": "",
          "type": "uint256"
        }
      ],
      "stateMutability": "view",
      "type": "function"
    },
    {
      "inputs": [
        {
          "internalType": "string",
          "name": "_ProductName",
          "type": "string"
        },
        {
          "internalType": "uint256",
          "name": "_quantity",
          "type": "uint256"
        },
        {
          "internalType": "uint256",
          "name": "_price",
          "type": "uint256"
        },
        {
          "internalType": "string",
          "name": "_category",
          "type": "string"
        }
      ],
      "name": "listItem",
      "outputs": [],
      "stateMutability": "nonpayable",
      "type": "function"
    },
    {
      "inputs": [
        {
          "internalType": "uint256",
          "name": "_tokenID",
          "type": "uint256"
        }
      ],
      "name": "purchaseItem",
      "outputs": [],
      "stateMutability": "payable",
      "type": "function"
    },
    {
      "inputs": [
        {
          "internalType": "uint256",
          "name": "",
          "type": "uint256"
        }
      ],
      "name": "s_distributerInventory",
      "outputs": [
        {
          "internalType": "string",
          "name": "productName",
          "type": "string"
        },
        {
          "internalType": "uint256",
          "name": "tokenId",
          "type": "uint256"
        },
        {
          "internalType": "uint256",
          "name": "productQuantity",
          "type": "uint256"
        },
        {
          "internalType": "uint256",
          "name": "productPrice",
          "type": "uint256"
        },
        {
          "internalType": "string",
          "name": "cateory",
          "type": "string"
        },
        {
          "internalType": "address",
          "name": "seller",
          "type": "address"
        }
      ],
      "stateMutability": "view",
      "type": "function"
    },
    {
      "inputs": [
        {
          "internalType": "uint256",
          "name": "",
          "type": "uint256"
        }
      ],
      "name": "s_farmerInventory",
      "outputs": [
        {
          "internalType": "string",
          "name": "productName",
          "type": "string"
        },
        {
          "internalType": "uint256",
          "name": "tokenId",
          "type": "uint256"
        },
        {
          "internalType": "uint256",
          "name": "productQuantity",
          "type": "uint256"
        },
        {
          "internalType": "uint256",
          "name": "productPrice",
          "type": "uint256"
        },
        {
          "internalType": "string",
          "name": "cateory",
          "type": "string"
        },
        {
          "internalType": "address",
          "name": "seller",
          "type": "address"
        }
      ],
      "stateMutability": "view",
      "type": "function"
    },
    {
      "inputs": [
        {
          "internalType": "string",
          "name": "",
          "type": "string"
        }
      ],
      "name": "s_productDistributer",
      "outputs": [
        {
          "internalType": "string",
          "name": "productName",
          "type": "string"
        },
        {
          "internalType": "uint256",
          "name": "tokenId",
          "type": "uint256"
        },
        {
          "internalType": "uint256",
          "name": "productQuantity",
          "type": "uint256"
        },
        {
          "internalType": "uint256",
          "name": "productPrice",
          "type": "uint256"
        },
        {
          "internalType": "string",
          "name": "cateory",
          "type": "string"
        },
        {
          "internalType": "address",
          "name": "seller",
          "type": "address"
        }
      ],
      "stateMutability": "view",
      "type": "function"
    },
    {
      "inputs": [
        {
          "internalType": "uint256",
          "name": "",
          "type": "uint256"
        }
      ],
      "name": "s_productOwners",
      "outputs": [
        {
          "internalType": "address",
          "name": "farmerAddress",
          "type": "address"
        },
        {
          "internalType": "address",
          "name": "distributerAddress",
          "type": "address"
        },
        {
          "internalType": "address",
          "name": "retailerAddress",
          "type": "address"
        }
      ],
      "stateMutability": "view",
      "type": "function"
    },
    {
      "inputs": [],
      "name": "s_tokenIDs",
      "outputs": [
        {
          "internalType": "uint256",
          "name": "",
          "type": "uint256"
        }
      ],
      "stateMutability": "view",
      "type": "function"
    },
    {
      "inputs": [
        {
          "internalType": "string",
          "name": "_productName",
          "type": "string"
        }
      ],
      "name": "searchDistributer",
      "outputs": [
        {
          "components": [
            {
              "internalType": "string",
              "name": "productName",
              "type": "string"
            },
            {
              "internalType": "uint256",
              "name": "tokenId",
              "type": "uint256"
            },
            {
              "internalType": "uint256",
              "name": "productQuantity",
              "type": "uint256"
            },
            {
              "internalType": "uint256",
              "name": "productPrice",
              "type": "uint256"
            },
            {
              "internalType": "string",
              "name": "cateory",
              "type": "string"
            },
            {
              "internalType": "address",
              "name": "seller",
              "type": "address"
            }
          ],
          "internalType": "struct SupplyChain.Product",
          "name": "",
          "type": "tuple"
        }
      ],
      "stateMutability": "view",
      "type": "function"
    },
    {
      "inputs": [
        {
          "internalType": "uint256",
          "name": "_tokenID",
          "type": "uint256"
        },
        {
          "internalType": "uint256",
          "name": "_newPrice",
          "type": "uint256"
        }
      ],
      "name": "updateListing",
      "outputs": [],
      "stateMutability": "nonpayable",
      "type": "function"
    }
  ],
  "transactionHash": "0x49dcb625bfb9384319373fa6674685e86c9be26538faae7cc97909ac2689961e",
  "args": [],
  "numDeployments": 1,
  "solcInputHash": "24f61f6e158b9135316f53d575fcdfb3",
  "bytecode": "0x608060405234801561001057600080fd5b50612e16806100206000396000f3fe6080604052600436106100e85760003560e01c806361253a041161008a57806376146252116100595780637614625214610338578063d38ea5bf1461037a578063e7fb74c714610396578063f3f1833e146103b2576100e8565b806361253a04146102385780636681160d14610275578063718abbbc146102b757806373a1bd81146102f6576100e8565b806318cd5ee7116100c657806318cd5ee71461016c57806342d7104b146101a9578063505910fb146101d257806351563f8e1461020f576100e8565b8063010a38f5146100ed5780630179ea88146101185780630b7698c214610141575b600080fd5b3480156100f957600080fd5b506101026103ef565b60405161010f9190612366565b60405180910390f35b34801561012457600080fd5b5061013f600480360381019061013a91906123c1565b6103f8565b005b34801561014d57600080fd5b5061015661063d565b6040516101639190612366565b60405180910390f35b34801561017857600080fd5b50610193600480360381019061018e9190612401565b610643565b6040516101a0919061259e565b60405180910390f35b3480156101b557600080fd5b506101d060048036038101906101cb91906126f5565b610808565b005b3480156101de57600080fd5b506101f960048036038101906101f49190612794565b610a0c565b604051610206919061259e565b60405180910390f35b34801561021b57600080fd5b5061023660048036038101906102319190612401565b610bdc565b005b34801561024457600080fd5b5061025f600480360381019061025a9190612401565b611097565b60405161026c919061281f565b60405180910390f35b34801561028157600080fd5b5061029c60048036038101906102979190612794565b6111c6565b6040516102ae96959493929190612893565b60405180910390f35b3480156102c357600080fd5b506102de60048036038101906102d99190612401565b611348565b6040516102ed93929190612902565b60405180910390f35b34801561030257600080fd5b5061031d60048036038101906103189190612401565b6113d2565b60405161032f96959493929190612893565b60405180910390f35b34801561034457600080fd5b5061035f600480360381019061035a9190612401565b61153e565b60405161037196959493929190612893565b60405180910390f35b610394600480360381019061038f9190612401565b6116aa565b005b6103b060048036038101906103ab9190612401565b611abd565b005b3480156103be57600080fd5b506103d960048036038101906103d49190612401565b61207c565b6040516103e6919061259e565b60405180910390f35b60008054905090565b816000600160008381526020019081526020016000206040518060c001604052908160008201805461042990612968565b80601f016020809104026020016040519081016040528092919081815260200182805461045590612968565b80156104a25780601f10610477576101008083540402835291602001916104a2565b820191906000526020600020905b81548152906001019060200180831161048557829003601f168201915b505050505081526020016001820154815260200160028201548152602001600382015481526020016004820180546104d990612968565b80601f016020809104026020016040519081016040528092919081815260200182805461050590612968565b80156105525780601f1061052757610100808354040283529160200191610552565b820191906000526020600020905b81548152906001019060200180831161053557829003601f168201915b505050505081526020016005820160009054906101000a900473ffffffffffffffffffffffffffffffffffffffff1673ffffffffffffffffffffffffffffffffffffffff1673ffffffffffffffffffffffffffffffffffffffff168152505090503373ffffffffffffffffffffffffffffffffffffffff168160a0015173ffffffffffffffffffffffffffffffffffffffff161461061c576040517f30cd747100000000000000000000000000000000000000000000000000000000815260040160405180910390fd5b82600160008681526020019081526020016000206003018190555050505050565b60005481565b61064b612241565b600260008381526020019081526020016000206040518060c001604052908160008201805461067990612968565b80601f01602080910402602001604051908101604052809291908181526020018280546106a590612968565b80156106f25780601f106106c7576101008083540402835291602001916106f2565b820191906000526020600020905b8154815290600101906020018083116106d557829003601f168201915b5050505050815260200160018201548152602001600282015481526020016003820154815260200160048201805461072990612968565b80601f016020809104026020016040519081016040528092919081815260200182805461075590612968565b80156107a25780601f10610777576101008083540402835291602001916107a2565b820191906000526020600020905b81548152906001019060200180831161078557829003601f168201915b505050505081526020016005820160009054906101000a900473ffffffffffffffffffffffffffffffffffffffff1673ffffffffffffffffffffffffffffffffffffffff1673ffffffffffffffffffffffffffffffffffffffff16815250509050919050565b60008211610842576040517f710871ac00000000000000000000000000000000000000000000000000000000815260040160405180910390fd5b600080815480929190610854906129c8565b91905055506000805490506040518060c001604052808681526020018281526020018581526020018481526020018381526020013373ffffffffffffffffffffffffffffffffffffffff168152506001600083815260200190815260200160002060008201518160000190816108ca9190612bbc565b5060208201518160010155604082015181600201556060820151816003015560808201518160040190816108fe9190612bbc565b5060a08201518160050160006101000a81548173ffffffffffffffffffffffffffffffffffffffff021916908373ffffffffffffffffffffffffffffffffffffffff160217905550905050336003600083815260200190815260200160002060000160006101000a81548173ffffffffffffffffffffffffffffffffffffffff021916908373ffffffffffffffffffffffffffffffffffffffff1602179055503373ffffffffffffffffffffffffffffffffffffffff1681866040516109c49190612cca565b60405180910390207f24b521170273788138099b26cb6928e7f17539aa1b2a9835c98936a755144f3087876040516109fd929190612ce1565b60405180910390a45050505050565b610a14612241565b600482604051610a249190612cca565b90815260200160405180910390206040518060c0016040529081600082018054610a4d90612968565b80601f0160208091040260200160405190810160405280929190818152602001828054610a7990612968565b8015610ac65780601f10610a9b57610100808354040283529160200191610ac6565b820191906000526020600020905b815481529060010190602001808311610aa957829003601f168201915b50505050508152602001600182015481526020016002820154815260200160038201548152602001600482018054610afd90612968565b80601f0160208091040260200160405190810160405280929190818152602001828054610b2990612968565b8015610b765780601f10610b4b57610100808354040283529160200191610b76565b820191906000526020600020905b815481529060010190602001808311610b5957829003601f168201915b505050505081526020016005820160009054906101000a900473ffffffffffffffffffffffffffffffffffffffff1673ffffffffffffffffffffffffffffffffffffffff1673ffffffffffffffffffffffffffffffffffffffff16815250509050919050565b806000600160008381526020019081526020016000206040518060c0016040529081600082018054610c0d90612968565b80601f0160208091040260200160405190810160405280929190818152602001828054610c3990612968565b8015610c865780601f10610c5b57610100808354040283529160200191610c86565b820191906000526020600020905b815481529060010190602001808311610c6957829003601f168201915b50505050508152602001600182015481526020016002820154815260200160038201548152602001600482018054610cbd90612968565b80601f0160208091040260200160405190810160405280929190818152602001828054610ce990612968565b8015610d365780601f10610d0b57610100808354040283529160200191610d36565b820191906000526020600020905b815481529060010190602001808311610d1957829003601f168201915b505050505081526020016005820160009054906101000a900473ffffffffffffffffffffffffffffffffffffffff1673ffffffffffffffffffffffffffffffffffffffff1673ffffffffffffffffffffffffffffffffffffffff168152505090503373ffffffffffffffffffffffffffffffffffffffff168160a0015173ffffffffffffffffffffffffffffffffffffffff1614610e00576040517f30cd747100000000000000000000000000000000000000000000000000000000815260040160405180910390fd5b6000600160008581526020019081526020016000206040518060c0016040529081600082018054610e3090612968565b80601f0160208091040260200160405190810160405280929190818152602001828054610e5c90612968565b8015610ea95780601f10610e7e57610100808354040283529160200191610ea9565b820191906000526020600020905b815481529060010190602001808311610e8c57829003601f168201915b50505050508152602001600182015481526020016002820154815260200160038201548152602001600482018054610ee090612968565b80601f0160208091040260200160405190810160405280929190818152602001828054610f0c90612968565b8015610f595780601f10610f2e57610100808354040283529160200191610f59565b820191906000526020600020905b815481529060010190602001808311610f3c57829003601f168201915b505050505081526020016005820160009054906101000a900473ffffffffffffffffffffffffffffffffffffffff1673ffffffffffffffffffffffffffffffffffffffff1673ffffffffffffffffffffffffffffffffffffffff168152505090506001600085815260200190815260200160002060008082016000610fde919061228d565b600182016000905560028201600090556003820160009055600482016000611006919061228d565b6005820160006101000a81549073ffffffffffffffffffffffffffffffffffffffff021916905550508060a0015173ffffffffffffffffffffffffffffffffffffffff1684826000015160405161105d9190612cca565b60405180910390207f4a7059f7cc563bab4fc554525dfac597ddcc3c19c81e3e51aa862a88daba8cf060405160405180910390a450505050565b61109f6122cd565b600360008381526020019081526020016000206040518060600160405290816000820160009054906101000a900473ffffffffffffffffffffffffffffffffffffffff1673ffffffffffffffffffffffffffffffffffffffff1673ffffffffffffffffffffffffffffffffffffffff1681526020016001820160009054906101000a900473ffffffffffffffffffffffffffffffffffffffff1673ffffffffffffffffffffffffffffffffffffffff1673ffffffffffffffffffffffffffffffffffffffff1681526020016002820160009054906101000a900473ffffffffffffffffffffffffffffffffffffffff1673ffffffffffffffffffffffffffffffffffffffff1673ffffffffffffffffffffffffffffffffffffffff16815250509050919050565b6004818051602081018201805184825260208301602085012081835280955050505050506000915090508060000180546111ff90612968565b80601f016020809104026020016040519081016040528092919081815260200182805461122b90612968565b80156112785780601f1061124d57610100808354040283529160200191611278565b820191906000526020600020905b81548152906001019060200180831161125b57829003601f168201915b50505050509080600101549080600201549080600301549080600401805461129f90612968565b80601f01602080910402602001604051908101604052809291908181526020018280546112cb90612968565b80156113185780601f106112ed57610100808354040283529160200191611318565b820191906000526020600020905b8154815290600101906020018083116112fb57829003601f168201915b5050505050908060050160009054906101000a900473ffffffffffffffffffffffffffffffffffffffff16905086565b60036020528060005260406000206000915090508060000160009054906101000a900473ffffffffffffffffffffffffffffffffffffffff16908060010160009054906101000a900473ffffffffffffffffffffffffffffffffffffffff16908060020160009054906101000a900473ffffffffffffffffffffffffffffffffffffffff16905083565b60016020528060005260406000206000915090508060000180546113f590612968565b80601f016020809104026020016040519081016040528092919081815260200182805461142190612968565b801561146e5780601f106114435761010080835404028352916020019161146e565b820191906000526020600020905b81548152906001019060200180831161145157829003601f168201915b50505050509080600101549080600201549080600301549080600401805461149590612968565b80601f01602080910402602001604051908101604052809291908181526020018280546114c190612968565b801561150e5780601f106114e35761010080835404028352916020019161150e565b820191906000526020600020905b8154815290600101906020018083116114f157829003601f168201915b5050505050908060050160009054906101000a900473ffffffffffffffffffffffffffffffffffffffff16905086565b600260205280600052604060002060009150905080600001805461156190612968565b80601f016020809104026020016040519081016040528092919081815260200182805461158d90612968565b80156115da5780601f106115af576101008083540402835291602001916115da565b820191906000526020600020905b8154815290600101906020018083116115bd57829003601f168201915b50505050509080600101549080600201549080600301549080600401805461160190612968565b80601f016020809104026020016040519081016040528092919081815260200182805461162d90612968565b801561167a5780601f1061164f5761010080835404028352916020019161167a565b820191906000526020600020905b81548152906001019060200180831161165d57829003601f168201915b5050505050908060050160009054906101000a900473ffffffffffffffffffffffffffffffffffffffff16905086565b6000600260008381526020019081526020016000206040518060c00160405290816000820180546116da90612968565b80601f016020809104026020016040519081016040528092919081815260200182805461170690612968565b80156117535780601f1061172857610100808354040283529160200191611753565b820191906000526020600020905b81548152906001019060200180831161173657829003601f168201915b5050505050815260200160018201548152602001600282015481526020016003820154815260200160048201805461178a90612968565b80601f01602080910402602001604051908101604052809291908181526020018280546117b690612968565b80156118035780601f106117d857610100808354040283529160200191611803565b820191906000526020600020905b8154815290600101906020018083116117e657829003601f168201915b505050505081526020016005820160009054906101000a900473ffffffffffffffffffffffffffffffffffffffff1673ffffffffffffffffffffffffffffffffffffffff1673ffffffffffffffffffffffffffffffffffffffff16815250509050806060015134146118a1576040517fa2c2d5c600000000000000000000000000000000000000000000000000000000815260040160405180910390fd5b60026000838152602001908152602001600020600080820160006118c5919061228d565b6001820160009055600282016000905560038201600090556004820160006118ed919061228d565b6005820160006101000a81549073ffffffffffffffffffffffffffffffffffffffff021916905550506004816000015160405161192a9190612cca565b908152602001604051809103902060008082016000611949919061228d565b600182016000905560028201600090556003820160009055600482016000611971919061228d565b6005820160006101000a81549073ffffffffffffffffffffffffffffffffffffffff0219169055505033600360008360200151815260200190815260200160002060020160006101000a81548173ffffffffffffffffffffffffffffffffffffffff021916908373ffffffffffffffffffffffffffffffffffffffff1602179055508060a0015173ffffffffffffffffffffffffffffffffffffffff166108fc82606001519081150290604051600060405180830381858888f19350505050158015611a41573d6000803e3d6000fd5b503373ffffffffffffffffffffffffffffffffffffffff1681602001518260000151604051611a709190612cca565b60405180910390207f8f75ef42bcc8abd2ade616846ab90278dc99078a3682ca82ee53a9bc91bcc52684604001518560600151604051611ab1929190612ce1565b60405180910390a45050565b6000600160008381526020019081526020016000206040518060c0016040529081600082018054611aed90612968565b80601f0160208091040260200160405190810160405280929190818152602001828054611b1990612968565b8015611b665780601f10611b3b57610100808354040283529160200191611b66565b820191906000526020600020905b815481529060010190602001808311611b4957829003601f168201915b50505050508152602001600182015481526020016002820154815260200160038201548152602001600482018054611b9d90612968565b80601f0160208091040260200160405190810160405280929190818152602001828054611bc990612968565b8015611c165780601f10611beb57610100808354040283529160200191611c16565b820191906000526020600020905b815481529060010190602001808311611bf957829003601f168201915b505050505081526020016005820160009054906101000a900473ffffffffffffffffffffffffffffffffffffffff1673ffffffffffffffffffffffffffffffffffffffff1673ffffffffffffffffffffffffffffffffffffffff1681525050905080606001513414611cb4576040517fa2c2d5c600000000000000000000000000000000000000000000000000000000815260040160405180910390fd5b6001600083815260200190815260200160002060008082016000611cd8919061228d565b600182016000905560028201600090556003820160009055600482016000611d00919061228d565b6005820160006101000a81549073ffffffffffffffffffffffffffffffffffffffff021916905550506000606460148360600151611d3e9190612d0a565b611d489190612d7b565b8260600151611d579190612dac565b90506040518060c00160405280836000015181526020018360200151815260200183604001518152602001828152602001836080015181526020013373ffffffffffffffffffffffffffffffffffffffff16815250600260008581526020019081526020016000206000820151816000019081611dd49190612bbc565b506020820151816001015560408201518160020155606082015181600301556080820151816004019081611e089190612bbc565b5060a08201518160050160006101000a81548173ffffffffffffffffffffffffffffffffffffffff021916908373ffffffffffffffffffffffffffffffffffffffff16021790555090505033600360008460200151815260200190815260200160002060010160006101000a81548173ffffffffffffffffffffffffffffffffffffffff021916908373ffffffffffffffffffffffffffffffffffffffff1602179055506040518060c00160405280836000015181526020018360200151815260200183604001518152602001828152602001836080015181526020013373ffffffffffffffffffffffffffffffffffffffff1681525060048360000151604051611f139190612cca565b90815260200160405180910390206000820151816000019081611f369190612bbc565b506020820151816001015560408201518160020155606082015181600301556080820151816004019081611f6a9190612bbc565b5060a08201518160050160006101000a81548173ffffffffffffffffffffffffffffffffffffffff021916908373ffffffffffffffffffffffffffffffffffffffff1602179055509050508160a0015173ffffffffffffffffffffffffffffffffffffffff166108fc83606001519081150290604051600060405180830381858888f19350505050158015612003573d6000803e3d6000fd5b503373ffffffffffffffffffffffffffffffffffffffff16826020015183600001516040516120329190612cca565b60405180910390207ff48874b363574ff057ae8c93e5bf082e6e85fff3181aa3b680ba5f9eb646aef385604001518560405161206f929190612ce1565b60405180910390a4505050565b612084612241565b600160008381526020019081526020016000206040518060c00160405290816000820180546120b290612968565b80601f01602080910402602001604051908101604052809291908181526020018280546120de90612968565b801561212b5780601f106121005761010080835404028352916020019161212b565b820191906000526020600020905b81548152906001019060200180831161210e57829003601f168201915b5050505050815260200160018201548152602001600282015481526020016003820154815260200160048201805461216290612968565b80601f016020809104026020016040519081016040528092919081815260200182805461218e90612968565b80156121db5780601f106121b0576101008083540402835291602001916121db565b820191906000526020600020905b8154815290600101906020018083116121be57829003601f168201915b505050505081526020016005820160009054906101000a900473ffffffffffffffffffffffffffffffffffffffff1673ffffffffffffffffffffffffffffffffffffffff1673ffffffffffffffffffffffffffffffffffffffff16815250509050919050565b6040518060c001604052806060815260200160008152602001600081526020016000815260200160608152602001600073ffffffffffffffffffffffffffffffffffffffff1681525090565b50805461229990612968565b6000825580601f106122ab57506122ca565b601f0160209004906000526020600020908101906122c99190612330565b5b50565b6040518060600160405280600073ffffffffffffffffffffffffffffffffffffffff168152602001600073ffffffffffffffffffffffffffffffffffffffff168152602001600073ffffffffffffffffffffffffffffffffffffffff1681525090565b5b80821115612349576000816000905550600101612331565b5090565b6000819050919050565b6123608161234d565b82525050565b600060208201905061237b6000830184612357565b92915050565b6000604051905090565b600080fd5b600080fd5b61239e8161234d565b81146123a957600080fd5b50565b6000813590506123bb81612395565b92915050565b600080604083850312156123d8576123d761238b565b5b60006123e6858286016123ac565b92505060206123f7858286016123ac565b9150509250929050565b6000602082840312156124175761241661238b565b5b6000612425848285016123ac565b91505092915050565b600081519050919050565b600082825260208201905092915050565b60005b8381101561246857808201518184015260208101905061244d565b60008484015250505050565b6000601f19601f8301169050919050565b60006124908261242e565b61249a8185612439565b93506124aa81856020860161244a565b6124b381612474565b840191505092915050565b6124c78161234d565b82525050565b600073ffffffffffffffffffffffffffffffffffffffff82169050919050565b60006124f8826124cd565b9050919050565b612508816124ed565b82525050565b600060c083016000830151848203600086015261252b8282612485565b915050602083015161254060208601826124be565b50604083015161255360408601826124be565b50606083015161256660608601826124be565b506080830151848203608086015261257e8282612485565b91505060a083015161259360a08601826124ff565b508091505092915050565b600060208201905081810360008301526125b8818461250e565b905092915050565b600080fd5b600080fd5b7f4e487b7100000000000000000000000000000000000000000000000000000000600052604160045260246000fd5b61260282612474565b810181811067ffffffffffffffff82111715612621576126206125ca565b5b80604052505050565b6000612634612381565b905061264082826125f9565b919050565b600067ffffffffffffffff8211156126605761265f6125ca565b5b61266982612474565b9050602081019050919050565b82818337600083830152505050565b600061269861269384612645565b61262a565b9050828152602081018484840111156126b4576126b36125c5565b5b6126bf848285612676565b509392505050565b600082601f8301126126dc576126db6125c0565b5b81356126ec848260208601612685565b91505092915050565b6000806000806080858703121561270f5761270e61238b565b5b600085013567ffffffffffffffff81111561272d5761272c612390565b5b612739878288016126c7565b945050602061274a878288016123ac565b935050604061275b878288016123ac565b925050606085013567ffffffffffffffff81111561277c5761277b612390565b5b612788878288016126c7565b91505092959194509250565b6000602082840312156127aa576127a961238b565b5b600082013567ffffffffffffffff8111156127c8576127c7612390565b5b6127d4848285016126c7565b91505092915050565b6060820160008201516127f360008501826124ff565b50602082015161280660208501826124ff565b50604082015161281960408501826124ff565b50505050565b600060608201905061283460008301846127dd565b92915050565b600082825260208201905092915050565b60006128568261242e565b612860818561283a565b935061287081856020860161244a565b61287981612474565b840191505092915050565b61288d816124ed565b82525050565b600060c08201905081810360008301526128ad818961284b565b90506128bc6020830188612357565b6128c96040830187612357565b6128d66060830186612357565b81810360808301526128e8818561284b565b90506128f760a0830184612884565b979650505050505050565b60006060820190506129176000830186612884565b6129246020830185612884565b6129316040830184612884565b949350505050565b7f4e487b7100000000000000000000000000000000000000000000000000000000600052602260045260246000fd5b6000600282049050600182168061298057607f821691505b60208210810361299357612992612939565b5b50919050565b7f4e487b7100000000000000000000000000000000000000000000000000000000600052601160045260246000fd5b60006129d38261234d565b91507fffffffffffffffffffffffffffffffffffffffffffffffffffffffffffffffff8203612a0557612a04612999565b5b600182019050919050565b60008190508160005260206000209050919050565b60006020601f8301049050919050565b600082821b905092915050565b600060088302612a727fffffffffffffffffffffffffffffffffffffffffffffffffffffffffffffffff82612a35565b612a7c8683612a35565b95508019841693508086168417925050509392505050565b6000819050919050565b6000612ab9612ab4612aaf8461234d565b612a94565b61234d565b9050919050565b6000819050919050565b612ad383612a9e565b612ae7612adf82612ac0565b848454612a42565b825550505050565b600090565b612afc612aef565b612b07818484612aca565b505050565b5b81811015612b2b57612b20600082612af4565b600181019050612b0d565b5050565b601f821115612b7057612b4181612a10565b612b4a84612a25565b81016020851015612b59578190505b612b6d612b6585612a25565b830182612b0c565b50505b505050565b600082821c905092915050565b6000612b9360001984600802612b75565b1980831691505092915050565b6000612bac8383612b82565b9150826002028217905092915050565b612bc58261242e565b67ffffffffffffffff811115612bde57612bdd6125ca565b5b612be88254612968565b612bf3828285612b2f565b600060209050601f831160018114612c265760008415612c14578287015190505b612c1e8582612ba0565b865550612c86565b601f198416612c3486612a10565b60005b82811015612c5c57848901518255600182019150602085019450602081019050612c37565b86831015612c795784890151612c75601f891682612b82565b8355505b6001600288020188555050505b505050505050565b600081905092915050565b6000612ca48261242e565b612cae8185612c8e565b9350612cbe81856020860161244a565b80840191505092915050565b6000612cd68284612c99565b915081905092915050565b6000604082019050612cf66000830185612357565b612d036020830184612357565b9392505050565b6000612d158261234d565b9150612d208361234d565b9250828202612d2e8161234d565b91508282048414831517612d4557612d44612999565b5b5092915050565b7f4e487b7100000000000000000000000000000000000000000000000000000000600052601260045260246000fd5b6000612d868261234d565b9150612d918361234d565b925082612da157612da0612d4c565b5b828204905092915050565b6000612db78261234d565b9150612dc28361234d565b9250828201905080821115612dda57612dd9612999565b5b9291505056fea26469706673582212201be32d26154a957638e976e62b3ae80a8c65f928f573c3b6447278a00993669b64736f6c63430008110033",
  "devdoc": {
    "kind": "dev",
    "methods": {
      "buyItem(uint256)": {
        "params": {
          "_tokenID": "- The token id of the product to be bought"
        }
      },
      "cancelItem(uint256)": {
        "params": {
          "_tokenID": "- The token id of the product to be canceled"
        }
      },
      "listItem(string,uint256,uint256,string)": {
        "params": {
          "_ProductName": "- Name of the product",
          "_price": "price of the product to be sold",
          "_quantity": "- Quantity of product to be sold"
        }
      },
      "purchaseItem(uint256)": {
        "params": {
          "_tokenID": "- The token id of the product to be bought"
        }
      },
      "updateListing(uint256,uint256)": {
        "params": {
          "_newPrice": "- The price to which you want to update it.",
          "_tokenID": "- The token id of the product to be updated"
        }
      }
    },
    "version": 1
  },
  "userdoc": {
    "kind": "user",
    "methods": {
      "buyItem(uint256)": {
        "notice": "Buy the product from farmer and add it into distributer's inventory"
      },
      "cancelItem(uint256)": {
        "notice": "Cancel the listing of a product"
      },
      "listItem(string,uint256,uint256,string)": {
        "notice": "List the product details on the marketplace"
      },
      "purchaseItem(uint256)": {
        "notice": "Purchase the item from distributer"
      },
      "updateListing(uint256,uint256)": {
        "notice": "Update the price of an already listed product"
      }
    },
    "version": 1
  },
  "storageLayout": {
    "storage": [
      {
        "astId": 9,
        "contract": "contracts/SupplyChain.sol:SupplyChain",
        "label": "s_tokenIDs",
        "offset": 0,
        "slot": "0",
        "type": "t_uint256"
      },
      {
        "astId": 34,
        "contract": "contracts/SupplyChain.sol:SupplyChain",
        "label": "s_farmerInventory",
        "offset": 0,
        "slot": "1",
        "type": "t_mapping(t_uint256,t_struct(Product)22_storage)"
      },
      {
        "astId": 39,
        "contract": "contracts/SupplyChain.sol:SupplyChain",
        "label": "s_distributerInventory",
        "offset": 0,
        "slot": "2",
        "type": "t_mapping(t_uint256,t_struct(Product)22_storage)"
      },
      {
        "astId": 44,
        "contract": "contracts/SupplyChain.sol:SupplyChain",
        "label": "s_productOwners",
        "offset": 0,
        "slot": "3",
        "type": "t_mapping(t_uint256,t_struct(Owners)29_storage)"
      },
      {
        "astId": 49,
        "contract": "contracts/SupplyChain.sol:SupplyChain",
        "label": "s_productDistributer",
        "offset": 0,
        "slot": "4",
        "type": "t_mapping(t_string_memory_ptr,t_struct(Product)22_storage)"
      }
    ],
    "types": {
      "t_address": {
        "encoding": "inplace",
        "label": "address",
        "numberOfBytes": "20"
      },
      "t_mapping(t_string_memory_ptr,t_struct(Product)22_storage)": {
        "encoding": "mapping",
        "key": "t_string_memory_ptr",
        "label": "mapping(string => struct SupplyChain.Product)",
        "numberOfBytes": "32",
        "value": "t_struct(Product)22_storage"
      },
      "t_mapping(t_uint256,t_struct(Owners)29_storage)": {
        "encoding": "mapping",
        "key": "t_uint256",
        "label": "mapping(uint256 => struct SupplyChain.Owners)",
        "numberOfBytes": "32",
        "value": "t_struct(Owners)29_storage"
      },
      "t_mapping(t_uint256,t_struct(Product)22_storage)": {
        "encoding": "mapping",
        "key": "t_uint256",
        "label": "mapping(uint256 => struct SupplyChain.Product)",
        "numberOfBytes": "32",
        "value": "t_struct(Product)22_storage"
      },
      "t_string_memory_ptr": {
        "encoding": "bytes",
        "label": "string",
        "numberOfBytes": "32"
      },
      "t_string_storage": {
        "encoding": "bytes",
        "label": "string",
        "numberOfBytes": "32"
      },
      "t_struct(Owners)29_storage": {
        "encoding": "inplace",
        "label": "struct SupplyChain.Owners",
        "members": [
          {
            "astId": 24,
            "contract": "contracts/SupplyChain.sol:SupplyChain",
            "label": "farmerAddress",
            "offset": 0,
            "slot": "0",
            "type": "t_address"
          },
          {
            "astId": 26,
            "contract": "contracts/SupplyChain.sol:SupplyChain",
            "label": "distributerAddress",
            "offset": 0,
            "slot": "1",
            "type": "t_address"
          },
          {
            "astId": 28,
            "contract": "contracts/SupplyChain.sol:SupplyChain",
            "label": "retailerAddress",
            "offset": 0,
            "slot": "2",
            "type": "t_address"
          }
        ],
        "numberOfBytes": "96"
      },
      "t_struct(Product)22_storage": {
        "encoding": "inplace",
        "label": "struct SupplyChain.Product",
        "members": [
          {
            "astId": 11,
            "contract": "contracts/SupplyChain.sol:SupplyChain",
            "label": "productName",
            "offset": 0,
            "slot": "0",
            "type": "t_string_storage"
          },
          {
            "astId": 13,
            "contract": "contracts/SupplyChain.sol:SupplyChain",
            "label": "tokenId",
            "offset": 0,
            "slot": "1",
            "type": "t_uint256"
          },
          {
            "astId": 15,
            "contract": "contracts/SupplyChain.sol:SupplyChain",
            "label": "productQuantity",
            "offset": 0,
            "slot": "2",
            "type": "t_uint256"
          },
          {
            "astId": 17,
            "contract": "contracts/SupplyChain.sol:SupplyChain",
            "label": "productPrice",
            "offset": 0,
            "slot": "3",
            "type": "t_uint256"
          },
          {
            "astId": 19,
            "contract": "contracts/SupplyChain.sol:SupplyChain",
            "label": "cateory",
            "offset": 0,
            "slot": "4",
            "type": "t_string_storage"
          },
          {
            "astId": 21,
            "contract": "contracts/SupplyChain.sol:SupplyChain",
            "label": "seller",
            "offset": 0,
            "slot": "5",
            "type": "t_address"
          }
        ],
        "numberOfBytes": "192"
      },
      "t_uint256": {
        "encoding": "inplace",
        "label": "uint256",
        "numberOfBytes": "32"
      }
    }
  }
}