{
  "address": "0x653133096c60B00A55F898a746eeB3be3F94114d",
  "abi": [
    {
      "inputs": [],
      "name": "NotListed",
      "type": "error"
    },
    {
      "inputs": [],
      "name": "NotOwner",
      "type": "error"
    },
    {
      "inputs": [],
      "name": "PriceMustNotZero",
      "type": "error"
    },
    {
      "inputs": [],
      "name": "PriceNotMet",
      "type": "error"
    },
    {
      "anonymous": false,
      "inputs": [
        {
          "indexed": true,
          "internalType": "string",
          "name": "productName",
          "type": "string"
        },
        {
          "indexed": true,
          "internalType": "uint256",
          "name": "tokenId",
          "type": "uint256"
        },
        {
          "indexed": false,
          "internalType": "uint256",
          "name": "productQuantity",
          "type": "uint256"
        },
        {
          "indexed": false,
          "internalType": "uint256",
          "name": "productPrice",
          "type": "uint256"
        },
        {
          "indexed": true,
          "internalType": "address",
          "name": "seller",
          "type": "address"
        }
      ],
      "name": "ItemBough",
      "type": "event"
    },
    {
      "anonymous": false,
      "inputs": [
        {
          "indexed": true,
          "internalType": "string",
          "name": "productName",
          "type": "string"
        },
        {
          "indexed": true,
          "internalType": "uint256",
          "name": "tokenId",
          "type": "uint256"
        },
        {
          "indexed": true,
          "internalType": "address",
          "name": "seller",
          "type": "address"
        }
      ],
      "name": "ItemCanceled",
      "type": "event"
    },
    {
      "anonymous": false,
      "inputs": [
        {
          "indexed": true,
          "internalType": "string",
          "name": "productName",
          "type": "string"
        },
        {
          "indexed": true,
          "internalType": "uint256",
          "name": "tokenId",
          "type": "uint256"
        },
        {
          "indexed": false,
          "internalType": "uint256",
          "name": "productQuantity",
          "type": "uint256"
        },
        {
          "indexed": false,
          "internalType": "uint256",
          "name": "productPrice",
          "type": "uint256"
        },
        {
          "indexed": true,
          "internalType": "address",
          "name": "seller",
          "type": "address"
        }
      ],
      "name": "ItemListed",
      "type": "event"
    },
    {
      "inputs": [
        {
          "internalType": "uint256",
          "name": "_tokenID",
          "type": "uint256"
        }
      ],
      "name": "buyItem",
      "outputs": [],
      "stateMutability": "payable",
      "type": "function"
    },
    {
      "inputs": [
        {
          "internalType": "uint256",
          "name": "_tokenID",
          "type": "uint256"
        }
      ],
      "name": "cancelItem",
      "outputs": [],
      "stateMutability": "nonpayable",
      "type": "function"
    },
    {
      "inputs": [
        {
          "internalType": "uint256",
          "name": "_tokenID",
          "type": "uint256"
        }
      ],
      "name": "getAllOwners",
      "outputs": [
        {
          "components": [
            {
              "internalType": "address",
              "name": "farmerAddress",
              "type": "address"
            },
            {
              "internalType": "address",
              "name": "distributerAddress",
              "type": "address"
            },
            {
              "internalType": "address",
              "name": "retailerAddress",
              "type": "address"
            }
          ],
          "internalType": "struct SupplyChain.Owners",
          "name": "",
          "type": "tuple"
        }
      ],
      "stateMutability": "view",
      "type": "function"
    },
    {
      "inputs": [
        {
          "internalType": "uint256",
          "name": "_tokenID",
          "type": "uint256"
        }
      ],
      "name": "getDistributerInventory",
      "outputs": [
        {
          "components": [
            {
              "internalType": "string",
              "name": "productName",
              "type": "string"
            },
            {
              "internalType": "uint256",
              "name": "tokenId",
              "type": "uint256"
            },
            {
              "internalType": "uint256",
              "name": "productQuantity",
              "type": "uint256"
            },
            {
              "internalType": "uint256",
              "name": "productPrice",
              "type": "uint256"
            },
            {
              "internalType": "address",
              "name": "seller",
              "type": "address"
            }
          ],
          "internalType": "struct SupplyChain.Product",
          "name": "",
          "type": "tuple"
        }
      ],
      "stateMutability": "view",
      "type": "function"
    },
    {
      "inputs": [
        {
          "internalType": "uint256",
          "name": "_tokenID",
          "type": "uint256"
        }
      ],
      "name": "getFarmersListing",
      "outputs": [
        {
          "components": [
            {
              "internalType": "string",
              "name": "productName",
              "type": "string"
            },
            {
              "internalType": "uint256",
              "name": "tokenId",
              "type": "uint256"
            },
            {
              "internalType": "uint256",
              "name": "productQuantity",
              "type": "uint256"
            },
            {
              "internalType": "uint256",
              "name": "productPrice",
              "type": "uint256"
            },
            {
              "internalType": "address",
              "name": "seller",
              "type": "address"
            }
          ],
          "internalType": "struct SupplyChain.Product",
          "name": "",
          "type": "tuple"
        }
      ],
      "stateMutability": "view",
      "type": "function"
    },
    {
      "inputs": [
        {
          "internalType": "string",
          "name": "_ProductName",
          "type": "string"
        }
      ],
      "name": "getTotalQuantity",
      "outputs": [
        {
          "components": [
            {
              "internalType": "string",
              "name": "productName",
              "type": "string"
            },
            {
              "internalType": "uint256",
              "name": "tokenId",
              "type": "uint256"
            },
            {
              "internalType": "uint256",
              "name": "productQuantity",
              "type": "uint256"
            },
            {
              "internalType": "uint256",
              "name": "productPrice",
              "type": "uint256"
            },
            {
              "internalType": "address",
              "name": "seller",
              "type": "address"
            }
          ],
          "internalType": "struct SupplyChain.Product",
          "name": "",
          "type": "tuple"
        }
      ],
      "stateMutability": "view",
      "type": "function"
    },
    {
      "inputs": [
        {
          "internalType": "string",
          "name": "_ProductName",
          "type": "string"
        },
        {
          "internalType": "uint256",
          "name": "_quantity",
          "type": "uint256"
        },
        {
          "internalType": "uint256",
          "name": "_price",
          "type": "uint256"
        }
      ],
      "name": "listItem",
      "outputs": [],
      "stateMutability": "nonpayable",
      "type": "function"
    },
    {
      "inputs": [
        {
          "internalType": "uint256",
          "name": "_tokenID",
          "type": "uint256"
        }
      ],
      "name": "purchaseItem",
      "outputs": [],
      "stateMutability": "payable",
      "type": "function"
    },
    {
      "inputs": [
        {
          "internalType": "uint256",
          "name": "",
          "type": "uint256"
        }
      ],
      "name": "s_distributerInventory",
      "outputs": [
        {
          "internalType": "string",
          "name": "productName",
          "type": "string"
        },
        {
          "internalType": "uint256",
          "name": "tokenId",
          "type": "uint256"
        },
        {
          "internalType": "uint256",
          "name": "productQuantity",
          "type": "uint256"
        },
        {
          "internalType": "uint256",
          "name": "productPrice",
          "type": "uint256"
        },
        {
          "internalType": "address",
          "name": "seller",
          "type": "address"
        }
      ],
      "stateMutability": "view",
      "type": "function"
    },
    {
      "inputs": [
        {
          "internalType": "uint256",
          "name": "",
          "type": "uint256"
        }
      ],
      "name": "s_farmerInventory",
      "outputs": [
        {
          "internalType": "string",
          "name": "productName",
          "type": "string"
        },
        {
          "internalType": "uint256",
          "name": "tokenId",
          "type": "uint256"
        },
        {
          "internalType": "uint256",
          "name": "productQuantity",
          "type": "uint256"
        },
        {
          "internalType": "uint256",
          "name": "productPrice",
          "type": "uint256"
        },
        {
          "internalType": "address",
          "name": "seller",
          "type": "address"
        }
      ],
      "stateMutability": "view",
      "type": "function"
    },
    {
      "inputs": [
        {
          "internalType": "string",
          "name": "",
          "type": "string"
        }
      ],
      "name": "s_productDistributer",
      "outputs": [
        {
          "internalType": "string",
          "name": "productName",
          "type": "string"
        },
        {
          "internalType": "uint256",
          "name": "tokenId",
          "type": "uint256"
        },
        {
          "internalType": "uint256",
          "name": "productQuantity",
          "type": "uint256"
        },
        {
          "internalType": "uint256",
          "name": "productPrice",
          "type": "uint256"
        },
        {
          "internalType": "address",
          "name": "seller",
          "type": "address"
        }
      ],
      "stateMutability": "view",
      "type": "function"
    },
    {
      "inputs": [
        {
          "internalType": "uint256",
          "name": "",
          "type": "uint256"
        }
      ],
      "name": "s_productOwners",
      "outputs": [
        {
          "internalType": "address",
          "name": "farmerAddress",
          "type": "address"
        },
        {
          "internalType": "address",
          "name": "distributerAddress",
          "type": "address"
        },
        {
          "internalType": "address",
          "name": "retailerAddress",
          "type": "address"
        }
      ],
      "stateMutability": "view",
      "type": "function"
    },
    {
      "inputs": [
        {
          "internalType": "string",
          "name": "",
          "type": "string"
        }
      ],
      "name": "s_totalDistibuterInventory",
      "outputs": [
        {
          "internalType": "string",
          "name": "productName",
          "type": "string"
        },
        {
          "internalType": "uint256",
          "name": "tokenId",
          "type": "uint256"
        },
        {
          "internalType": "uint256",
          "name": "productQuantity",
          "type": "uint256"
        },
        {
          "internalType": "uint256",
          "name": "productPrice",
          "type": "uint256"
        },
        {
          "internalType": "address",
          "name": "seller",
          "type": "address"
        }
      ],
      "stateMutability": "view",
      "type": "function"
    },
    {
      "inputs": [
        {
          "internalType": "string",
          "name": "_productName",
          "type": "string"
        }
      ],
      "name": "searchDistributer",
      "outputs": [
        {
          "components": [
            {
              "internalType": "string",
              "name": "productName",
              "type": "string"
            },
            {
              "internalType": "uint256",
              "name": "tokenId",
              "type": "uint256"
            },
            {
              "internalType": "uint256",
              "name": "productQuantity",
              "type": "uint256"
            },
            {
              "internalType": "uint256",
              "name": "productPrice",
              "type": "uint256"
            },
            {
              "internalType": "address",
              "name": "seller",
              "type": "address"
            }
          ],
          "internalType": "struct SupplyChain.Product",
          "name": "",
          "type": "tuple"
        }
      ],
      "stateMutability": "view",
      "type": "function"
    },
    {
      "inputs": [
        {
          "internalType": "uint256",
          "name": "_tokenID",
          "type": "uint256"
        },
        {
          "internalType": "uint256",
          "name": "_newPrice",
          "type": "uint256"
        }
      ],
      "name": "updateListing",
      "outputs": [],
      "stateMutability": "nonpayable",
      "type": "function"
    }
  ],
  "transactionHash": "0x2d5c9edcc371cf97f5283863fe7bf2b71a9658b2f78ad76d19945d25ef6bdfd7",
  "args": [],
  "numDeployments": 1,
  "solcInputHash": "05015d27672325213fb4552ad2bfc865",
  "bytecode": "0x608060405234801561001057600080fd5b50612f5c806100206000396000f3fe6080604052600436106100e85760003560e01c806373a1bd811161008a578063d38ea5bf11610059578063d38ea5bf14610376578063e7fb74c714610392578063f1766279146103ae578063f3f1833e146103d7576100e8565b806373a1bd811461027657806376146252146102b7578063874fae9d146102f8578063a99b965f14610335576100e8565b806351563f8e116100c657806351563f8e1461019057806361253a04146101b95780636681160d146101f6578063718abbbc14610237576100e8565b80630179ea88146100ed57806318cd5ee714610116578063505910fb14610153575b600080fd5b3480156100f957600080fd5b50610114600480360381019061010f91906124d1565b610414565b005b34801561012257600080fd5b5061013d60048036038101906101389190612511565b610730565b60405161014a9190612694565b60405180910390f35b34801561015f57600080fd5b5061017a600480360381019061017591906127eb565b610863565b6040516101879190612694565b60405180910390f35b34801561019c57600080fd5b506101b760048036038101906101b29190612511565b6109a1565b005b3480156101c557600080fd5b506101e060048036038101906101db9190612511565b610e91565b6040516101ed9190612876565b60405180910390f35b34801561020257600080fd5b5061021d600480360381019061021891906127eb565b610fc0565b60405161022e9594939291906128f9565b60405180910390f35b34801561024357600080fd5b5061025e60048036038101906102599190612511565b6110b4565b60405161026d93929190612953565b60405180910390f35b34801561028257600080fd5b5061029d60048036038101906102989190612511565b61113e565b6040516102ae9594939291906128f9565b60405180910390f35b3480156102c357600080fd5b506102de60048036038101906102d99190612511565b61121c565b6040516102ef9594939291906128f9565b60405180910390f35b34801561030457600080fd5b5061031f600480360381019061031a91906127eb565b6112fa565b60405161032c9190612694565b60405180910390f35b34801561034157600080fd5b5061035c600480360381019061035791906127eb565b611438565b60405161036d9594939291906128f9565b60405180910390f35b610390600480360381019061038b9190612511565b61152c565b005b6103ac60048036038101906103a79190612511565b6118b3565b005b3480156103ba57600080fd5b506103d560048036038101906103d0919061298a565b612049565b005b3480156103e357600080fd5b506103fe60048036038101906103f99190612511565b61222b565b60405161040b9190612694565b60405180910390f35b816000600160008381526020019081526020016000206040518060a001604052908160008201805461044590612a28565b80601f016020809104026020016040519081016040528092919081815260200182805461047190612a28565b80156104be5780601f10610493576101008083540402835291602001916104be565b820191906000526020600020905b8154815290600101906020018083116104a157829003601f168201915b505050505081526020016001820154815260200160028201548152602001600382015481526020016004820160009054906101000a900473ffffffffffffffffffffffffffffffffffffffff1673ffffffffffffffffffffffffffffffffffffffff1673ffffffffffffffffffffffffffffffffffffffff16815250509050600081606001511161057b576040517f665c1c5700000000000000000000000000000000000000000000000000000000815260040160405180910390fd5b836000600160008381526020019081526020016000206040518060a00160405290816000820180546105ac90612a28565b80601f01602080910402602001604051908101604052809291908181526020018280546105d890612a28565b80156106255780601f106105fa57610100808354040283529160200191610625565b820191906000526020600020905b81548152906001019060200180831161060857829003601f168201915b505050505081526020016001820154815260200160028201548152602001600382015481526020016004820160009054906101000a900473ffffffffffffffffffffffffffffffffffffffff1673ffffffffffffffffffffffffffffffffffffffff1673ffffffffffffffffffffffffffffffffffffffff168152505090503373ffffffffffffffffffffffffffffffffffffffff16816080015173ffffffffffffffffffffffffffffffffffffffff161461070d576040517f30cd747100000000000000000000000000000000000000000000000000000000815260040160405180910390fd5b846001600088815260200190815260200160002060030181905550505050505050565b610738612382565b600260008381526020019081526020016000206040518060a001604052908160008201805461076690612a28565b80601f016020809104026020016040519081016040528092919081815260200182805461079290612a28565b80156107df5780601f106107b4576101008083540402835291602001916107df565b820191906000526020600020905b8154815290600101906020018083116107c257829003601f168201915b505050505081526020016001820154815260200160028201548152602001600382015481526020016004820160009054906101000a900473ffffffffffffffffffffffffffffffffffffffff1673ffffffffffffffffffffffffffffffffffffffff1673ffffffffffffffffffffffffffffffffffffffff16815250509050919050565b61086b612382565b60058260405161087b9190612a95565b90815260200160405180910390206040518060a00160405290816000820180546108a490612a28565b80601f01602080910402602001604051908101604052809291908181526020018280546108d090612a28565b801561091d5780601f106108f25761010080835404028352916020019161091d565b820191906000526020600020905b81548152906001019060200180831161090057829003601f168201915b505050505081526020016001820154815260200160028201548152602001600382015481526020016004820160009054906101000a900473ffffffffffffffffffffffffffffffffffffffff1673ffffffffffffffffffffffffffffffffffffffff1673ffffffffffffffffffffffffffffffffffffffff16815250509050919050565b806000600160008381526020019081526020016000206040518060a00160405290816000820180546109d290612a28565b80601f01602080910402602001604051908101604052809291908181526020018280546109fe90612a28565b8015610a4b5780601f10610a2057610100808354040283529160200191610a4b565b820191906000526020600020905b815481529060010190602001808311610a2e57829003601f168201915b505050505081526020016001820154815260200160028201548152602001600382015481526020016004820160009054906101000a900473ffffffffffffffffffffffffffffffffffffffff1673ffffffffffffffffffffffffffffffffffffffff1673ffffffffffffffffffffffffffffffffffffffff168152505090506000816060015111610b08576040517f665c1c5700000000000000000000000000000000000000000000000000000000815260040160405180910390fd5b826000600160008381526020019081526020016000206040518060a0016040529081600082018054610b3990612a28565b80601f0160208091040260200160405190810160405280929190818152602001828054610b6590612a28565b8015610bb25780601f10610b8757610100808354040283529160200191610bb2565b820191906000526020600020905b815481529060010190602001808311610b9557829003601f168201915b505050505081526020016001820154815260200160028201548152602001600382015481526020016004820160009054906101000a900473ffffffffffffffffffffffffffffffffffffffff1673ffffffffffffffffffffffffffffffffffffffff1673ffffffffffffffffffffffffffffffffffffffff168152505090503373ffffffffffffffffffffffffffffffffffffffff16816080015173ffffffffffffffffffffffffffffffffffffffff1614610c9a576040517f30cd747100000000000000000000000000000000000000000000000000000000815260040160405180910390fd5b6000600160008781526020019081526020016000206040518060a0016040529081600082018054610cca90612a28565b80601f0160208091040260200160405190810160405280929190818152602001828054610cf690612a28565b8015610d435780601f10610d1857610100808354040283529160200191610d43565b820191906000526020600020905b815481529060010190602001808311610d2657829003601f168201915b505050505081526020016001820154815260200160028201548152602001600382015481526020016004820160009054906101000a900473ffffffffffffffffffffffffffffffffffffffff1673ffffffffffffffffffffffffffffffffffffffff1673ffffffffffffffffffffffffffffffffffffffff168152505090506001600087815260200190815260200160002060008082016000610de691906123c7565b6001820160009055600282016000905560038201600090556004820160006101000a81549073ffffffffffffffffffffffffffffffffffffffff02191690555050806080015173ffffffffffffffffffffffffffffffffffffffff16868260000151604051610e559190612a95565b60405180910390207f4a7059f7cc563bab4fc554525dfac597ddcc3c19c81e3e51aa862a88daba8cf060405160405180910390a4505050505050565b610e99612407565b600460008381526020019081526020016000206040518060600160405290816000820160009054906101000a900473ffffffffffffffffffffffffffffffffffffffff1673ffffffffffffffffffffffffffffffffffffffff1673ffffffffffffffffffffffffffffffffffffffff1681526020016001820160009054906101000a900473ffffffffffffffffffffffffffffffffffffffff1673ffffffffffffffffffffffffffffffffffffffff1673ffffffffffffffffffffffffffffffffffffffff1681526020016002820160009054906101000a900473ffffffffffffffffffffffffffffffffffffffff1673ffffffffffffffffffffffffffffffffffffffff1673ffffffffffffffffffffffffffffffffffffffff16815250509050919050565b600581805160208101820180518482526020830160208501208183528095505050505050600091509050806000018054610ff990612a28565b80601f016020809104026020016040519081016040528092919081815260200182805461102590612a28565b80156110725780601f1061104757610100808354040283529160200191611072565b820191906000526020600020905b81548152906001019060200180831161105557829003601f168201915b5050505050908060010154908060020154908060030154908060040160009054906101000a900473ffffffffffffffffffffffffffffffffffffffff16905085565b60046020528060005260406000206000915090508060000160009054906101000a900473ffffffffffffffffffffffffffffffffffffffff16908060010160009054906101000a900473ffffffffffffffffffffffffffffffffffffffff16908060020160009054906101000a900473ffffffffffffffffffffffffffffffffffffffff16905083565b600160205280600052604060002060009150905080600001805461116190612a28565b80601f016020809104026020016040519081016040528092919081815260200182805461118d90612a28565b80156111da5780601f106111af576101008083540402835291602001916111da565b820191906000526020600020905b8154815290600101906020018083116111bd57829003601f168201915b5050505050908060010154908060020154908060030154908060040160009054906101000a900473ffffffffffffffffffffffffffffffffffffffff16905085565b600260205280600052604060002060009150905080600001805461123f90612a28565b80601f016020809104026020016040519081016040528092919081815260200182805461126b90612a28565b80156112b85780601f1061128d576101008083540402835291602001916112b8565b820191906000526020600020905b81548152906001019060200180831161129b57829003601f168201915b5050505050908060010154908060020154908060030154908060040160009054906101000a900473ffffffffffffffffffffffffffffffffffffffff16905085565b611302612382565b6003826040516113129190612a95565b90815260200160405180910390206040518060a001604052908160008201805461133b90612a28565b80601f016020809104026020016040519081016040528092919081815260200182805461136790612a28565b80156113b45780601f10611389576101008083540402835291602001916113b4565b820191906000526020600020905b81548152906001019060200180831161139757829003601f168201915b505050505081526020016001820154815260200160028201548152602001600382015481526020016004820160009054906101000a900473ffffffffffffffffffffffffffffffffffffffff1673ffffffffffffffffffffffffffffffffffffffff1673ffffffffffffffffffffffffffffffffffffffff16815250509050919050565b60038180516020810182018051848252602083016020850120818352809550505050505060009150905080600001805461147190612a28565b80601f016020809104026020016040519081016040528092919081815260200182805461149d90612a28565b80156114ea5780601f106114bf576101008083540402835291602001916114ea565b820191906000526020600020905b8154815290600101906020018083116114cd57829003601f168201915b5050505050908060010154908060020154908060030154908060040160009054906101000a900473ffffffffffffffffffffffffffffffffffffffff16905085565b6000600260008381526020019081526020016000206040518060a001604052908160008201805461155c90612a28565b80601f016020809104026020016040519081016040528092919081815260200182805461158890612a28565b80156115d55780601f106115aa576101008083540402835291602001916115d5565b820191906000526020600020905b8154815290600101906020018083116115b857829003601f168201915b505050505081526020016001820154815260200160028201548152602001600382015481526020016004820160009054906101000a900473ffffffffffffffffffffffffffffffffffffffff1673ffffffffffffffffffffffffffffffffffffffff1673ffffffffffffffffffffffffffffffffffffffff16815250509050600081606001511015611693576040517f665c1c5700000000000000000000000000000000000000000000000000000000815260040160405180910390fd5b806060015134146116d0576040517fa2c2d5c600000000000000000000000000000000000000000000000000000000815260040160405180910390fd5b60026000838152602001908152602001600020600080820160006116f491906123c7565b6001820160009055600282016000905560038201600090556004820160006101000a81549073ffffffffffffffffffffffffffffffffffffffff0219169055505080604001516003826000015160405161174e9190612a95565b90815260200160405180910390206002015461176a9190612adb565b6003826000015160405161177e9190612a95565b908152602001604051809103902060020181905550600581600001516040516117a79190612a95565b9081526020016040518091039020600080820160006117c691906123c7565b6001820160009055600282016000905560038201600090556004820160006101000a81549073ffffffffffffffffffffffffffffffffffffffff0219169055505033600460008360200151815260200190815260200160002060020160006101000a81548173ffffffffffffffffffffffffffffffffffffffff021916908373ffffffffffffffffffffffffffffffffffffffff160217905550806080015173ffffffffffffffffffffffffffffffffffffffff166108fc82606001519081150290604051600060405180830381858888f193505050501580156118ae573d6000803e3d6000fd5b505050565b806000600160008381526020019081526020016000206040518060a00160405290816000820180546118e490612a28565b80601f016020809104026020016040519081016040528092919081815260200182805461191090612a28565b801561195d5780601f106119325761010080835404028352916020019161195d565b820191906000526020600020905b81548152906001019060200180831161194057829003601f168201915b505050505081526020016001820154815260200160028201548152602001600382015481526020016004820160009054906101000a900473ffffffffffffffffffffffffffffffffffffffff1673ffffffffffffffffffffffffffffffffffffffff1673ffffffffffffffffffffffffffffffffffffffff168152505090506000816060015111611a1a576040517f665c1c5700000000000000000000000000000000000000000000000000000000815260040160405180910390fd5b6000600160008581526020019081526020016000206040518060a0016040529081600082018054611a4a90612a28565b80601f0160208091040260200160405190810160405280929190818152602001828054611a7690612a28565b8015611ac35780601f10611a9857610100808354040283529160200191611ac3565b820191906000526020600020905b815481529060010190602001808311611aa657829003601f168201915b505050505081526020016001820154815260200160028201548152602001600382015481526020016004820160009054906101000a900473ffffffffffffffffffffffffffffffffffffffff1673ffffffffffffffffffffffffffffffffffffffff1673ffffffffffffffffffffffffffffffffffffffff1681525050905080606001513414611b7f576040517fa2c2d5c600000000000000000000000000000000000000000000000000000000815260040160405180910390fd5b6001600085815260200190815260200160002060008082016000611ba391906123c7565b6001820160009055600282016000905560038201600090556004820160006101000a81549073ffffffffffffffffffffffffffffffffffffffff021916905550506000606460148360600151611bf99190612b0f565b611c039190612b80565b8260600151611c129190612bb1565b90506040518060a001604052808360000151815260200183602001518152602001836040015181526020018281526020013373ffffffffffffffffffffffffffffffffffffffff16815250600260008781526020019081526020016000206000820151816000019081611c859190612d91565b5060208201518160010155604082015181600201556060820151816003015560808201518160040160006101000a81548173ffffffffffffffffffffffffffffffffffffffff021916908373ffffffffffffffffffffffffffffffffffffffff1602179055509050506040518060a001604052808360000151815260200183602001518152602001836040015181526020018281526020013373ffffffffffffffffffffffffffffffffffffffff1681525060038360000151604051611d4b9190612a95565b90815260200160405180910390206000820151816000019081611d6e9190612d91565b5060208201518160010155604082015181600201556060820151816003015560808201518160040160006101000a81548173ffffffffffffffffffffffffffffffffffffffff021916908373ffffffffffffffffffffffffffffffffffffffff16021790555090505033600460008460200151815260200190815260200160002060010160006101000a81548173ffffffffffffffffffffffffffffffffffffffff021916908373ffffffffffffffffffffffffffffffffffffffff1602179055506040518060a001604052808360000151815260200183602001518152602001836040015181526020018281526020013373ffffffffffffffffffffffffffffffffffffffff1681525060058360000151604051611e8d9190612a95565b90815260200160405180910390206000820151816000019081611eb09190612d91565b5060208201518160010155604082015181600201556060820151816003015560808201518160040160006101000a81548173ffffffffffffffffffffffffffffffffffffffff021916908373ffffffffffffffffffffffffffffffffffffffff160217905550905050816080015173ffffffffffffffffffffffffffffffffffffffff166108fc83606001519081150290604051600060405180830381858888f19350505050158015611f67573d6000803e3d6000fd5b508160000151604051602001611f7d9190612a95565b6040516020818303038152906040528051906020012060038360000151604051611fa79190612a95565b9081526020016040518091039020600001604051602001611fc89190612ee6565b604051602081830303815290604052805190602001200361204257816040015160038360000151604051611ffc9190612a95565b9081526020016040518091039020600201546120189190612bb1565b6003836000015160405161202c9190612a95565b9081526020016040518091039020600201819055505b5050505050565b60008111612083576040517f710871ac00000000000000000000000000000000000000000000000000000000815260040160405180910390fd5b61208d600061235e565b60006120996000612374565b90506040518060a001604052808581526020018281526020018481526020018381526020013373ffffffffffffffffffffffffffffffffffffffff168152506001600083815260200190815260200160002060008201518160000190816121009190612d91565b5060208201518160010155604082015181600201556060820151816003015560808201518160040160006101000a81548173ffffffffffffffffffffffffffffffffffffffff021916908373ffffffffffffffffffffffffffffffffffffffff160217905550905050336004600083815260200190815260200160002060000160006101000a81548173ffffffffffffffffffffffffffffffffffffffff021916908373ffffffffffffffffffffffffffffffffffffffff1602179055503373ffffffffffffffffffffffffffffffffffffffff1681856040516121e49190612a95565b60405180910390207f24b521170273788138099b26cb6928e7f17539aa1b2a9835c98936a755144f30868660405161221d929190612efd565b60405180910390a450505050565b612233612382565b600160008381526020019081526020016000206040518060a001604052908160008201805461226190612a28565b80601f016020809104026020016040519081016040528092919081815260200182805461228d90612a28565b80156122da5780601f106122af576101008083540402835291602001916122da565b820191906000526020600020905b8154815290600101906020018083116122bd57829003601f168201915b505050505081526020016001820154815260200160028201548152602001600382015481526020016004820160009054906101000a900473ffffffffffffffffffffffffffffffffffffffff1673ffffffffffffffffffffffffffffffffffffffff1673ffffffffffffffffffffffffffffffffffffffff16815250509050919050565b6001816000016000828254019250508190555050565b600081600001549050919050565b6040518060a0016040528060608152602001600081526020016000815260200160008152602001600073ffffffffffffffffffffffffffffffffffffffff1681525090565b5080546123d390612a28565b6000825580601f106123e55750612404565b601f016020900490600052602060002090810190612403919061246a565b5b50565b6040518060600160405280600073ffffffffffffffffffffffffffffffffffffffff168152602001600073ffffffffffffffffffffffffffffffffffffffff168152602001600073ffffffffffffffffffffffffffffffffffffffff1681525090565b5b8082111561248357600081600090555060010161246b565b5090565b6000604051905090565b600080fd5b600080fd5b6000819050919050565b6124ae8161249b565b81146124b957600080fd5b50565b6000813590506124cb816124a5565b92915050565b600080604083850312156124e8576124e7612491565b5b60006124f6858286016124bc565b9250506020612507858286016124bc565b9150509250929050565b60006020828403121561252757612526612491565b5b6000612535848285016124bc565b91505092915050565b600081519050919050565b600082825260208201905092915050565b60005b8381101561257857808201518184015260208101905061255d565b60008484015250505050565b6000601f19601f8301169050919050565b60006125a08261253e565b6125aa8185612549565b93506125ba81856020860161255a565b6125c381612584565b840191505092915050565b6125d78161249b565b82525050565b600073ffffffffffffffffffffffffffffffffffffffff82169050919050565b6000612608826125dd565b9050919050565b612618816125fd565b82525050565b600060a083016000830151848203600086015261263b8282612595565b915050602083015161265060208601826125ce565b50604083015161266360408601826125ce565b50606083015161267660608601826125ce565b506080830151612689608086018261260f565b508091505092915050565b600060208201905081810360008301526126ae818461261e565b905092915050565b600080fd5b600080fd5b7f4e487b7100000000000000000000000000000000000000000000000000000000600052604160045260246000fd5b6126f882612584565b810181811067ffffffffffffffff82111715612717576127166126c0565b5b80604052505050565b600061272a612487565b905061273682826126ef565b919050565b600067ffffffffffffffff821115612756576127556126c0565b5b61275f82612584565b9050602081019050919050565b82818337600083830152505050565b600061278e6127898461273b565b612720565b9050828152602081018484840111156127aa576127a96126bb565b5b6127b584828561276c565b509392505050565b600082601f8301126127d2576127d16126b6565b5b81356127e284826020860161277b565b91505092915050565b60006020828403121561280157612800612491565b5b600082013567ffffffffffffffff81111561281f5761281e612496565b5b61282b848285016127bd565b91505092915050565b60608201600082015161284a600085018261260f565b50602082015161285d602085018261260f565b506040820151612870604085018261260f565b50505050565b600060608201905061288b6000830184612834565b92915050565b600082825260208201905092915050565b60006128ad8261253e565b6128b78185612891565b93506128c781856020860161255a565b6128d081612584565b840191505092915050565b6128e48161249b565b82525050565b6128f3816125fd565b82525050565b600060a082019050818103600083015261291381886128a2565b905061292260208301876128db565b61292f60408301866128db565b61293c60608301856128db565b61294960808301846128ea565b9695505050505050565b600060608201905061296860008301866128ea565b61297560208301856128ea565b61298260408301846128ea565b949350505050565b6000806000606084860312156129a3576129a2612491565b5b600084013567ffffffffffffffff8111156129c1576129c0612496565b5b6129cd868287016127bd565b93505060206129de868287016124bc565b92505060406129ef868287016124bc565b9150509250925092565b7f4e487b7100000000000000000000000000000000000000000000000000000000600052602260045260246000fd5b60006002820490506001821680612a4057607f821691505b602082108103612a5357612a526129f9565b5b50919050565b600081905092915050565b6000612a6f8261253e565b612a798185612a59565b9350612a8981856020860161255a565b80840191505092915050565b6000612aa18284612a64565b915081905092915050565b7f4e487b7100000000000000000000000000000000000000000000000000000000600052601160045260246000fd5b6000612ae68261249b565b9150612af18361249b565b9250828203905081811115612b0957612b08612aac565b5b92915050565b6000612b1a8261249b565b9150612b258361249b565b9250828202612b338161249b565b91508282048414831517612b4a57612b49612aac565b5b5092915050565b7f4e487b7100000000000000000000000000000000000000000000000000000000600052601260045260246000fd5b6000612b8b8261249b565b9150612b968361249b565b925082612ba657612ba5612b51565b5b828204905092915050565b6000612bbc8261249b565b9150612bc78361249b565b9250828201905080821115612bdf57612bde612aac565b5b92915050565b60008190508160005260206000209050919050565b60006020601f8301049050919050565b600082821b905092915050565b600060088302612c477fffffffffffffffffffffffffffffffffffffffffffffffffffffffffffffffff82612c0a565b612c518683612c0a565b95508019841693508086168417925050509392505050565b6000819050919050565b6000612c8e612c89612c848461249b565b612c69565b61249b565b9050919050565b6000819050919050565b612ca883612c73565b612cbc612cb482612c95565b848454612c17565b825550505050565b600090565b612cd1612cc4565b612cdc818484612c9f565b505050565b5b81811015612d0057612cf5600082612cc9565b600181019050612ce2565b5050565b601f821115612d4557612d1681612be5565b612d1f84612bfa565b81016020851015612d2e578190505b612d42612d3a85612bfa565b830182612ce1565b50505b505050565b600082821c905092915050565b6000612d6860001984600802612d4a565b1980831691505092915050565b6000612d818383612d57565b9150826002028217905092915050565b612d9a8261253e565b67ffffffffffffffff811115612db357612db26126c0565b5b612dbd8254612a28565b612dc8828285612d04565b600060209050601f831160018114612dfb5760008415612de9578287015190505b612df38582612d75565b865550612e5b565b601f198416612e0986612be5565b60005b82811015612e3157848901518255600182019150602085019450602081019050612e0c565b86831015612e4e5784890151612e4a601f891682612d57565b8355505b6001600288020188555050505b505050505050565b60008154612e7081612a28565b612e7a8186612a59565b94506001821660008114612e955760018114612eaa57612edd565b60ff1983168652811515820286019350612edd565b612eb385612be5565b60005b83811015612ed557815481890152600182019150602081019050612eb6565b838801955050505b50505092915050565b6000612ef28284612e63565b915081905092915050565b6000604082019050612f1260008301856128db565b612f1f60208301846128db565b939250505056fea2646970667358221220a206cb9be1ee7b1895a91859a4f7284f7f96c97f48081bfe3b9d20aae8312ef964736f6c63430008110033",
  "devdoc": {
    "kind": "dev",
    "methods": {
      "buyItem(uint256)": {
        "params": {
          "_tokenID": "- The token id of the product to be bought"
        }
      },
      "cancelItem(uint256)": {
        "params": {
          "_tokenID": "- The token id of the product to be canceled"
        }
      },
      "listItem(string,uint256,uint256)": {
        "params": {
          "_ProductName": "- Name of the product",
          "_price": "price of the product to be sold",
          "_quantity": "- Quantity of product to be sold"
        }
      },
      "purchaseItem(uint256)": {
        "params": {
          "_tokenID": "- The token id of the product to be bought"
        }
      },
      "updateListing(uint256,uint256)": {
        "params": {
          "_newPrice": "- The price to which you want to update it.",
          "_tokenID": "- The token id of the product to be updated"
        }
      }
    },
    "version": 1
  },
  "userdoc": {
    "kind": "user",
    "methods": {
      "buyItem(uint256)": {
        "notice": "Buy the product from farmer and add it into distributer's inventory"
      },
      "cancelItem(uint256)": {
        "notice": "Cancel the listing of a product"
      },
      "listItem(string,uint256,uint256)": {
        "notice": "List the product details on the marketplace"
      },
      "purchaseItem(uint256)": {
        "notice": "Purchase the item from distributer"
      },
      "updateListing(uint256,uint256)": {
        "notice": "Update the price of an already listed product"
      }
    },
    "version": 1
  },
  "storageLayout": {
    "storage": [
      {
        "astId": 407,
        "contract": "contracts/SupplyChain.sol:SupplyChain",
        "label": "_tokenIDs",
        "offset": 0,
        "slot": "0",
        "type": "t_struct(Counter)5_storage"
      },
      {
        "astId": 430,
        "contract": "contracts/SupplyChain.sol:SupplyChain",
        "label": "s_farmerInventory",
        "offset": 0,
        "slot": "1",
        "type": "t_mapping(t_uint256,t_struct(Product)418_storage)"
      },
      {
        "astId": 435,
        "contract": "contracts/SupplyChain.sol:SupplyChain",
        "label": "s_distributerInventory",
        "offset": 0,
        "slot": "2",
        "type": "t_mapping(t_uint256,t_struct(Product)418_storage)"
      },
      {
        "astId": 440,
        "contract": "contracts/SupplyChain.sol:SupplyChain",
        "label": "s_totalDistibuterInventory",
        "offset": 0,
        "slot": "3",
        "type": "t_mapping(t_string_memory_ptr,t_struct(Product)418_storage)"
      },
      {
        "astId": 445,
        "contract": "contracts/SupplyChain.sol:SupplyChain",
        "label": "s_productOwners",
        "offset": 0,
        "slot": "4",
        "type": "t_mapping(t_uint256,t_struct(Owners)425_storage)"
      },
      {
        "astId": 450,
        "contract": "contracts/SupplyChain.sol:SupplyChain",
        "label": "s_productDistributer",
        "offset": 0,
        "slot": "5",
        "type": "t_mapping(t_string_memory_ptr,t_struct(Product)418_storage)"
      }
    ],
    "types": {
      "t_address": {
        "encoding": "inplace",
        "label": "address",
        "numberOfBytes": "20"
      },
      "t_mapping(t_string_memory_ptr,t_struct(Product)418_storage)": {
        "encoding": "mapping",
        "key": "t_string_memory_ptr",
        "label": "mapping(string => struct SupplyChain.Product)",
        "numberOfBytes": "32",
        "value": "t_struct(Product)418_storage"
      },
      "t_mapping(t_uint256,t_struct(Owners)425_storage)": {
        "encoding": "mapping",
        "key": "t_uint256",
        "label": "mapping(uint256 => struct SupplyChain.Owners)",
        "numberOfBytes": "32",
        "value": "t_struct(Owners)425_storage"
      },
      "t_mapping(t_uint256,t_struct(Product)418_storage)": {
        "encoding": "mapping",
        "key": "t_uint256",
        "label": "mapping(uint256 => struct SupplyChain.Product)",
        "numberOfBytes": "32",
        "value": "t_struct(Product)418_storage"
      },
      "t_string_memory_ptr": {
        "encoding": "bytes",
        "label": "string",
        "numberOfBytes": "32"
      },
      "t_string_storage": {
        "encoding": "bytes",
        "label": "string",
        "numberOfBytes": "32"
      },
      "t_struct(Counter)5_storage": {
        "encoding": "inplace",
        "label": "struct Counters.Counter",
        "members": [
          {
            "astId": 4,
            "contract": "contracts/SupplyChain.sol:SupplyChain",
            "label": "_value",
            "offset": 0,
            "slot": "0",
            "type": "t_uint256"
          }
        ],
        "numberOfBytes": "32"
      },
      "t_struct(Owners)425_storage": {
        "encoding": "inplace",
        "label": "struct SupplyChain.Owners",
        "members": [
          {
            "astId": 420,
            "contract": "contracts/SupplyChain.sol:SupplyChain",
            "label": "farmerAddress",
            "offset": 0,
            "slot": "0",
            "type": "t_address"
          },
          {
            "astId": 422,
            "contract": "contracts/SupplyChain.sol:SupplyChain",
            "label": "distributerAddress",
            "offset": 0,
            "slot": "1",
            "type": "t_address"
          },
          {
            "astId": 424,
            "contract": "contracts/SupplyChain.sol:SupplyChain",
            "label": "retailerAddress",
            "offset": 0,
            "slot": "2",
            "type": "t_address"
          }
        ],
        "numberOfBytes": "96"
      },
      "t_struct(Product)418_storage": {
        "encoding": "inplace",
        "label": "struct SupplyChain.Product",
        "members": [
          {
            "astId": 409,
            "contract": "contracts/SupplyChain.sol:SupplyChain",
            "label": "productName",
            "offset": 0,
            "slot": "0",
            "type": "t_string_storage"
          },
          {
            "astId": 411,
            "contract": "contracts/SupplyChain.sol:SupplyChain",
            "label": "tokenId",
            "offset": 0,
            "slot": "1",
            "type": "t_uint256"
          },
          {
            "astId": 413,
            "contract": "contracts/SupplyChain.sol:SupplyChain",
            "label": "productQuantity",
            "offset": 0,
            "slot": "2",
            "type": "t_uint256"
          },
          {
            "astId": 415,
            "contract": "contracts/SupplyChain.sol:SupplyChain",
            "label": "productPrice",
            "offset": 0,
            "slot": "3",
            "type": "t_uint256"
          },
          {
            "astId": 417,
            "contract": "contracts/SupplyChain.sol:SupplyChain",
            "label": "seller",
            "offset": 0,
            "slot": "4",
            "type": "t_address"
          }
        ],
        "numberOfBytes": "160"
      },
      "t_uint256": {
        "encoding": "inplace",
        "label": "uint256",
        "numberOfBytes": "32"
      }
    }
  }
}